{
  "address": "0xCBF9d2A85426E8b106E268688850130420807C76",
  "abi": [
    {
      "inputs": [],
      "name": "Expired",
      "type": "error"
    },
    {
      "inputs": [],
      "name": "InsufficientAmount",
      "type": "error"
    },
    {
      "inputs": [],
      "name": "InsufficientYield",
      "type": "error"
    },
    {
      "inputs": [],
      "name": "InvalidAccount",
      "type": "error"
    },
    {
      "inputs": [],
      "name": "InvalidOwner",
      "type": "error"
    },
    {
      "inputs": [],
      "name": "InvalidPath",
      "type": "error"
    },
    {
      "inputs": [],
      "name": "InvalidReceiver",
      "type": "error"
    },
    {
      "inputs": [],
      "name": "InvalidSender",
      "type": "error"
    },
    {
      "inputs": [],
      "name": "InvalidSignature",
      "type": "error"
    },
    {
      "inputs": [],
      "name": "InvalidSpender",
      "type": "error"
    },
    {
      "inputs": [],
      "name": "NoMigratorSet",
      "type": "error"
    },
    {
      "inputs": [],
      "name": "NotEnoughBalance",
      "type": "error"
    },
    {
      "anonymous": false,
      "inputs": [
        {
          "indexed": true,
          "internalType": "address",
          "name": "owner",
          "type": "address"
        },
        {
          "indexed": true,
          "internalType": "address",
          "name": "spender",
          "type": "address"
        },
        {
          "indexed": false,
          "internalType": "uint256",
          "name": "value",
          "type": "uint256"
        }
      ],
      "name": "Approval",
      "type": "event"
    },
    {
      "anonymous": false,
      "inputs": [
        {
          "indexed": false,
          "internalType": "uint256",
          "name": "shares",
          "type": "uint256"
        },
        {
          "indexed": false,
          "internalType": "uint256",
          "name": "yield",
          "type": "uint256"
        },
        {
          "indexed": true,
          "internalType": "address",
          "name": "beneficiary",
          "type": "address"
        }
      ],
      "name": "ClaimSushi",
      "type": "event"
    },
    {
      "anonymous": false,
      "inputs": [
        {
          "indexed": false,
          "internalType": "uint256",
          "name": "shares",
          "type": "uint256"
        },
        {
          "indexed": false,
          "internalType": "uint256",
          "name": "amountLP",
          "type": "uint256"
        },
        {
          "indexed": true,
          "internalType": "address",
          "name": "beneficiary",
          "type": "address"
        }
      ],
      "name": "Deposit",
      "type": "event"
    },
    {
      "anonymous": false,
      "inputs": [
        {
          "indexed": false,
          "internalType": "uint256",
          "name": "shares",
          "type": "uint256"
        },
        {
          "indexed": false,
          "internalType": "uint256",
          "name": "amountLP",
          "type": "uint256"
        },
        {
          "indexed": true,
          "internalType": "address",
          "name": "beneficiary",
          "type": "address"
        }
      ],
      "name": "EmergencyMigrate",
      "type": "event"
    },
    {
      "anonymous": false,
      "inputs": [
        {
          "indexed": false,
          "internalType": "uint256",
          "name": "shares",
          "type": "uint256"
        },
        {
          "indexed": false,
          "internalType": "uint256",
          "name": "amountLP",
          "type": "uint256"
        },
        {
          "indexed": true,
          "internalType": "address",
          "name": "beneficiary",
          "type": "address"
        }
      ],
      "name": "EmergencyWithdraw",
      "type": "event"
    },
    {
      "anonymous": false,
      "inputs": [
        {
          "indexed": false,
          "internalType": "uint8",
          "name": "version",
          "type": "uint8"
        }
      ],
      "name": "Initialized",
      "type": "event"
    },
    {
      "anonymous": false,
      "inputs": [
        {
          "indexed": false,
          "internalType": "uint256",
          "name": "shares",
          "type": "uint256"
        },
        {
          "indexed": false,
          "internalType": "uint256",
          "name": "amountLP",
          "type": "uint256"
        },
        {
          "indexed": true,
          "internalType": "address",
          "name": "beneficiary",
          "type": "address"
        }
      ],
      "name": "Migrate",
      "type": "event"
    },
    {
      "anonymous": false,
      "inputs": [
        {
          "indexed": true,
          "internalType": "address",
          "name": "from",
          "type": "address"
        },
        {
          "indexed": true,
          "internalType": "address",
          "name": "to",
          "type": "address"
        },
        {
          "indexed": false,
          "internalType": "uint256",
          "name": "value",
          "type": "uint256"
        }
      ],
      "name": "Transfer",
      "type": "event"
    },
    {
      "anonymous": false,
      "inputs": [
        {
          "indexed": false,
          "internalType": "uint256",
          "name": "shares",
          "type": "uint256"
        },
        {
          "indexed": false,
          "internalType": "uint256",
          "name": "amountLP",
          "type": "uint256"
        },
        {
          "indexed": true,
          "internalType": "address",
          "name": "beneficiary",
          "type": "address"
        }
      ],
      "name": "Withdraw",
      "type": "event"
    },
    {
      "inputs": [],
      "name": "DOMAIN_SEPARATOR",
      "outputs": [
        {
          "internalType": "bytes32",
          "name": "",
          "type": "bytes32"
        }
      ],
      "stateMutability": "view",
      "type": "function"
    },
    {
      "inputs": [
        {
          "internalType": "address",
          "name": "owner",
          "type": "address"
        },
        {
          "internalType": "address",
          "name": "spender",
          "type": "address"
        }
      ],
      "name": "allowance",
      "outputs": [
        {
          "internalType": "uint256",
          "name": "",
          "type": "uint256"
        }
      ],
      "stateMutability": "view",
      "type": "function"
    },
    {
      "inputs": [
        {
          "internalType": "address",
          "name": "spender",
          "type": "address"
        },
        {
          "internalType": "uint256",
          "name": "amount",
          "type": "uint256"
        }
      ],
      "name": "approve",
      "outputs": [
        {
          "internalType": "bool",
          "name": "",
          "type": "bool"
        }
      ],
      "stateMutability": "nonpayable",
      "type": "function"
    },
    {
      "inputs": [],
      "name": "approveMax",
      "outputs": [],
      "stateMutability": "nonpayable",
      "type": "function"
    },
    {
      "inputs": [
        {
          "internalType": "address",
          "name": "account",
          "type": "address"
        }
      ],
      "name": "balanceOf",
      "outputs": [
        {
          "internalType": "uint256",
          "name": "",
          "type": "uint256"
        }
      ],
      "stateMutability": "view",
      "type": "function"
    },
    {
      "inputs": [],
      "name": "checkpoint",
      "outputs": [],
      "stateMutability": "nonpayable",
      "type": "function"
    },
    {
      "inputs": [],
      "name": "decimals",
      "outputs": [
        {
          "internalType": "uint8",
          "name": "",
          "type": "uint8"
        }
      ],
      "stateMutability": "view",
      "type": "function"
    },
    {
      "inputs": [
        {
          "internalType": "uint256",
          "name": "amountLP",
          "type": "uint256"
        },
        {
          "internalType": "address[]",
          "name": "path0",
          "type": "address[]"
        },
        {
          "internalType": "address[]",
          "name": "path1",
          "type": "address[]"
        },
        {
          "internalType": "uint256",
          "name": "amountMin",
          "type": "uint256"
        },
        {
          "internalType": "address",
          "name": "beneficiary",
          "type": "address"
        },
        {
          "internalType": "uint256",
          "name": "deadline",
          "type": "uint256"
        }
      ],
      "name": "deposit",
      "outputs": [],
      "stateMutability": "nonpayable",
      "type": "function"
    },
    {
      "inputs": [
        {
          "internalType": "uint256",
          "name": "amountLP",
          "type": "uint256"
        },
        {
          "internalType": "address[]",
          "name": "path0",
          "type": "address[]"
        },
        {
          "internalType": "address[]",
          "name": "path1",
          "type": "address[]"
        },
        {
          "internalType": "uint256",
          "name": "amountMin",
          "type": "uint256"
        },
        {
          "internalType": "address",
          "name": "beneficiary",
          "type": "address"
        },
        {
          "internalType": "uint256",
          "name": "deadline",
          "type": "uint256"
        },
        {
          "internalType": "uint8",
          "name": "v",
          "type": "uint8"
        },
        {
          "internalType": "bytes32",
          "name": "r",
          "type": "bytes32"
        },
        {
          "internalType": "bytes32",
          "name": "s",
          "type": "bytes32"
        }
      ],
      "name": "depositSigned",
      "outputs": [],
      "stateMutability": "nonpayable",
      "type": "function"
    },
    {
      "inputs": [
        {
          "internalType": "uint256",
          "name": "amount",
          "type": "uint256"
        },
        {
          "internalType": "address[]",
          "name": "path0",
          "type": "address[]"
        },
        {
          "internalType": "address[]",
          "name": "path1",
          "type": "address[]"
        },
        {
          "internalType": "uint256",
          "name": "amountLPMin",
          "type": "uint256"
        },
        {
          "internalType": "address",
          "name": "beneficiary",
          "type": "address"
        },
        {
          "internalType": "uint256",
          "name": "deadline",
          "type": "uint256"
        }
      ],
      "name": "depositWithSushi",
      "outputs": [],
      "stateMutability": "nonpayable",
      "type": "function"
    },
    {
      "inputs": [
        {
          "internalType": "address",
          "name": "beneficiary",
          "type": "address"
        },
        {
          "internalType": "bytes",
          "name": "params",
          "type": "bytes"
        }
      ],
      "name": "emergencyMigrate",
      "outputs": [],
      "stateMutability": "nonpayable",
      "type": "function"
    },
    {
      "inputs": [
        {
          "internalType": "address",
          "name": "beneficiary",
          "type": "address"
        }
      ],
      "name": "emergencyWithdraw",
      "outputs": [],
      "stateMutability": "nonpayable",
      "type": "function"
    },
    {
      "inputs": [],
      "name": "factory",
      "outputs": [
        {
          "internalType": "address",
          "name": "",
          "type": "address"
        }
      ],
      "stateMutability": "view",
      "type": "function"
    },
    {
      "inputs": [
        {
          "internalType": "address",
          "name": "_router",
          "type": "address"
        },
        {
          "internalType": "address",
          "name": "_masterChef",
          "type": "address"
        },
        {
          "internalType": "uint256",
          "name": "_pid",
          "type": "uint256"
        }
      ],
      "name": "initialize",
      "outputs": [],
      "stateMutability": "nonpayable",
      "type": "function"
    },
    {
      "inputs": [],
      "name": "lpToken",
      "outputs": [
        {
          "internalType": "address",
          "name": "",
          "type": "address"
        }
      ],
      "stateMutability": "view",
      "type": "function"
    },
    {
      "inputs": [],
      "name": "masterChef",
      "outputs": [
        {
          "internalType": "address",
          "name": "",
          "type": "address"
        }
      ],
      "stateMutability": "view",
      "type": "function"
    },
    {
      "inputs": [
        {
          "internalType": "address",
          "name": "beneficiary",
          "type": "address"
        },
        {
          "internalType": "bytes",
          "name": "params",
          "type": "bytes"
        }
      ],
      "name": "migrate",
      "outputs": [],
      "stateMutability": "nonpayable",
      "type": "function"
    },
    {
      "inputs": [],
      "name": "name",
      "outputs": [
        {
          "internalType": "string",
          "name": "",
          "type": "string"
        }
      ],
      "stateMutability": "view",
      "type": "function"
    },
    {
      "inputs": [
        {
          "internalType": "address",
          "name": "",
          "type": "address"
        }
      ],
      "name": "nonces",
      "outputs": [
        {
          "internalType": "uint256",
          "name": "",
          "type": "uint256"
        }
      ],
      "stateMutability": "view",
      "type": "function"
    },
    {
      "inputs": [
        {
          "internalType": "address",
          "name": "owner",
          "type": "address"
        },
        {
          "internalType": "address",
          "name": "spender",
          "type": "address"
        },
        {
          "internalType": "uint256",
          "name": "value",
          "type": "uint256"
        },
        {
          "internalType": "uint256",
          "name": "deadline",
          "type": "uint256"
        },
        {
          "internalType": "uint8",
          "name": "v",
          "type": "uint8"
        },
        {
          "internalType": "bytes32",
          "name": "r",
          "type": "bytes32"
        },
        {
          "internalType": "bytes32",
          "name": "s",
          "type": "bytes32"
        }
      ],
      "name": "permit",
      "outputs": [],
      "stateMutability": "nonpayable",
      "type": "function"
    },
    {
      "inputs": [],
      "name": "pid",
      "outputs": [
        {
          "internalType": "uint256",
          "name": "",
          "type": "uint256"
        }
      ],
      "stateMutability": "view",
      "type": "function"
    },
    {
      "inputs": [],
      "name": "router",
      "outputs": [
        {
          "internalType": "address",
          "name": "",
          "type": "address"
        }
      ],
      "stateMutability": "view",
      "type": "function"
    },
    {
      "inputs": [
        {
          "internalType": "address",
          "name": "account",
          "type": "address"
        }
      ],
      "name": "sharesOf",
      "outputs": [
        {
          "internalType": "uint256",
          "name": "",
          "type": "uint256"
        }
      ],
      "stateMutability": "view",
      "type": "function"
    },
    {
      "inputs": [],
      "name": "sushi",
      "outputs": [
        {
          "internalType": "address",
          "name": "",
          "type": "address"
        }
      ],
      "stateMutability": "view",
      "type": "function"
    },
    {
      "inputs": [],
      "name": "symbol",
      "outputs": [
        {
          "internalType": "string",
          "name": "",
          "type": "string"
        }
      ],
      "stateMutability": "view",
      "type": "function"
    },
    {
      "inputs": [],
      "name": "token0",
      "outputs": [
        {
          "internalType": "address",
          "name": "",
          "type": "address"
        }
      ],
      "stateMutability": "view",
      "type": "function"
    },
    {
      "inputs": [],
      "name": "token1",
      "outputs": [
        {
          "internalType": "address",
          "name": "",
          "type": "address"
        }
      ],
      "stateMutability": "view",
      "type": "function"
    },
    {
      "inputs": [],
      "name": "totalShares",
      "outputs": [
        {
          "internalType": "uint256",
          "name": "",
          "type": "uint256"
        }
      ],
      "stateMutability": "view",
      "type": "function"
    },
    {
      "inputs": [],
      "name": "totalSupply",
      "outputs": [
        {
          "internalType": "uint256",
          "name": "",
          "type": "uint256"
        }
      ],
      "stateMutability": "view",
      "type": "function"
    },
    {
      "inputs": [
        {
          "internalType": "address",
          "name": "to",
          "type": "address"
        },
        {
          "internalType": "uint256",
          "name": "amount",
          "type": "uint256"
        }
      ],
      "name": "transfer",
      "outputs": [
        {
          "internalType": "bool",
          "name": "",
          "type": "bool"
        }
      ],
      "stateMutability": "nonpayable",
      "type": "function"
    },
    {
      "inputs": [
        {
          "internalType": "address",
          "name": "from",
          "type": "address"
        },
        {
          "internalType": "address",
          "name": "to",
          "type": "address"
        },
        {
          "internalType": "uint256",
          "name": "amount",
          "type": "uint256"
        }
      ],
      "name": "transferFrom",
      "outputs": [
        {
          "internalType": "bool",
          "name": "",
          "type": "bool"
        }
      ],
      "stateMutability": "nonpayable",
      "type": "function"
    },
    {
      "inputs": [
        {
          "internalType": "uint256",
          "name": "shares",
          "type": "uint256"
        },
        {
          "internalType": "address",
          "name": "beneficiary",
          "type": "address"
        }
      ],
      "name": "withdraw",
      "outputs": [],
      "stateMutability": "nonpayable",
      "type": "function"
    },
    {
      "inputs": [
        {
          "internalType": "address",
          "name": "account",
          "type": "address"
        }
      ],
      "name": "withdrawableLPsOf",
      "outputs": [
        {
          "internalType": "uint256",
          "name": "",
          "type": "uint256"
        }
      ],
      "stateMutability": "view",
      "type": "function"
    },
    {
      "inputs": [],
      "name": "withdrawableTotalLPs",
      "outputs": [
        {
          "internalType": "uint256",
          "name": "",
          "type": "uint256"
        }
      ],
      "stateMutability": "view",
      "type": "function"
    },
    {
      "inputs": [],
      "name": "withdrawableTotalYield",
      "outputs": [
        {
          "internalType": "uint256",
          "name": "",
          "type": "uint256"
        }
      ],
      "stateMutability": "view",
      "type": "function"
    },
    {
      "inputs": [
        {
          "internalType": "address",
          "name": "account",
          "type": "address"
        }
      ],
      "name": "withdrawableYieldOf",
      "outputs": [
        {
          "internalType": "uint256",
          "name": "",
          "type": "uint256"
        }
      ],
      "stateMutability": "view",
      "type": "function"
    }
  ],
  "transactionHash": "0x031d1673131b35536d48bcaf283dd11d6b37d19094c84d297236447048e91018",
  "args": [],
  "numDeployments": 1,
  "solcInputHash": "a665560b628f7f2c3d37e87d44061d99",
  "bytecode": "0x6080806040523461001b576001600d55613b9790816100218239f35b600080fdfe6040608081526004908136101561001557600080fd5b600091823560e01c9081621701a8146116ac578162f714ce146115b557816306fdde031461151c578163095ea7b3146114eb5781630a087903146114c25781630dfe1681146114995781631794bb3c1461137a57816317d682891461135457816318160ddd1461132b57816323b872dd146112bc5781632d215f0e146111b5578163313ce567146111995781633644e5151461117c5781633a98ef391461115d578163429d866c1461113e57816353d44f0814610d5d578163575a86b214610d345781635fcbd28514610d0b5781636ff1c9bc14610c0157816370a0823114610bdb5781637ecebe0014610ba35781638643441a14610b7d57816395d89b4114610a9b578163a9059cbb14610a68578163c2ac712614610a4f57838263c2c4c5c11461093257508163c3fbb6fd14610710578163c45a0155146106e7578163ccc30e8e146106c3578163d21220a71461069a578163d505accf146104f0578163dd62ed3e146104a2578163eb3d034e1461022f57508063f106845414610211578063f5eb42dc146101da5763f887ea40146101af57600080fd5b346101d657816003193601126101d657600f5490516001600160a01b039091168152602090f35b5080fd5b50346101d65760203660031901126101d65760209181906001600160a01b03610201611737565b168152600a845220549051908152f35b50346101d657816003193601126101d6576020906011549051908152f35b90503461049e5761023f366118f6565b90939161024a612984565b600e548351637cd07e4760e01b8152956020956001600160a01b039492909190879089908490829089165afa978815610494578998610459575b508488169788156104495790899291338452600a895287842054996102b76102ae6016548d6121c5565b600954906121d8565b958860105416601154813b15610445578791604483928e519485938492630441a3e760e41b84528c8401528d60248401525af180156104235790879161042d575b50506103048c33613486565b610310876016546126b7565b6016556013548a5163095ea7b360e01b81526001600160a01b0390941686850190815260208101899052908a1693908c908290819060400103818a885af18015610423576103f6575b5060115490823b156103e8578c9561038e88969287938c8f8d90519b8c9a8b998a986377262c5560e01b8a5233908a016131f6565b03925af180156103ec576103d4575b50507f3e105f0ec9abc92cd89471402afc92973d55570ac1b9a102e6927310e6b1a4a89484519687528601521692a26001600d5580f35b6103dd906117f2565b6103e857863861039d565b8680fd5b86513d84823e3d90fd5b610415908c8d3d1061041c575b61040d8183611851565b810190612747565b5038610359565b503d610403565b8b513d89823e3d90fd5b610436906117f2565b6104415785386102f8565b8580fd5b8780fd5b86516395ca3f5160e01b81528390fd5b9097508681813d831161048d575b6104718183611851565b810103126104895761048290611952565b9638610284565b8880fd5b503d610467565b86513d8b823e3d90fd5b8280fd5b5050346101d657806003193601126101d6576020916104bf611737565b826104c8611721565b6001600160a01b039283168452600b8652922091166000908152908352819020549051908152f35b8383346101d65760e03660031901126101d65761050b611737565b610513611721565b90604435926064356084359060ff8216820361069557804211610685576001600160a01b03848116808952600c60205284892080549194929392919060001982146106725760018201905585519260208401917f6e71edae12b1b97f4d1f60370fef10105fa2faae0126114a169c64845d6126c983528688860152858a1660608601528a608086015260a085015260c084015260c0835260e08301926001600160401b03938181108582111761065d578752519020906105d161356c565b92865192602084019461190160f01b865260228501526042840152604283526080830190838210908211176106485791610624939161061c93885260c4359260a435925190206136ed565b9190916135d3565b160361063957506106369394506138bb565b80f35b51638baa579f60e01b81528590fd5b60418c634e487b7160e01b6000525260246000fd5b60418d634e487b7160e01b6000525260246000fd5b634e487b7160e01b8b5260118c5260248bfd5b8251630407b05b60e31b81528890fd5b600080fd5b5050346101d657816003193601126101d65760155490516001600160a01b039091168152602090f35b5050346101d657816003193601126101d6576020906106e0612266565b9051908152f35b5050346101d657816003193601126101d657600e5490516001600160a01b039091168152602090f35b90503461049e57610720366118f6565b90939161072b612984565b600e548351637cd07e4760e01b8152956020956001600160a01b039492909190879089908490829089165afa9788156104945789986108fb575b508488169788156104495790899291338452600a8952878420549961078f6102ae6016548d6121c5565b958860105416601154813b15610445578791604483928e519485938492630441a3e760e41b84528c8401528d60248401525af18015610423579087916108e7575b50506107dc888d612fca565b6107e68c33613486565b6107f2876016546126b7565b6016556013548a5163095ea7b360e01b81526001600160a01b0390941686850190815260208101899052908a1693908c908290819060400103818a885af18015610423576108ca575b5060115490823b156103e8578c9561087088969287938c8f8d90519b8c9a8b998a986377262c5560e01b8a5233908a016131f6565b03925af180156103ec576108b6575b50507fdf2babed5927dba573913507dac459b4042c7bf842158e9d703d1708647fda689484519687528601521692a26001600d5580f35b6108bf906117f2565b6103e857863861087f565b6108e0908c8d3d1061041c5761040d8183611851565b503861083b565b6108f0906117f2565b6104415785386107d0565b9097508681813d831161092b575b6109138183611851565b810103126104895761092490611952565b9638610765565b503d610909565b80918434610a4b5782600319360112610a4b5761094d612984565b60135481516370a0823160e01b815230848201526001600160a01b03916020908290602490829086165afa908115610a41578591610a0d575b506016548111610a04575b506010541691601154833b15610a0057604485928385519687948593631c57762b60e31b85528401528160248401525af19081156109f757506109e0575b506109d8613250565b6001600d5580f35b6109e9906117f2565b6109f45780826109cf565b80fd5b513d84823e3d90fd5b8480fd5b60165585610991565b9450506020843d8211610a39575b81610a2860209383611851565b810103126106955784935186610986565b3d9150610a1b565b83513d87823e3d90fd5b5050fd5b83346109f457806003193601126109f45761063661275f565b5050346101d657806003193601126101d657602090610a92610a88611737565b602435903361377c565b50505160018152f35b8284346109f457806003193601126109f457508051600091600854610abf816117b8565b80845290600190818116908115610b555750600114610af8575b5050610aea82610af4940383611851565b5191829182611895565b0390f35b6008600090815294507ff3f7a9fe364faab93b216da50a3214154f22a0a2b415b23a84c8169e8b636ee35b828610610b3d5750505091810160200191610aea82610ad9565b80546020878701810191909152909501948101610b23565b610af496508592506020915092610aea9360ff191682840152151560051b8201019450610ad9565b5050346101d65760203660031901126101d6576020906106e0610b9e611737565b6123d1565b5050346101d65760203660031901126101d65760209181906001600160a01b03610bcb611737565b168152600c845220549051908152f35b5050346101d65760203660031901126101d6576020906106e0610bfc611737565b612240565b9190503461049e57602036600319011261049e57610c1d611737565b90610c26612984565b338452600a6020528084205492610c426102ae601654866121c5565b928560018060a01b0392836010541690601154823b15610d0757604484928389519586948593630441a3e760e41b85528401528b60248401525af18015610cfd57610ce9575b505083610cbb7f438cc28e476aedeb3c5e0f1df91e3c6aaef90ea0f20fb89908c6ef15549e00df95838560135416612f89565b610cc58633613486565b610cd1816016546126b7565b601655835195865260208601521692a26001600d5580f35b610cf2906117f2565b610441578538610c88565b85513d84823e3d90fd5b8380fd5b5050346101d657816003193601126101d65760135490516001600160a01b039091168152602090f35b5050346101d657816003193601126101d65760105490516001600160a01b039091168152602090f35b9190503461049e57610d6e3661174d565b90949796989293881561112b57610d8487612a00565b6012546001600160a01b0398919089169089168114801590611101575b6110af5786156110ee578089610db685612a00565b16148015906110bf575b6110af57610def9291610dda8d610de79330903390612da3565b89600f54169b3691612a3f565b953691612a3f565b978960011c90610e0d838b610e06828a8787613ab2565b9484613ab2565b9580516000199182820191821161109c578a91610e29916139f6565b51169a8051918201918211611089578d606094938b610e4d8f9495610104966139f6565b5116968d519a8b96879562e8e33760e81b87528c870152896024870152604486015260648501528260848501528260a48501523060c485015260e48401525af193841561107f578a94611046575b5086516370a0823160e01b808252308583015260209990918a81602481855afa90811561103c578d9161100f575b5080610ffd575b5050875190815230848201528881602481855afa908115610ff3578b91610fc6575b5080610fb4575b50508210610fa6578790846010541690601154823b15610d075760448492838a519586948593631c57762b60e31b85528401528860248401525af180156103ec57610f92575b50507fd68606c673aecac7ce24ec44fd7d77b401356dfd76fe9b36cb58e579c4220aed94610f6b613250565b610f7587846133e8565b610f8182601654612233565b60165584519687528601521692a280f35b610f9b906117f2565b6103e8578638610f3f565b8451632ca2f52b60e11b8152fd5b610fbf913390612f89565b3880610ef9565b90508881813d8311610fec575b610fdd8183611851565b81010312610695575138610ef2565b503d610fd3565b88513d8d823e3d90fd5b611008913390612f89565b3880610ed0565b90508a81813d8311611035575b6110268183611851565b81010312610695575138610ec9565b503d61101c565b8a513d8f823e3d90fd5b9093506060813d8211611077575b8161106160609383611851565b81010312611073578601519238610e9b565b8980fd5b3d9150611054565b87513d8c823e3d90fd5b634e487b7160e01b8e526011875260248efd5b634e487b7160e01b8f526011885260248ffd5b89516320db826760e01b81528690fd5b506000198701878111611089576110da6110df9189866129da565b612a00565b89806015541691161415610dc0565b634e487b7160e01b8d526032865260248dfd5b506000198b018b8111611089576110da61111c918d856129da565b89806014541691161415610da1565b634e487b7160e01b8b526032845260248bfd5b5050346101d657816003193601126101d6576020906016549051908152f35b5050346101d657816003193601126101d6576020906009549051908152f35b5050346101d657816003193601126101d6576020906106e061356c565b5050346101d657816003193601126101d6576020905160128152f35b90503461049e5761012036600319011261049e578035602435926001600160401b0393848111610441576111ec90369085016116f1565b9190946044359081116103e85761120690369086016116f1565b60843595909391926001600160a01b03919082881688036106955760c4359160ff8316809303610695578a9361123a612984565b6013541692833b15610a005760e48592838551968794859363d505accf60e01b855233908501523060248501528d604485015260a43560648501526084840152833560a48401526101043560c48401525af19081156109f757506112a8575b50506109d89560643594612a9d565b6112b1906117f2565b6103e8578638611299565b5050346101d657610a92816020936112d3366118c1565b93909260018060a01b038316808252600b8952828220336000528952600019836000205403611305575b50505061377c565b8152600b885220336000528652846000206113218482546126b7565b90558438806112fd565b5050346101d657816003193601126101d6576020906106e060095461134e612266565b90612233565b5050346101d65760203660031901126101d6576020906106e0611375611737565b6121f8565b8383346101d65761138a366118c1565b9084959295549560ff8760081c16159384809561148c575b8015611475575b1561141b5750839495966113cc94600160ff19831617895561140a575b506119e2565b6113d4575080f35b60207f7f26b83ff96e1f2b6a682f133852f6798a09c465da95921460cefb38474024989161ff001984541684555160018152a180f35b61ffff1916610101178755876113c6565b608490602087519162461bcd60e51b8352820152602e60248201527f496e697469616c697a61626c653a20636f6e747261637420697320616c72656160448201526d191e481a5b9a5d1a585b1a5e995960921b6064820152fd5b50303b1580156113a95750600160ff8916146113a9565b50600160ff8916106113a2565b5050346101d657816003193601126101d65760145490516001600160a01b039091168152602090f35b5050346101d657816003193601126101d65760125490516001600160a01b039091168152602090f35b5050346101d657806003193601126101d65760209061151561150b611737565b60243590336138bb565b5160018152f35b8284346109f457806003193601126109f457508051600091600754611540816117b8565b80845290600190818116908115610b55575060011461156a575050610aea82610af4940383611851565b600760009081529450600080516020613b428339815191525b82861061159d5750505091810160200191610aea82610ad9565b80546020878701810191909152909501948101611583565b8383346101d657806003193601126101d6578235906115d2611721565b936115db612984565b6115ea6102ae601654856121c5565b9460018060a01b039182601054169060115490823b156104455790604488928388519586948593630441a3e760e41b85528401528c60248401525af180156116a25761166f575b50839495611660827f71ef96c43343734b1d843bb85d52ef329f5e9143e4d35827771e3b0dd90c5f8496612fca565b610cbb81838560135416612f89565b9461169b7f71ef96c43343734b1d843bb85d52ef329f5e9143e4d35827771e3b0dd90c5f8495966117f2565b9493611631565b84513d88823e3d90fd5b8383346101d6576116bc3661174d565b6116d0989198979297969396959495612984565b42116116e257506109d8979850612a9d565b51630407b05b60e31b81528990fd5b9181601f84011215610695578235916001600160401b038311610695576020808501948460051b01011161069557565b602435906001600160a01b038216820361069557565b600435906001600160a01b038216820361069557565b9060c060031983011261069557600435916001600160401b0391602435838111610695578261177e916004016116f1565b9390939260443591821161069557611798916004016116f1565b9091606435906084356001600160a01b0381168103610695579060a43590565b90600182811c921680156117e8575b60208310146117d257565b634e487b7160e01b600052602260045260246000fd5b91607f16916117c7565b6001600160401b03811161180557604052565b634e487b7160e01b600052604160045260246000fd5b604081019081106001600160401b0382111761180557604052565b60c081019081106001600160401b0382111761180557604052565b90601f801991011681019081106001600160401b0382111761180557604052565b60005b8381106118855750506000910152565b8181015183820152602001611875565b604091602082526118b58151809281602086015260208686019101611872565b601f01601f1916010190565b6060906003190112610695576001600160a01b0390600435828116810361069557916024359081168103610695579060443590565b6040600319820112610695576004356001600160a01b038116810361069557916024356001600160401b039283821161069557806023830112156106955781600401359384116106955760248483010111610695576024019190565b51906001600160a01b038216820361069557565b6001600160401b03811161180557601f01601f191660200190565b602081830312610695578051906001600160401b038211610695570181601f820112156106955780516119b381611966565b926119c16040519485611851565b81845260208284010111610695576119df9160208085019101611872565b90565b6001600160a01b0390811690811561218d57806bffffffffffffffffffffffff60a01b933385600e541617600e5516936040948551631526fe2760e01b8152826004820152608081602481855afa90811561203957908491600091612152575b501690865192630dfe168160e01b8452602084600481865afa9384156121475760009461210b575b50875163d21220a760e01b815295602087600481875afa968715612100576000976120bb575b509160209160049389600f541617600f5581896010541617601055601155885192838092630a08790360e01b82525afa90811561203957908493929160009161207a575b5083168660125416176012558560135416176013551691828460145416176014551690818360155416176015558351906306fdde0360e01b92838352600083600481855afa9283156120105760009361205f575b508551938452600084600481845afa93841561201057600094612044575b50611bbb6034875180957108cc2e4dad2dcce4098a040a8ded6cadc40560731b6020830152611b7f815180926020603286019101611872565b810196602d60f81b97886032820152611ba2825180936020603385019101611872565b01602960f81b6033820152036014810186520184611851565b8551916000836004816395d89b4160e01b948582525afa9283156120395760009361201b575b50600090600488518094819382525afa9081156120105791602591611c5993600091611fef575b508751958692633326281d60e11b6020850152611c2f815180926020602488019101611872565b8301906024820152611c4a8251809360208785019101611872565b01036005810185520183611851565b835191611c658361181b565b60018352603160f81b602084015260ff60005460081c1615611f975781516001600160401b03811161180557611c9c6007546117b8565b601f8111611f2a575b50806020601f8211600114611eb757600091611eac575b508160011b916000199060031b1c1916176007555b8051906001600160401b038211611805578190611cef6008546117b8565b601f8111611e3c575b50602090601f8311600114611db657600092611dab575b50508160011b916000199060031b1c1916176008555b60208151910120906020815191012081600455806005554660025583519060208201927f8b73c3c69bb8fe3d512ecc4cf759cc79239f7b179b0ffacaa9a75d522b39400f9586855283015260608201524660808201523060a082015260a08152611d8e81611836565b51902060015530906003541617600355600655611da961275f565b565b015190503880611d0f565b600860009081527ff3f7a9fe364faab93b216da50a3214154f22a0a2b415b23a84c8169e8b636ee39350601f198516905b818110611e245750908460019594939210611e0b575b505050811b01600855611d25565b015160001960f88460031b161c19169055388080611dfd565b92936020600181928786015181550195019301611de7565b90915060086000527ff3f7a9fe364faab93b216da50a3214154f22a0a2b415b23a84c8169e8b636ee3601f840160051c81019160208510611ea2575b90601f859493920160051c01905b818110611e935750611cf8565b60008155849350600101611e86565b9091508190611e78565b905083015138611cbc565b91506007600052600080516020613b428339815191526000925b601f1983168410611f12576001935082601f19811610611ef9575b5050811b01600755611cd1565b85015160001960f88460031b161c191690553880611eec565b85810151825560209384019360019092019101611ed1565b6007600052601f820160051c600080516020613b42833981519152019060208310611f81575b601f0160051c600080516020613b4283398151915201905b818110611f755750611ca5565b60008155600101611f68565b600080516020613b428339815191529150611f50565b845162461bcd60e51b815260206004820152602b60248201527f496e697469616c697a61626c653a20636f6e7472616374206973206e6f74206960448201526a6e697469616c697a696e6760a81b6064820152608490fd5b61200a913d8091833e6120028183611851565b810190611981565b38611c08565b86513d6000823e3d90fd5b61203290600092943d8091833e6120028183611851565b9290611be1565b87513d6000823e3d90fd5b61205891943d8091833e6120028183611851565b9238611b46565b61207391933d8091833e6120028183611851565b9138611b28565b919293506020823d6020116120b3575b8161209760209383611851565b810103126109f4575090836120ad819493611952565b90611ad4565b3d915061208a565b90966020823d6020116120f8575b816120d660209383611851565b810103126109f45750916020916120ee600494611952565b9791935091611a90565b3d91506120c9565b89513d6000823e3d90fd5b90936020823d60201161213f575b8161212660209383611851565b810103126109f4575061213890611952565b9238611a6a565b3d9150612119565b88513d6000823e3d90fd5b91506080823d8211612185575b8161216c60809383611851565b810103126109f4575061217f8491611952565b38611a42565b3d915061215f565b50505050565b906001600160801b03918281029281840414901517156121af57565b634e487b7160e01b600052601160045260246000fd5b818102929181159184041417156121af57565b81156121e2570490565b634e487b7160e01b600052601260045260246000fd5b600954801561222c576119df9160018060a01b0316600052600a602052612227604060002054601654906121c5565b6121d8565b5050600090565b919082018092116121af57565b6001600160a01b0381166000908152600a60205260409020546119df9161134e906123d1565b600e54604080516353fc52f160e11b81529092916001600160a01b039160209182908290600490829087165afa9081156123c65760009161238a575b50601054601154865163065509bb60e21b81526004810191909152306024820152939291908290859085168180604481015b03915afa9384156120105760009461235b575b508190602487518095819363ce96cb7760e01b8352306004840152165afa9485156123515750600094612322575b5050916119df9192612233565b81813d831161234a575b6123368183611851565b81010312610d07575192506119df38612315565b503d61232c565b513d6000823e3d90fd5b90938282813d8311612383575b6123728183611851565b810103126109f457505192816122e7565b503d612368565b908282813d83116123bf575b6123a08183611851565b810103126109f45750906123b76122d49392611952565b9091926122a2565b503d612396565b85513d6000823e3d90fd5b600e54604080516353fc52f160e11b808252909391926020926001600160a01b039260049284169085888581855afa9788156120395760009861267f575b50849060175492876009549283612527575b5050505061244661244b9161245e9394169384600052600a88528860002054906121c5565b6126e0565b82600052601886528660002054906126c4565b90600082126124e6579161248c602492869594600052601986526001600160801b03886000205491046126b7565b86516303d1689d60e11b8152918201529586928391165afa91821561235157506000916124ba575b50905090565b82813d83116124df575b6124ce8183611851565b810103126109f457505180386124b4565b503d6124c4565b606483868089519262461bcd60e51b845283015260248201527f53616665436173743a2076616c7565206d75737420626520706f7369746976656044820152fd5b9091929350868a518094819382525afa9081156121475760009161264a575b50601054601154895163065509bb60e21b815287810191825230602083015291899183918a16908290819060400103915afa908115612100579188918893600091612615575b506024908b51948593849263ef8b30f760e01b84528b840152165afa90811561214757908692916000916125e1575b50916125d761245e9461134e6124469461222761244b97612193565b9350918738612421565b9192508782813d831161260e575b6125f98183611851565b810103126109f45750518591906125d76125bb565b503d6125ef565b838194929395503d8311612643575b61262e8183611851565b810103126109f457505186918891602461258c565b503d612624565b908782813d8311612678575b6126608183611851565b810103126109f4575061267290611952565b38612546565b503d612656565b90978682813d83116126b0575b6126968183611851565b810103126109f457506126a98591611952565b979061240f565b503d61268c565b919082039182116121af57565b919091600083820193841291129080158216911516176121af57565b6001600160ff1b0381116126f15790565b60405162461bcd60e51b815260206004820152602860248201527f53616665436173743a2076616c756520646f65736e27742066697420696e2061604482015267371034b73a191a9b60c11b6064820152608490fd5b90816020910312610695575180151581036106955790565b60018060a01b0380601354169080601054169160409081519363095ea7b360e01b80865260049182870152600019948560248801526020968781604481600080995af180156128de57612967575b508060125416838883600e54168851928380926353fc52f160e11b82525afa90811561295d57899184918891612922575b50604490888a5195869485938a8552168a8401528c60248401525af180156128de57612905575b5083878260125416604484600f5416895194859384928984528a8401528c60248401525af180156128de576128e8575b5083878260145416604484600f5416895194859384928984528a8401528c60248401525af180156128de576044928995949287926128c1575b50806015541690600f5416988851998a968795865285015260248401525af19182156128b757505061289e575050565b816128b492903d1061041c5761040d8183611851565b50565b51903d90823e3d90fd5b6128d790873d891161041c5761040d8183611851565b503861286e565b86513d87823e3d90fd5b6128fe90883d8a1161041c5761040d8183611851565b5038612835565b61291b90883d8a1161041c5761040d8183611851565b5038612805565b928092508391503d8311612956575b61293b8183611851565b81010312610441578260446129508b93611952565b906127de565b503d612931565b87513d88823e3d90fd5b61297d90883d8a1161041c5761040d8183611851565b50386127ad565b6002600d5414612995576002600d55565b60405162461bcd60e51b815260206004820152601f60248201527f5265656e7472616e637947756172643a207265656e7472616e742063616c6c006044820152606490fd5b91908110156129ea5760051b0190565b634e487b7160e01b600052603260045260246000fd5b356001600160a01b03811681036106955790565b51906001600160701b038216820361069557565b6001600160401b0381116118055760051b60200190565b9291612a4a82612a28565b91612a586040519384611851565b829481845260208094019160051b810192831161069557905b828210612a7e5750505050565b81356001600160a01b0381168103610695578152908301908301612a71565b9095919293949583156129ea57612ab381612a00565b6014546001600160a01b039591861690861614801590612d79575b612d3d5786156129ea57612ae186612a00565b858060155416911614801590612d4f575b612d3d57612b0883866013541630903390612da3565b84601354169660409687516318160ddd60e01b81526020998a82600481845afa918215612d0257600092612d0d575b5060606004918b5192838092630240bc6b60e21b82525afa948515612d02579087918a6000928398612c9b575b5093612227612bb594612bbb9a9794612bae612b9f95612ba761134e9c9a600f54169b612b9f88612227886001600160701b038099166121c5565b923691612a3f565b908b613a0a565b9a166121c5565b91613a0a565b958610612c8a57826010541694601154863b1561069557600096604488928851998a938492631c57762b60e31b845260048401528760248401525af180156123c657612c53575b7fd68606c673aecac7ce24ec44fd7d77b401356dfd76fe9b36cb58e579c4220aed9550612c2d613250565b612c3787846133e8565b612c4382601654612233565b60165584519687528601521692a2565b6001600160401b038611611805577fd68606c673aecac7ce24ec44fd7d77b401356dfd76fe9b36cb58e579c4220aed958552612c02565b8351632ca2f52b60e11b8152600490fd5b94959697505091506060833d8211612cfa575b81612cbb60609383611851565b810103126109f4578b908b612cda612cd286612a14565b938601612a14565b94015163ffffffff8116036109f45750919493929187918a612227612b64565b3d9150612cae565b8a513d6000823e3d90fd5b90918b82813d8311612d36575b612d248183611851565b810103126109f4575051906060612b37565b503d612d1a565b6040516320db826760e01b8152600490fd5b5060001987018781116121af576110da612d6a9189896129da565b85806012541691161415612af2565b5060001981018181116121af576110da612d949183856129da565b85806012541691161415612ace565b6040516323b872dd60e01b60208201526001600160a01b03928316602482015292909116604483015260648083019390935291815260a08101918183106001600160401b0384111761180557611da9926040525b604051612e74916001600160a01b0316612e108261181b565b6000806020958685527f5361666545524332303a206c6f772d6c6576656c2063616c6c206661696c656487860152868151910182855af13d15612ef0573d91612e5883611966565b92612e666040519485611851565b83523d60008785013e612ef4565b80519081612e8157505050565b8280612e91938301019101612747565b15612e995750565b6084906040519062461bcd60e51b82526004820152602a60248201527f5361666545524332303a204552433230206f7065726174696f6e20646964206e6044820152691bdd081cdd58d8d9595960b21b6064820152fd5b6060915b91929015612f565750815115612f08575090565b3b15612f115790565b60405162461bcd60e51b815260206004820152601d60248201527f416464726573733a2063616c6c20746f206e6f6e2d636f6e74726163740000006044820152606490fd5b825190915015612f695750805190602001fd5b60405162461bcd60e51b8152908190612f859060048301611895565b0390fd5b60405163a9059cbb60e01b60208201526001600160a01b03929092166024830152604480830193909352918152611da991612fc5606483611851565b612df7565b9091612fd4613250565b600091338352602090600a82526040918285205490818311612c8a57600494959660018060a01b03928284600e54168751988980926353fc52f160e11b82525afa9687156104945789976131bf575b50613052613041612446601754338d52600a8752898d2054906121c5565b338b5260188552878b2054906126c4565b89811261317d5761307790338b52601985526001600160801b03888c205491046126b7565b801561316c5761308f849392612227886064946121c5565b338b5260198452878b206130a4828254612233565b90558a8689519788958694635d043b2960e11b86526004860152169a8b6024850152306044850152165af191821561316257879261310e575b507f7b26d81a61fbcbc91af30dd54601b7dd4162f37cf86721756befc4548a096cb9949596508351928352820152a2565b9080925081813d831161315b575b6131268183611851565b810103126103e857519495508594907f7b26d81a61fbcbc91af30dd54601b7dd4162f37cf86721756befc4548a096cb96130dd565b503d61311c565b84513d89823e3d90fd5b865163fa3505cf60e01b8152600490fd5b60648488519062461bcd60e51b825280600483015260248201527f53616665436173743a2076616c7565206d75737420626520706f7369746976656044820152fd5b9096508281813d83116131ef575b6131d78183611851565b81010312610489576131e890611952565b9538613023565b503d6131cd565b9697959391949260018060a01b03958680931689526020890152166040870152606086015260808501521660a083015260e060c08301528060e08301528061010093848401376000828201840152601f01601f1916010190565b601254604080516370a0823160e01b81523060048201526001600160a01b03926020919082908290602490829088165afa9081156133dd576000916133b0575b508061329c5750505050565b60048285600e54168551928380926353fc52f160e11b82525afa9081156133a55790839160009161336a575b508451636e553f6560e01b81526004810193909352306024840152919490918591829060009082604481015b0393165af1918215612351575060009161333e575b5060095491508161331c575b808061218d565b6133349161222761332c92612193565b601754612233565b6017553880613315565b82813d8311613363575b6133528183611851565b810103126109f45750518038613309565b503d613348565b9182813d831161339e575b61337f8183611851565b810103126109f4575082916133966132f492611952565b9092916132c8565b503d613375565b84513d6000823e3d90fd5b908282813d83116133d6575b6133c68183611851565b810103126109f457505138613290565b503d6133bc565b83513d6000823e3d90fd5b6001600160a01b038116929183156134745761340681600954612233565b600955600093808552600a60205260408520828154019055847fddf252ad1be2c89b69c2b068fc378daa952ba7f163c4a11628f55a4df523b3ef6020604051858152a3600160ff1b811461346057611da99293039061350d565b634e487b7160e01b84526011600452602484fd5b604051630da30f6560e31b8152600490fd5b6001600160a01b038116919082156134745782600052600a6020526040600020548281106134fb578383600092611da9968452600a60205203604083205583600954036009557fddf252ad1be2c89b69c2b068fc378daa952ba7f163c4a11628f55a4df523b3ef6020604051868152a361350d565b60405163569d45cf60e11b8152600490fd5b6017548281029260009291838212600160ff1b821416613460578185051490151715613558576001600160a01b0316815260186020526040902080549091613554916126c4565b9055565b634e487b7160e01b82526011600452602482fd5b6003546001600160a01b03163014806135c8575b1561358b5760015490565b6006546004546005546040519160208301938452604083015260608201524660808201523060a082015260a081526135c281611836565b51902090565b506002544614613580565b60058110156136d757806135e45750565b600181036136315760405162461bcd60e51b815260206004820152601860248201527f45434453413a20696e76616c6964207369676e617475726500000000000000006044820152606490fd5b6002810361367e5760405162461bcd60e51b815260206004820152601f60248201527f45434453413a20696e76616c6964207369676e6174757265206c656e677468006044820152606490fd5b60031461368757565b60405162461bcd60e51b815260206004820152602260248201527f45434453413a20696e76616c6964207369676e6174757265202773272076616c604482015261756560f01b6064820152608490fd5b634e487b7160e01b600052602160045260246000fd5b9291907f7fffffffffffffffffffffffffffffff5d576e7357a4501ddfe92f46681b20a083116137705791608094939160ff602094604051948552168484015260408301526060820152600093849182805260015afa156137635781516001600160a01b0381161561375d579190565b50600190565b50604051903d90823e3d90fd5b50505050600090600390565b92909161378884612240565b600081613891575050506000925b6001600160a01b0390811692831561387f571691821561386d5780600052600a6020526040806000205485811061385c57908561355492039480600052600a60205261382f61244688846000205401866000528885600020558360005280856000205583877fddf252ad1be2c89b69c2b068fc378daa952ba7f163c4a11628f55a4df523b3ef60208d8951908152a397986017546121c5565b936000526018602052816000206138478582546126c4565b905560005260186020526000209182546126c4565b815163569d45cf60e11b8152600490fd5b604051631e4ec46b60e01b8152600490fd5b604051636edaef2f60e11b8152600490fd5b6001600160a01b0386168152600a60205260409020546138b59261222791906121c5565b92613796565b6001600160a01b0390811691821561392e571691821561391c5760207f8c5be1e5ebec7d5bd14f71427d1e84f3dd0314c0f7b2291e5b200ac8c7c3b9259183600052600b8252604060002085600052825280604060002055604051908152a3565b604051635461585f60e01b8152600490fd5b6040516349e27cff60e01b8152600490fd5b6020908181840312610695578051906001600160401b03821161069557019180601f8401121561069557825161397581612a28565b936139836040519586611851565b818552838086019260051b820101928311610695578301905b8282106139aa575050505090565b8151815290830190830161399c565b90815180825260208080930193019160005b8281106139d9575050505090565b83516001600160a01b0316855293810193928101926001016139cb565b80518210156129ea5760209160051b010190565b9092916002815110613aae57613a479360405192839163d06ca61f60e01b83526004830152604060248301528180600097889560448301906139b9565b03916001600160a01b03165afa908115613aa3578391613a81575b50805160001981019190821161346057613a7d9293506139f6565b5190565b613a9d91503d8085833e613a958183611851565b810190613940565b38613a62565b6040513d85823e3d90fd5b5050565b9392936002835110613b3b5790613af891604051809481936338ed173960e01b83526004830152816000988996879384602485015260a0604485015260a48401906139b9565b306064840152608483019190915203926001600160a01b03165af1908115613aa3578391613a815750805160001981019190821161346057613a7d9293506139f6565b5092505056fea66cc928b5edb82af9bd49922954155ab7b0942694bea4ce44661d9a8736c688a2646970667358221220dfb08d799dd886f496f1c22e07909cd7b38b535b2ccf5df59d9e3a5a8305675d64736f6c63430008110033",
  "devdoc": {
    "kind": "dev",
    "methods": {
      "allowance(address,address)": {
        "details": "Returns the remaining number of tokens that `spender` will be allowed to spend on behalf of `owner` through {transferFrom}. This is zero by default. This value changes when {approve} or {transferFrom} are called."
      },
      "approve(address,uint256)": {
        "details": "Sets `amount` as the allowance of `spender` over the caller's tokens. Returns a boolean value indicating whether the operation succeeded. IMPORTANT: Beware that changing an allowance with this method brings the risk that someone may use both the old and the new allowance by unfortunate transaction ordering. One possible solution to mitigate this race condition is to first reduce the spender's allowance to 0 and set the desired value afterwards: https://github.com/ethereum/EIPs/issues/20#issuecomment-263524729 Emits an {Approval} event."
      },
      "balanceOf(address)": {
        "returns": {
          "_0": "Sum of (shares in SUSHI by depositd account) + (SUSHI withdrawable by account)"
        }
      },
      "checkpoint()": {
        "details": "withdraws pending SUSHI from MasterChef and add it to the balance"
      },
      "deposit(uint256,address[],address[],uint256,address,uint256)": {
        "details": "amount of sushi that LPs converted to is added to sharesOf(account) and aLP is minted"
      },
      "depositSigned(uint256,address[],address[],uint256,address,uint256,uint8,bytes32,bytes32)": {
        "details": "amount of sushi that LPs converted to is added to sharesOf(account) and aLP is minted  user signature is needed for IUniswapV2Pair.permit()"
      },
      "depositWithSushi(uint256,address[],address[],uint256,address,uint256)": {
        "details": "amount is added to sharesOf(account) and same amount of aLP is minted  provided SUSHI is swapped then added as liquidity which results in LP tokens depositd"
      },
      "emergencyMigrate(address,bytes)": {
        "details": "migrate to a new version of fLP without caring about rewards. EMERGENCY ONLY"
      },
      "emergencyWithdraw(address)": {
        "details": "withdraw without caring about rewards. EMERGENCY ONLY"
      },
      "migrate(address,bytes)": {
        "details": "migrate to a new version of fLP"
      },
      "sharesOf(address)": {
        "returns": {
          "_0": "shares in SUSHI currently being depositd by account"
        }
      },
      "totalShares()": {
        "returns": {
          "_0": "total shares in SUSHI currently being depositd"
        }
      },
      "totalSupply()": {
        "returns": {
          "_0": "Sum of (shares in SUSHI) + (withdrawable total SUSHI)"
        }
      },
      "transfer(address,uint256)": {
        "details": "Moves `amount` tokens from the caller's account to `to`. Returns a boolean value indicating whether the operation succeeded. Emits a {Transfer} event."
      },
      "transferFrom(address,address,uint256)": {
        "details": "Moves `amount` tokens from `from` to `to` using the allowance mechanism. `amount` is then deducted from the caller's allowance. Returns a boolean value indicating whether the operation succeeded. Emits a {Transfer} event."
      },
      "withdraw(uint256,address)": {
        "details": "when unstaking, the user's share of LP tokens are returned and pro-rata SUSHI yield is return as well"
      },
      "withdrawableTotalYield()": {
        "details": "Returns the total amount of SUSHI if every holder wants to withdraw at once",
        "returns": {
          "_0": "A uint256 representing the total SUSHI"
        }
      },
      "withdrawableYieldOf(address)": {
        "details": "Returns the amount of SUSHI a given address is able to withdraw.",
        "params": {
          "account": "Address of a reward recipient"
        },
        "returns": {
          "_0": "A uint256 representing the SUSHI `account` can withdraw"
        }
      }
    },
    "version": 1
  },
  "userdoc": {
    "kind": "user",
    "methods": {},
    "version": 1
  },
  "storageLayout": {
    "storage": [
      {
        "astId": 367,
        "contract": "contracts/FarmingLPToken.sol:FarmingLPToken",
        "label": "_initialized",
        "offset": 0,
        "slot": "0",
        "type": "t_uint8"
      },
      {
        "astId": 370,
        "contract": "contracts/FarmingLPToken.sol:FarmingLPToken",
        "label": "_initializing",
        "offset": 1,
        "slot": "0",
        "type": "t_bool"
      },
      {
        "astId": 14709,
        "contract": "contracts/FarmingLPToken.sol:FarmingLPToken",
        "label": "_CACHED_DOMAIN_SEPARATOR",
        "offset": 0,
        "slot": "1",
        "type": "t_bytes32"
      },
      {
        "astId": 14711,
        "contract": "contracts/FarmingLPToken.sol:FarmingLPToken",
        "label": "_CACHED_CHAIN_ID",
        "offset": 0,
        "slot": "2",
        "type": "t_uint256"
      },
      {
        "astId": 14713,
        "contract": "contracts/FarmingLPToken.sol:FarmingLPToken",
        "label": "_CACHED_THIS",
        "offset": 0,
        "slot": "3",
        "type": "t_address"
      },
      {
        "astId": 14715,
        "contract": "contracts/FarmingLPToken.sol:FarmingLPToken",
        "label": "_HASHED_NAME",
        "offset": 0,
        "slot": "4",
        "type": "t_bytes32"
      },
      {
        "astId": 14717,
        "contract": "contracts/FarmingLPToken.sol:FarmingLPToken",
        "label": "_HASHED_VERSION",
        "offset": 0,
        "slot": "5",
        "type": "t_bytes32"
      },
      {
        "astId": 14719,
        "contract": "contracts/FarmingLPToken.sol:FarmingLPToken",
        "label": "_TYPE_HASH",
        "offset": 0,
        "slot": "6",
        "type": "t_bytes32"
      },
      {
        "astId": 14722,
        "contract": "contracts/FarmingLPToken.sol:FarmingLPToken",
        "label": "name",
        "offset": 0,
        "slot": "7",
        "type": "t_string_storage"
      },
      {
        "astId": 14725,
        "contract": "contracts/FarmingLPToken.sol:FarmingLPToken",
        "label": "symbol",
        "offset": 0,
        "slot": "8",
        "type": "t_string_storage"
      },
      {
        "astId": 14727,
        "contract": "contracts/FarmingLPToken.sol:FarmingLPToken",
        "label": "_totalSupply",
        "offset": 0,
        "slot": "9",
        "type": "t_uint256"
      },
      {
        "astId": 14731,
        "contract": "contracts/FarmingLPToken.sol:FarmingLPToken",
        "label": "_balanceOf",
        "offset": 0,
        "slot": "10",
        "type": "t_mapping(t_address,t_uint256)"
      },
      {
        "astId": 14737,
        "contract": "contracts/FarmingLPToken.sol:FarmingLPToken",
        "label": "_allowance",
        "offset": 0,
        "slot": "11",
        "type": "t_mapping(t_address,t_mapping(t_address,t_uint256))"
      },
      {
        "astId": 14741,
        "contract": "contracts/FarmingLPToken.sol:FarmingLPToken",
        "label": "nonces",
        "offset": 0,
        "slot": "12",
        "type": "t_mapping(t_address,t_uint256)"
      },
      {
        "astId": 540,
        "contract": "contracts/FarmingLPToken.sol:FarmingLPToken",
        "label": "_status",
        "offset": 0,
        "slot": "13",
        "type": "t_uint256"
      },
      {
        "astId": 11417,
        "contract": "contracts/FarmingLPToken.sol:FarmingLPToken",
        "label": "factory",
        "offset": 0,
        "slot": "14",
        "type": "t_address"
      },
      {
        "astId": 11420,
        "contract": "contracts/FarmingLPToken.sol:FarmingLPToken",
        "label": "router",
        "offset": 0,
        "slot": "15",
        "type": "t_address"
      },
      {
        "astId": 11423,
        "contract": "contracts/FarmingLPToken.sol:FarmingLPToken",
        "label": "masterChef",
        "offset": 0,
        "slot": "16",
        "type": "t_address"
      },
      {
        "astId": 11426,
        "contract": "contracts/FarmingLPToken.sol:FarmingLPToken",
        "label": "pid",
        "offset": 0,
        "slot": "17",
        "type": "t_uint256"
      },
      {
        "astId": 11429,
        "contract": "contracts/FarmingLPToken.sol:FarmingLPToken",
        "label": "sushi",
        "offset": 0,
        "slot": "18",
        "type": "t_address"
      },
      {
        "astId": 11432,
        "contract": "contracts/FarmingLPToken.sol:FarmingLPToken",
        "label": "lpToken",
        "offset": 0,
        "slot": "19",
        "type": "t_address"
      },
      {
        "astId": 11435,
        "contract": "contracts/FarmingLPToken.sol:FarmingLPToken",
        "label": "token0",
        "offset": 0,
        "slot": "20",
        "type": "t_address"
      },
      {
        "astId": 11438,
        "contract": "contracts/FarmingLPToken.sol:FarmingLPToken",
        "label": "token1",
        "offset": 0,
        "slot": "21",
        "type": "t_address"
      },
      {
        "astId": 11441,
        "contract": "contracts/FarmingLPToken.sol:FarmingLPToken",
        "label": "withdrawableTotalLPs",
        "offset": 0,
        "slot": "22",
        "type": "t_uint256"
      },
      {
        "astId": 11443,
        "contract": "contracts/FarmingLPToken.sol:FarmingLPToken",
        "label": "_pointsPerShare",
        "offset": 0,
        "slot": "23",
        "type": "t_uint256"
      },
      {
        "astId": 11447,
        "contract": "contracts/FarmingLPToken.sol:FarmingLPToken",
        "label": "_pointsCorrection",
        "offset": 0,
        "slot": "24",
        "type": "t_mapping(t_address,t_int256)"
      },
      {
        "astId": 11451,
        "contract": "contracts/FarmingLPToken.sol:FarmingLPToken",
        "label": "_withdrawnVaultBalanceOf",
        "offset": 0,
        "slot": "25",
        "type": "t_mapping(t_address,t_uint256)"
      }
    ],
    "types": {
      "t_address": {
        "encoding": "inplace",
        "label": "address",
        "numberOfBytes": "20"
      },
      "t_bool": {
        "encoding": "inplace",
        "label": "bool",
        "numberOfBytes": "1"
      },
      "t_bytes32": {
        "encoding": "inplace",
        "label": "bytes32",
        "numberOfBytes": "32"
      },
      "t_int256": {
        "encoding": "inplace",
        "label": "int256",
        "numberOfBytes": "32"
      },
      "t_mapping(t_address,t_int256)": {
        "encoding": "mapping",
        "key": "t_address",
        "label": "mapping(address => int256)",
        "numberOfBytes": "32",
        "value": "t_int256"
      },
      "t_mapping(t_address,t_mapping(t_address,t_uint256))": {
        "encoding": "mapping",
        "key": "t_address",
        "label": "mapping(address => mapping(address => uint256))",
        "numberOfBytes": "32",
        "value": "t_mapping(t_address,t_uint256)"
      },
      "t_mapping(t_address,t_uint256)": {
        "encoding": "mapping",
        "key": "t_address",
        "label": "mapping(address => uint256)",
        "numberOfBytes": "32",
        "value": "t_uint256"
      },
      "t_string_storage": {
        "encoding": "bytes",
        "label": "string",
        "numberOfBytes": "32"
      },
      "t_uint256": {
        "encoding": "inplace",
        "label": "uint256",
        "numberOfBytes": "32"
      },
      "t_uint8": {
        "encoding": "inplace",
        "label": "uint8",
        "numberOfBytes": "1"
      }
    }
  }
}