{
  "address": "0x77b8E6e577fd3e90553dbF205D3854a649414741",
  "abi": [
    {
      "inputs": [
        {
          "internalType": "address",
          "name": "_flashProtocol",
          "type": "address"
        },
        {
          "internalType": "address",
          "name": "_flpTokenFactory",
          "type": "address"
        },
        {
          "internalType": "address",
          "name": "_feeRecipient",
          "type": "address"
        }
      ],
      "stateMutability": "nonpayable",
      "type": "constructor"
    },
    {
      "inputs": [],
      "name": "FlashStrategySushiSwapCreated",
      "type": "error"
    },
    {
      "inputs": [],
      "name": "InvalidFee",
      "type": "error"
    },
    {
      "inputs": [],
      "name": "InvalidFeeRecipient",
      "type": "error"
    },
    {
      "anonymous": false,
      "inputs": [
        {
          "indexed": false,
          "internalType": "uint256",
          "name": "pid",
          "type": "uint256"
        },
        {
          "indexed": false,
          "internalType": "address",
          "name": "strategy",
          "type": "address"
        }
      ],
      "name": "CreateFlashStrategySushiSwap",
      "type": "event"
    },
    {
      "anonymous": false,
      "inputs": [
        {
          "indexed": true,
          "internalType": "address",
          "name": "previousOwner",
          "type": "address"
        },
        {
          "indexed": true,
          "internalType": "address",
          "name": "newOwner",
          "type": "address"
        }
      ],
      "name": "OwnershipTransferred",
      "type": "event"
    },
    {
      "anonymous": false,
      "inputs": [
        {
          "indexed": false,
          "internalType": "address",
          "name": "feeRecipient",
          "type": "address"
        }
      ],
      "name": "UpdateFeeRecipient",
      "type": "event"
    },
    {
      "anonymous": false,
      "inputs": [
        {
          "indexed": false,
          "internalType": "uint256",
          "name": "fee",
          "type": "uint256"
        }
      ],
      "name": "UpdateFlashStakeFeeBPS",
      "type": "event"
    },
    {
      "anonymous": false,
      "inputs": [
        {
          "indexed": false,
          "internalType": "uint256",
          "name": "fee",
          "type": "uint256"
        }
      ],
      "name": "UpdateStakeFeeBPS",
      "type": "event"
    },
    {
      "inputs": [
        {
          "internalType": "uint256",
          "name": "pid",
          "type": "uint256"
        }
      ],
      "name": "createFlashStrategySushiSwap",
      "outputs": [
        {
          "internalType": "address",
          "name": "strategy",
          "type": "address"
        }
      ],
      "stateMutability": "nonpayable",
      "type": "function"
    },
    {
      "inputs": [],
      "name": "feeRecipient",
      "outputs": [
        {
          "internalType": "address",
          "name": "",
          "type": "address"
        }
      ],
      "stateMutability": "view",
      "type": "function"
    },
    {
      "inputs": [],
      "name": "flashProtocol",
      "outputs": [
        {
          "internalType": "address",
          "name": "",
          "type": "address"
        }
      ],
      "stateMutability": "view",
      "type": "function"
    },
    {
      "inputs": [],
      "name": "flpTokenFactory",
      "outputs": [
        {
          "internalType": "address",
          "name": "",
          "type": "address"
        }
      ],
      "stateMutability": "view",
      "type": "function"
    },
    {
      "inputs": [
        {
          "internalType": "uint256",
          "name": "",
          "type": "uint256"
        }
      ],
      "name": "getFlashStrategySushiSwap",
      "outputs": [
        {
          "internalType": "address",
          "name": "",
          "type": "address"
        }
      ],
      "stateMutability": "view",
      "type": "function"
    },
    {
      "inputs": [],
      "name": "owner",
      "outputs": [
        {
          "internalType": "address",
          "name": "",
          "type": "address"
        }
      ],
      "stateMutability": "view",
      "type": "function"
    },
    {
      "inputs": [
        {
          "internalType": "uint256",
          "name": "pid",
          "type": "uint256"
        }
      ],
      "name": "predictFlashStrategySushiSwapAddress",
      "outputs": [
        {
          "internalType": "address",
          "name": "token",
          "type": "address"
        }
      ],
      "stateMutability": "view",
      "type": "function"
    },
    {
      "inputs": [],
      "name": "renounceOwnership",
      "outputs": [],
      "stateMutability": "nonpayable",
      "type": "function"
    },
    {
      "inputs": [
        {
          "internalType": "address",
          "name": "newOwner",
          "type": "address"
        }
      ],
      "name": "transferOwnership",
      "outputs": [],
      "stateMutability": "nonpayable",
      "type": "function"
    },
    {
      "inputs": [
        {
          "internalType": "address",
          "name": "_feeRecipient",
          "type": "address"
        }
      ],
      "name": "updateFeeRecipient",
      "outputs": [],
      "stateMutability": "nonpayable",
      "type": "function"
    }
  ],
  "transactionHash": "0x5a1d1800f4a2f646c9a7d5b37ae452935813307c703812ffe0708e0a57cf22c1",
  "args": [
    "0x78b2d65dd1d3d9Fb2972d7Ef467261Ca101EC2B9",
    "0xEE083E0F0f5dE2ff34662F1ef6f76d897d5047EF",
    "0x0903f8892c06A99bf1D68088fAB597a0762e0BC8"
  ],
  "numDeployments": 1,
  "solcInputHash": "8c17aa148ad85bf7109c5d60e7cb8c68",
  "bytecode": "0x60e0346101f557601f611ba238819003918201601f1916830192916001600160401b0391828511848610176101fa5781606092859260409788528339810103126101f55761004c82610210565b6100638461005c60208601610210565b9401610210565b600080546001600160a01b031980821633908117845592966001600160a01b039591948694909391929185167f8be0079c531659141344cd1fd0a4f28419497f9722a3daafe3b4186f6b6457e08a80a360805260a052169081156101e457817f6632de8ab33c46549f7bb29f647ea0d751157b25fe6a14b1bcc7527cdfbeb79c9260209260015416176001558651908152a18351610e6c80820190828210858311176101d057908291610d368339039084f080156101c6571691823b156101c35783519163485cc95560e01b8352816004840152816024840152818360448183885af180156101b957610194575b50505060c05251610b11908161022582396080518181816103e10152610842015260a05181818161030f0152610930015260c05181818161025e01526103660152f35b82116101a557508252388080610151565b634e487b7160e01b81526041600452602490fd5b85513d84823e3d90fd5b80fd5b84513d85823e3d90fd5b634e487b7160e01b86526041600452602486fd5b8551630ed1b8b360e31b8152600490fd5b600080fd5b634e487b7160e01b600052604160045260246000fd5b51906001600160a01b03821682036101f55756fe608060408181526004908136101561001657600080fd5b600092833560e01c9081633e1875ed1461091c5750806346904840146108f3578063715018a6146108995780638da5cb5b1461087157806395da4c311461082d578063a9a00b8b146102bf578063c89716c514610222578063dd436ca4146101ef578063f160d369146101685763f2fde38b1461009257600080fd5b34610164576020366003190112610164576001600160a01b03823581811693919290849003610160576100c361095f565b831561010e575050600054826bffffffffffffffffffffffff60a01b821617600055167f8be0079c531659141344cd1fd0a4f28419497f9722a3daafe3b4186f6b6457e0600080a380f35b906020608492519162461bcd60e51b8352820152602660248201527f4f776e61626c653a206e6577206f776e657220697320746865207a65726f206160448201526564647265737360d01b6064820152fd5b8480fd5b8280fd5b50346101645760203660031901126101645781356001600160a01b03811692908390036101eb5761019761095f565b82156101dd5750600180546001600160a01b03191683179055519081527f6632de8ab33c46549f7bb29f647ea0d751157b25fe6a14b1bcc7527cdfbeb79c90602090a180f35b9051630ed1b8b360e31b8152fd5b8380fd5b5090346101645760203660031901126101645735825260026020908152918190205490516001600160a01b039091168152f35b5082346102bc5760203660031901126102bc5750605560436020938351903060388301526f5af43d82803e903d91602b57fd5bf3ff60248301527f00000000000000000000000000000000000000000000000000000000000000006014830152733d602d80600a3d3981f3363d3d373d3d3d363d7382523560588201526037600c8201206078820152012090519060018060a01b03168152f35b80fd5b50829034610829576020926003199284843601126102bc57813580825260028652838220549092906001600160a01b0390811661081a578451632ddefbf960e01b815280830185905295602492907f0000000000000000000000000000000000000000000000000000000000000000831689898681845afa98891561081057908a91879a6107f1575b50848a1615610787575b50506e5af43d82803e903d91602b57fd5bf37f0000000000000000000000000000000000000000000000000000000000000000763d602d80600a3d3981f3363d3d373d3d3d363d7300000062ffffff8260881c1617875260781b17895282866037600988f51697881561074557883b1561074157908894939291885163485cc95560e01b8152878160448183897f000000000000000000000000000000000000000000000000000000000000000016998a8a84015287169b8c8c8401525af180156107245761072e575b5087875260028b5288872080546001600160a01b0319168b17905588516306fdde0360e01b8152878185818a5afa90811561072457602b8d61048c949361049c938c9161070a575b508d5195826a0332a37b5b2b7103337b9160ad1b889485015282519283918686019101610a27565b810103600b8101855201836109e1565b89516395d89b4160e01b815290888286818b5afa9182156107005789926106d8575b508a51919060901c61ffff16828c0167ffffffffffffffff8111848210176106c457918e9391928d528682528c84830193853686378c905b8982106106135750509260229261054661052d97969361055596519885603360f91b8b978801528251928391602189019101610a27565b840191602d60f81b602184015251809386840190610a27565b010360028101855201836109e1565b843b1561060f57926105a58b93899796959361059689958e519b8c9a8b998a986302f6c03560e21b8a52890152870152608060448701526084860190610ab6565b91848303016064850152610ab6565b03925af1801561060557908492916105ed575b50507fbbaeda734d9e02dda6d2007acfa034cfa250c34eef228443e95cae0d209082e99181519081528486820152a151908152f35b8192506105f9906109b7565b6102bc578083916105b8565b84513d84823e3d90fd5b8780fd5b600f9193949596508092501660108110156106b2578289039089821161069e57600019820182811161068c578651111561067a57600192916f181899199a1a9b1b9c1cb0b131b232b360811b90911a908601601f0153881c9101908f949392918e916104f6565b634e487b7160e01b8e5260328a528b8efd5b634e487b7160e01b8f5260118b528c8ffd5b8b60118b634e487b7160e01b600052526000fd5b634e487b7160e01b8d52603289528a8dfd5b88604188634e487b7160e01b600052526000fd5b61ffff9192506106f9903d808c833e6106f181836109e1565b810190610a4a565b91906104be565b8b513d8b823e3d90fd5b61071e91503d808e833e6106f181836109e1565b38610464565b8a513d8a823e3d90fd5b61073a909791976109b7565b958b61041c565b8580fd5b875162461bcd60e51b81528084018b90526017818701527f455243313136373a2063726561746532206661696c65640000000000000000006044820152606490fd5b869299508589518094819363586cbaa160e01b83528b888401525af19081156107e75785916107ba575b5096888a610352565b6107da9150893d8b116107e0575b6107d281836109e1565b810190610a03565b896107b1565b503d6107c8565b87513d87823e3d90fd5b610809919a50823d84116107e0576107d281836109e1565b988b610348565b88513d88823e3d90fd5b50835163dbf2711960e01b8152fd5b5080fd5b838234610829578160031936011261082957517f00000000000000000000000000000000000000000000000000000000000000006001600160a01b03168152602090f35b838234610829578160031936011261082957905490516001600160a01b039091168152602090f35b83346102bc57806003193601126102bc576108b261095f565b80546001600160a01b03198116825581906001600160a01b03167f8be0079c531659141344cd1fd0a4f28419497f9722a3daafe3b4186f6b6457e08280a380f35b83823461082957816003193601126108295760015490516001600160a01b039091168152602090f35b8490346108295781600319360112610829577f00000000000000000000000000000000000000000000000000000000000000006001600160a01b03168152602090f35b6000546001600160a01b0316330361097357565b606460405162461bcd60e51b815260206004820152602060248201527f4f776e61626c653a2063616c6c6572206973206e6f7420746865206f776e65726044820152fd5b67ffffffffffffffff81116109cb57604052565b634e487b7160e01b600052604160045260246000fd5b90601f8019910116810190811067ffffffffffffffff8211176109cb57604052565b90816020910312610a2257516001600160a01b0381168103610a225790565b600080fd5b60005b838110610a3a5750506000910152565b8181015183820152602001610a2a565b602081830312610a2257805167ffffffffffffffff91828211610a2257019082601f83011215610a225781519081116109cb5760405192610a95601f8301601f1916602001856109e1565b81845260208284010111610a2257610ab39160208085019101610a27565b90565b90602091610acf81518092818552858086019101610a27565b601f01601f191601019056fea264697066735822122086d20029614fa9e8050ee4f7eb197d10b6ce6438456f0ff6f003055906ca672164736f6c634300081100336080806040523461001a5760018055610e4c90816100208239f35b600080fdfe60806040908082526004918236101561001757600080fd5b600091823560e01c9081623acb7114610857575080630a0879031461082f578063202f2a271461081157806345ed7f33146107e9578063485cc955146106b2578063489cc20c14610696578063594cc6861461038d578063658e28a4146102d657806376972999146102b85780637b027af01461027257806395da4c311461024a578063a8694e5714610222578063c45a0155146101fa578063cec833a9146101d0578063e68c84cb1461016e5763ef8d4964146100d457600080fd5b3461016a57602036600319011261016a576003546001600160a01b0390843590821633141580610160575b61015057908161011b6101906101209404809360055416610d40565b610adc565b916006549083820180921161013d57506020935060065551908152f35b634e487b7160e01b815260118552602490fd5b8251631dd2188d60e31b81528590fd5b50303314156100ff565b5080fd5b5082346101cc5760203660031901126101cc5761018961087c565b6003546001600160a01b039391929190841633036101bf575050166bffffffffffffffffffffffff60a01b600754161760075580f35b51631dd2188d60e31b8152fd5b8280fd5b5090346101f75760203660031901126101f757506101f060209235610a36565b9051908152f35b80fd5b503461016a578160031936011261016a5760025490516001600160a01b039091168152602090f35b503461016a578160031936011261016a5760075490516001600160a01b039091168152602090f35b503461016a578160031936011261016a5760035490516001600160a01b039091168152602090f35b5090346101f757816003193601126101f757506301e133806102976024358435610a0d565b049081156102a9576020925051908152f35b51631fbaba3560e01b81529050fd5b503461016a578160031936011261016a57602090516303bfc4008152f35b5082346101cc5760203660031901126101cc57600354813591906001600160a01b0390811633141580610383575b610374579084916005541693843b156101cc57828151809363c2c4c5c160e01b82528183895af190811561036b5750610357575b505061034981610351933390610ae9565b600654610adc565b60065580f35b61036090610892565b6101cc578284610338565b513d84823e3d90fd5b508251631dd2188d60e31b8152fd5b5030331415610304565b503461016a57606036600319011261016a576001600160a01b03928035906044359085821682036106925760026001541461064f5760026001556103d083610a36565b9485158015610644575b610635578660075416803b1561016a57855163079cc67960e41b815233848201908152602081018790529091839183919082908490829060400103925af1801561062b5761061c575b50908660055416803b156101cc578551627b8a6760e11b8152828101889052306024820152838160448183865af180156105fe57908491610608575b50508551978891635fcbd28560e01b8352828460209b8c935afa9182156105fe5784926105cf575b5080821687516370a0823160e01b9384825230868301528b82602481865afa9182156105c5578792610592575b506104d16104d693896104cb606486048096610adc565b91610ae9565b610d40565b82541691865191825230908201528781602481855afa928315610587579261054f575b506104d16105169361050f606485048095610adc565b9083610ae9565b815190815282848201527f931033e43a2977753dbe3de2347d53265c3a695c82b3fa009dd57e06d6a20503823392a26001805551908152f35b9291508683813d8311610580575b61056781836108bc565b8101031261057b57915190916104d16104f9565b600080fd5b503d61055d565b8651903d90823e3d90fd5b9291508b83813d83116105be575b6105aa81836108bc565b8101031261057b57915190916104d16104b4565b503d6105a0565b8a513d89823e3d90fd5b6105f0919250893d8b116105f7575b6105e881836108bc565b8101906108de565b9038610487565b503d6105de565b87513d86823e3d90fd5b61061190610892565b6101cc57823861045f565b61062590610892565b38610423565b86513d84823e3d90fd5b50835163fa3505cf60e01b8152fd5b5060243586106103da565b606490602085519162461bcd60e51b8352820152601f60248201527f5265656e7472616e637947756172643a207265656e7472616e742063616c6c006044820152fd5b8480fd5b503461016a578160031936011261016a576020906101f06109a1565b5082346101cc57816003193601126101cc576106cc61087c565b602435906001600160a01b038216820361069257845460ff8160081c1615938480956107dc575b80156107c5575b1561076b575060ff198116600117865561071c9291908461075a575b506108fd565b610724575080f35b60207f7f26b83ff96e1f2b6a682f133852f6798a09c465da95921460cefb38474024989161ff001984541684555160018152a180f35b61ffff191661010117865586610716565b608490602087519162461bcd60e51b8352820152602e60248201527f496e697469616c697a61626c653a20636f6e747261637420697320616c72656160448201526d191e481a5b9a5d1a585b1a5e995960921b6064820152fd5b50303b1580156106fa5750600160ff8316146106fa565b50600160ff8316106106f3565b503461016a578160031936011261016a5760055490516001600160a01b039091168152602090f35b503461016a578160031936011261016a576020906006549051908152f35b5082346101cc57826003193601126101cc575490516001600160a01b03909116815260209150f35b83903461016a578160031936011261016a576005546001600160a01b03168152602090f35b600435906001600160a01b038216820361057b57565b67ffffffffffffffff81116108a657604052565b634e487b7160e01b600052604160045260246000fd5b90601f8019910116810190811067ffffffffffffffff8211176108a657604052565b9081602091031261057b57516001600160a01b038116810361057b5790565b6001600160a01b039190821690811561099c5782906bffffffffffffffffffffffff60a01b92338460025416176002558360035416176003551691604051630a08790360e01b8152602081600481875afa90811561099057600091610972575b50168160045416176004556005541617600555565b61098a915060203d81116105f7576105e881836108bc565b3861095d565b6040513d6000823e3d90fd5b505050565b600554604051634321a20d60e11b815230600482015290602090829060249082906001600160a01b03165afa908115610990576000916109df575090565b906020823d8211610a05575b816109f8602093836108bc565b810103126101f757505190565b3d91506109eb565b81810292918115918404141715610a2057565b634e487b7160e01b600052601160045260246000fd5b6007546040516318160ddd60e01b81529190602090839060049082906001600160a01b03165afa91821561099057600092610aa9575b508115610a9757818111610a90575b610a8c90610a876109a1565b610a0d565b0490565b5080610a7b565b6040516371f2aadd60e11b8152600490fd5b90916020823d8211610ad4575b81610ac3602093836108bc565b810103126101f75750519038610a6c565b3d9150610ab6565b91908203918211610a2057565b6040805163a9059cbb60e01b60208083019182526001600160a01b03959095166024830152604480830196909652948152929390929091601f1990610b2f6064846108bc565b84519267ffffffffffffffff916001600160a01b031690848701838111868210176108a65787528785527f5361666545524332303a206c6f772d6c6576656c2063616c6c206661696c656488860152600080968192519082855af1913d15610c60573d908111610c4c5790610bc194939291610bb489895195601f84011601856108bc565b83523d868985013e610c6c565b805180610bd0575b5050505050565b8185918101031261016a57830151908115918215036101f75750610bf657808080610bc9565b60849250519062461bcd60e51b82526004820152602a60248201527f5361666545524332303a204552433230206f7065726174696f6e20646964206e6044820152691bdd081cdd58d8d9595960b21b6064820152fd5b634e487b7160e01b86526041600452602486fd5b5090610bc19392506060915b91929015610cce5750815115610c80575090565b3b15610c895790565b60405162461bcd60e51b815260206004820152601d60248201527f416464726573733a2063616c6c20746f206e6f6e2d636f6e74726163740000006044820152606490fd5b825190915015610ce15750805190602001fd5b6040519062461bcd60e51b82528160208060048301528251908160248401526000935b828510610d27575050604492506000838284010152601f80199101168101030190fd5b8481018201518686016044015293810193859350610d04565b81610d49575050565b60025460405163011a412160e61b8152916001600160a01b03916020908490600490829086165afa92831561099057600093610df4575b50811691610d8f848285610ae9565b803b610d9c575b50505050565b1691823b1561057b57606460009283604051958694859363248ff46d60e01b8552600485015230602485015260448401525af1610ddc575b808080610d96565b67ffffffffffffffff81116108a65760405238610dd4565b82919350610e0f9060203d81116105f7576105e881836108bc565b9290610d8056fea2646970667358221220aa1e141754d7bf41ade3b2c0ee5f70d8d03812fe4cb64c5efad331e5081e98cc64736f6c63430008110033",
  "devdoc": {
    "kind": "dev",
    "methods": {
      "owner()": {
        "details": "Returns the address of the current owner."
      },
      "renounceOwnership()": {
        "details": "Leaves the contract without owner. It will not be possible to call `onlyOwner` functions anymore. Can only be called by the current owner. NOTE: Renouncing ownership will leave the contract without an owner, thereby removing any functionality that is only available to the owner."
      },
      "transferOwnership(address)": {
        "details": "Transfers ownership of the contract to a new account (`newOwner`). Can only be called by the current owner."
      }
    },
    "version": 1
  },
  "userdoc": {
    "kind": "user",
    "methods": {
      "feeRecipient()": {
        "notice": "fee recipient"
      },
      "flashProtocol()": {
        "notice": "address of FlashProtocol"
      },
      "flpTokenFactory()": {
        "notice": "address of FarmingLPTokenFactory"
      }
    },
    "version": 1
  },
  "storageLayout": {
    "storage": [
      {
        "astId": 7,
        "contract": "contracts/FlashStrategySushiSwapFactory.sol:FlashStrategySushiSwapFactory",
        "label": "_owner",
        "offset": 0,
        "slot": "0",
        "type": "t_address"
      },
      {
        "astId": 13381,
        "contract": "contracts/FlashStrategySushiSwapFactory.sol:FlashStrategySushiSwapFactory",
        "label": "feeRecipient",
        "offset": 0,
        "slot": "1",
        "type": "t_address"
      },
      {
        "astId": 13386,
        "contract": "contracts/FlashStrategySushiSwapFactory.sol:FlashStrategySushiSwapFactory",
        "label": "getFlashStrategySushiSwap",
        "offset": 0,
        "slot": "2",
        "type": "t_mapping(t_uint256,t_address)"
      }
    ],
    "types": {
      "t_address": {
        "encoding": "inplace",
        "label": "address",
        "numberOfBytes": "20"
      },
      "t_mapping(t_uint256,t_address)": {
        "encoding": "mapping",
        "key": "t_uint256",
        "label": "mapping(uint256 => address)",
        "numberOfBytes": "32",
        "value": "t_address"
      },
      "t_uint256": {
        "encoding": "inplace",
        "label": "uint256",
        "numberOfBytes": "32"
      }
    }
  }
}