{
  "address": "0xFb4d90b4d8380Ab27e7f25315B2fed267BcB892F",
  "abi": [
    {
      "inputs": [],
      "name": "AmountTooLow",
      "type": "error"
    },
    {
      "inputs": [],
      "name": "Forbidden",
      "type": "error"
    },
    {
      "inputs": [],
      "name": "InsufficientTotalSupply",
      "type": "error"
    },
    {
      "inputs": [],
      "name": "InsufficientYield",
      "type": "error"
    },
    {
      "inputs": [],
      "name": "InvalidVault",
      "type": "error"
    },
    {
      "anonymous": false,
      "inputs": [
        {
          "indexed": true,
          "internalType": "address",
          "name": "_address",
          "type": "address"
        },
        {
          "indexed": false,
          "internalType": "uint256",
          "name": "_tokenAmount",
          "type": "uint256"
        },
        {
          "indexed": false,
          "internalType": "uint256",
          "name": "_yieldReturned",
          "type": "uint256"
        }
      ],
      "name": "BurnedFToken",
      "type": "event"
    },
    {
      "anonymous": false,
      "inputs": [
        {
          "indexed": false,
          "internalType": "uint8",
          "name": "version",
          "type": "uint8"
        }
      ],
      "name": "Initialized",
      "type": "event"
    },
    {
      "inputs": [
        {
          "internalType": "uint256",
          "name": "_amount",
          "type": "uint256"
        },
        {
          "internalType": "uint256",
          "name": "_minimumReturned",
          "type": "uint256"
        },
        {
          "internalType": "address",
          "name": "_yieldTo",
          "type": "address"
        }
      ],
      "name": "burnFToken",
      "outputs": [
        {
          "internalType": "uint256",
          "name": "",
          "type": "uint256"
        }
      ],
      "stateMutability": "nonpayable",
      "type": "function"
    },
    {
      "inputs": [
        {
          "internalType": "uint256",
          "name": "_amount",
          "type": "uint256"
        }
      ],
      "name": "depositPrincipal",
      "outputs": [
        {
          "internalType": "uint256",
          "name": "",
          "type": "uint256"
        }
      ],
      "stateMutability": "nonpayable",
      "type": "function"
    },
    {
      "inputs": [],
      "name": "fToken",
      "outputs": [
        {
          "internalType": "address",
          "name": "",
          "type": "address"
        }
      ],
      "stateMutability": "view",
      "type": "function"
    },
    {
      "inputs": [],
      "name": "factory",
      "outputs": [
        {
          "internalType": "address",
          "name": "",
          "type": "address"
        }
      ],
      "stateMutability": "view",
      "type": "function"
    },
    {
      "inputs": [],
      "name": "flashProtocol",
      "outputs": [
        {
          "internalType": "address",
          "name": "",
          "type": "address"
        }
      ],
      "stateMutability": "view",
      "type": "function"
    },
    {
      "inputs": [],
      "name": "flpToken",
      "outputs": [
        {
          "internalType": "address",
          "name": "",
          "type": "address"
        }
      ],
      "stateMutability": "view",
      "type": "function"
    },
    {
      "inputs": [],
      "name": "getMaxStakeDuration",
      "outputs": [
        {
          "internalType": "uint256",
          "name": "",
          "type": "uint256"
        }
      ],
      "stateMutability": "pure",
      "type": "function"
    },
    {
      "inputs": [],
      "name": "getPrincipalAddress",
      "outputs": [
        {
          "internalType": "address",
          "name": "",
          "type": "address"
        }
      ],
      "stateMutability": "view",
      "type": "function"
    },
    {
      "inputs": [],
      "name": "getPrincipalBalance",
      "outputs": [
        {
          "internalType": "uint256",
          "name": "",
          "type": "uint256"
        }
      ],
      "stateMutability": "view",
      "type": "function"
    },
    {
      "inputs": [],
      "name": "getYieldBalance",
      "outputs": [
        {
          "internalType": "uint256",
          "name": "",
          "type": "uint256"
        }
      ],
      "stateMutability": "view",
      "type": "function"
    },
    {
      "inputs": [
        {
          "internalType": "address",
          "name": "_flashProtocol",
          "type": "address"
        },
        {
          "internalType": "address",
          "name": "_flpToken",
          "type": "address"
        }
      ],
      "name": "initialize",
      "outputs": [],
      "stateMutability": "nonpayable",
      "type": "function"
    },
    {
      "inputs": [
        {
          "internalType": "uint256",
          "name": "_amount",
          "type": "uint256"
        }
      ],
      "name": "quoteBurnFToken",
      "outputs": [
        {
          "internalType": "uint256",
          "name": "",
          "type": "uint256"
        }
      ],
      "stateMutability": "view",
      "type": "function"
    },
    {
      "inputs": [
        {
          "internalType": "uint256",
          "name": "_amount",
          "type": "uint256"
        },
        {
          "internalType": "uint256",
          "name": "_duration",
          "type": "uint256"
        }
      ],
      "name": "quoteMintFToken",
      "outputs": [
        {
          "internalType": "uint256",
          "name": "amountFToken",
          "type": "uint256"
        }
      ],
      "stateMutability": "pure",
      "type": "function"
    },
    {
      "inputs": [
        {
          "internalType": "address",
          "name": "_fTokenAddress",
          "type": "address"
        }
      ],
      "name": "setFTokenAddress",
      "outputs": [],
      "stateMutability": "nonpayable",
      "type": "function"
    },
    {
      "inputs": [],
      "name": "sushi",
      "outputs": [
        {
          "internalType": "address",
          "name": "",
          "type": "address"
        }
      ],
      "stateMutability": "view",
      "type": "function"
    },
    {
      "inputs": [
        {
          "internalType": "uint256",
          "name": "_amount",
          "type": "uint256"
        }
      ],
      "name": "withdrawPrincipal",
      "outputs": [],
      "stateMutability": "nonpayable",
      "type": "function"
    }
  ],
  "transactionHash": "0x37696781a1e779f16216e0642a6d153e1aece8efaeedbacc17e8da6a5ac65a63",
  "args": [],
  "numDeployments": 1,
  "solcInputHash": "a665560b628f7f2c3d37e87d44061d99",
  "bytecode": "0x6080806040523461001a5760018055610e4c90816100208239f35b600080fdfe60806040908082526004918236101561001757600080fd5b600091823560e01c9081623acb7114610857575080630a0879031461082f578063202f2a271461081157806345ed7f33146107e9578063485cc955146106b2578063489cc20c14610696578063594cc6861461038d578063658e28a4146102d657806376972999146102b85780637b027af01461027257806395da4c311461024a578063a8694e5714610222578063c45a0155146101fa578063cec833a9146101d0578063e68c84cb1461016e5763ef8d4964146100d457600080fd5b3461016a57602036600319011261016a576003546001600160a01b0390843590821633141580610160575b61015057908161011b6101906101209404809360055416610d40565b610adc565b916006549083820180921161013d57506020935060065551908152f35b634e487b7160e01b815260118552602490fd5b8251631dd2188d60e31b81528590fd5b50303314156100ff565b5080fd5b5082346101cc5760203660031901126101cc5761018961087c565b6003546001600160a01b039391929190841633036101bf575050166bffffffffffffffffffffffff60a01b600754161760075580f35b51631dd2188d60e31b8152fd5b8280fd5b5090346101f75760203660031901126101f757506101f060209235610a36565b9051908152f35b80fd5b503461016a578160031936011261016a5760025490516001600160a01b039091168152602090f35b503461016a578160031936011261016a5760075490516001600160a01b039091168152602090f35b503461016a578160031936011261016a5760035490516001600160a01b039091168152602090f35b5090346101f757816003193601126101f757506301e133806102976024358435610a0d565b049081156102a9576020925051908152f35b51631fbaba3560e01b81529050fd5b503461016a578160031936011261016a57602090516303bfc4008152f35b5082346101cc5760203660031901126101cc57600354813591906001600160a01b0390811633141580610383575b610374579084916005541693843b156101cc57828151809363c2c4c5c160e01b82528183895af190811561036b5750610357575b505061034981610351933390610ae9565b600654610adc565b60065580f35b61036090610892565b6101cc578284610338565b513d84823e3d90fd5b508251631dd2188d60e31b8152fd5b5030331415610304565b503461016a57606036600319011261016a576001600160a01b03928035906044359085821682036106925760026001541461064f5760026001556103d083610a36565b9485158015610644575b610635578660075416803b1561016a57855163079cc67960e41b815233848201908152602081018790529091839183919082908490829060400103925af1801561062b5761061c575b50908660055416803b156101cc578551627b8a6760e11b8152828101889052306024820152838160448183865af180156105fe57908491610608575b50508551978891635fcbd28560e01b8352828460209b8c935afa9182156105fe5784926105cf575b5080821687516370a0823160e01b9384825230868301528b82602481865afa9182156105c5578792610592575b506104d16104d693896104cb606486048096610adc565b91610ae9565b610d40565b82541691865191825230908201528781602481855afa928315610587579261054f575b506104d16105169361050f606485048095610adc565b9083610ae9565b815190815282848201527f931033e43a2977753dbe3de2347d53265c3a695c82b3fa009dd57e06d6a20503823392a26001805551908152f35b9291508683813d8311610580575b61056781836108bc565b8101031261057b57915190916104d16104f9565b600080fd5b503d61055d565b8651903d90823e3d90fd5b9291508b83813d83116105be575b6105aa81836108bc565b8101031261057b57915190916104d16104b4565b503d6105a0565b8a513d89823e3d90fd5b6105f0919250893d8b116105f7575b6105e881836108bc565b8101906108de565b9038610487565b503d6105de565b87513d86823e3d90fd5b61061190610892565b6101cc57823861045f565b61062590610892565b38610423565b86513d84823e3d90fd5b50835163fa3505cf60e01b8152fd5b5060243586106103da565b606490602085519162461bcd60e51b8352820152601f60248201527f5265656e7472616e637947756172643a207265656e7472616e742063616c6c006044820152fd5b8480fd5b503461016a578160031936011261016a576020906101f06109a1565b5082346101cc57816003193601126101cc576106cc61087c565b602435906001600160a01b038216820361069257845460ff8160081c1615938480956107dc575b80156107c5575b1561076b575060ff198116600117865561071c9291908461075a575b506108fd565b610724575080f35b60207f7f26b83ff96e1f2b6a682f133852f6798a09c465da95921460cefb38474024989161ff001984541684555160018152a180f35b61ffff191661010117865586610716565b608490602087519162461bcd60e51b8352820152602e60248201527f496e697469616c697a61626c653a20636f6e747261637420697320616c72656160448201526d191e481a5b9a5d1a585b1a5e995960921b6064820152fd5b50303b1580156106fa5750600160ff8316146106fa565b50600160ff8316106106f3565b503461016a578160031936011261016a5760055490516001600160a01b039091168152602090f35b503461016a578160031936011261016a576020906006549051908152f35b5082346101cc57826003193601126101cc575490516001600160a01b03909116815260209150f35b83903461016a578160031936011261016a576005546001600160a01b03168152602090f35b600435906001600160a01b038216820361057b57565b67ffffffffffffffff81116108a657604052565b634e487b7160e01b600052604160045260246000fd5b90601f8019910116810190811067ffffffffffffffff8211176108a657604052565b9081602091031261057b57516001600160a01b038116810361057b5790565b6001600160a01b039190821690811561099c5782906bffffffffffffffffffffffff60a01b92338460025416176002558360035416176003551691604051630a08790360e01b8152602081600481875afa90811561099057600091610972575b50168160045416176004556005541617600555565b61098a915060203d81116105f7576105e881836108bc565b3861095d565b6040513d6000823e3d90fd5b505050565b600554604051634321a20d60e11b815230600482015290602090829060249082906001600160a01b03165afa908115610990576000916109df575090565b906020823d8211610a05575b816109f8602093836108bc565b810103126101f757505190565b3d91506109eb565b81810292918115918404141715610a2057565b634e487b7160e01b600052601160045260246000fd5b6007546040516318160ddd60e01b81529190602090839060049082906001600160a01b03165afa91821561099057600092610aa9575b508115610a9757818111610a90575b610a8c90610a876109a1565b610a0d565b0490565b5080610a7b565b6040516371f2aadd60e11b8152600490fd5b90916020823d8211610ad4575b81610ac3602093836108bc565b810103126101f75750519038610a6c565b3d9150610ab6565b91908203918211610a2057565b6040805163a9059cbb60e01b60208083019182526001600160a01b03959095166024830152604480830196909652948152929390929091601f1990610b2f6064846108bc565b84519267ffffffffffffffff916001600160a01b031690848701838111868210176108a65787528785527f5361666545524332303a206c6f772d6c6576656c2063616c6c206661696c656488860152600080968192519082855af1913d15610c60573d908111610c4c5790610bc194939291610bb489895195601f84011601856108bc565b83523d868985013e610c6c565b805180610bd0575b5050505050565b8185918101031261016a57830151908115918215036101f75750610bf657808080610bc9565b60849250519062461bcd60e51b82526004820152602a60248201527f5361666545524332303a204552433230206f7065726174696f6e20646964206e6044820152691bdd081cdd58d8d9595960b21b6064820152fd5b634e487b7160e01b86526041600452602486fd5b5090610bc19392506060915b91929015610cce5750815115610c80575090565b3b15610c895790565b60405162461bcd60e51b815260206004820152601d60248201527f416464726573733a2063616c6c20746f206e6f6e2d636f6e74726163740000006044820152606490fd5b825190915015610ce15750805190602001fd5b6040519062461bcd60e51b82528160208060048301528251908160248401526000935b828510610d27575050604492506000838284010152601f80199101168101030190fd5b8481018201518686016044015293810193859350610d04565b81610d49575050565b60025460405163011a412160e61b8152916001600160a01b03916020908490600490829086165afa92831561099057600093610df4575b50811691610d8f848285610ae9565b803b610d9c575b50505050565b1691823b1561057b57606460009283604051958694859363248ff46d60e01b8552600485015230602485015260448401525af1610ddc575b808080610d96565b67ffffffffffffffff81116108a65760405238610dd4565b82919350610e0f9060203d81116105f7576105e881836108bc565b9290610d8056fea2646970667358221220aa1e141754d7bf41ade3b2c0ee5f70d8d03812fe4cb64c5efad331e5081e98cc64736f6c63430008110033",
  "devdoc": {
    "kind": "dev",
    "methods": {
      "burnFToken(uint256,uint256,address)": {
        "details": "It is responsible for burning the fToken supplied by the user and returning yield to the user."
      },
      "depositPrincipal(uint256)": {
        "details": "The Strategy owner can choose to implement a fee but the resulting \"locked\" principal the user should expect  after the stake has ended must be returned."
      },
      "getPrincipalAddress()": {
        "returns": {
          "_0": "address of LP Token"
        }
      },
      "getPrincipalBalance()": {
        "returns": {
          "_0": "amount of principal tokens that are currently deposited"
        }
      },
      "getYieldBalance()": {
        "returns": {
          "_0": "amount of yield tokens that can be rewarded in SUSHI"
        }
      },
      "quoteBurnFToken(uint256)": {
        "returns": {
          "_0": "how many aLP rewards should be returned if _amount fERC20 tokens are burned"
        }
      },
      "quoteMintFToken(uint256,uint256)": {
        "details": "called by flashProtocol",
        "returns": {
          "amountFToken": "how many fTokens should be minted for a given _amount and _duration (in seconds)"
        }
      },
      "setFTokenAddress(address)": {
        "details": "called by flashProtocol"
      }
    },
    "version": 1
  },
  "userdoc": {
    "kind": "user",
    "methods": {
      "burnFToken(uint256,uint256,address)": {
        "notice": "This is the function the user will be calling when performing a FlashBurn."
      },
      "depositPrincipal(uint256)": {
        "notice": "This function will be called whenever a user stakes via the Flash Protocol."
      },
      "fToken()": {
        "notice": "address of fERC20 for this strategy"
      },
      "flashProtocol()": {
        "notice": "address of FlashProtocol"
      },
      "flpToken()": {
        "notice": "address of FarmingLPToken"
      },
      "sushi()": {
        "notice": "address of SUSHI token"
      },
      "withdrawPrincipal(uint256)": {
        "notice": "This function should withdraw principal from the underlying strategy."
      }
    },
    "version": 1
  },
  "storageLayout": {
    "storage": [
      {
        "astId": 367,
        "contract": "contracts/FlashStrategySushiSwap.sol:FlashStrategySushiSwap",
        "label": "_initialized",
        "offset": 0,
        "slot": "0",
        "type": "t_uint8"
      },
      {
        "astId": 370,
        "contract": "contracts/FlashStrategySushiSwap.sol:FlashStrategySushiSwap",
        "label": "_initializing",
        "offset": 1,
        "slot": "0",
        "type": "t_bool"
      },
      {
        "astId": 540,
        "contract": "contracts/FlashStrategySushiSwap.sol:FlashStrategySushiSwap",
        "label": "_status",
        "offset": 0,
        "slot": "1",
        "type": "t_uint256"
      },
      {
        "astId": 13117,
        "contract": "contracts/FlashStrategySushiSwap.sol:FlashStrategySushiSwap",
        "label": "factory",
        "offset": 0,
        "slot": "2",
        "type": "t_address"
      },
      {
        "astId": 13121,
        "contract": "contracts/FlashStrategySushiSwap.sol:FlashStrategySushiSwap",
        "label": "flashProtocol",
        "offset": 0,
        "slot": "3",
        "type": "t_address"
      },
      {
        "astId": 13125,
        "contract": "contracts/FlashStrategySushiSwap.sol:FlashStrategySushiSwap",
        "label": "sushi",
        "offset": 0,
        "slot": "4",
        "type": "t_address"
      },
      {
        "astId": 13129,
        "contract": "contracts/FlashStrategySushiSwap.sol:FlashStrategySushiSwap",
        "label": "flpToken",
        "offset": 0,
        "slot": "5",
        "type": "t_address"
      },
      {
        "astId": 13131,
        "contract": "contracts/FlashStrategySushiSwap.sol:FlashStrategySushiSwap",
        "label": "_balancePrincipal",
        "offset": 0,
        "slot": "6",
        "type": "t_uint256"
      },
      {
        "astId": 13135,
        "contract": "contracts/FlashStrategySushiSwap.sol:FlashStrategySushiSwap",
        "label": "fToken",
        "offset": 0,
        "slot": "7",
        "type": "t_address"
      }
    ],
    "types": {
      "t_address": {
        "encoding": "inplace",
        "label": "address",
        "numberOfBytes": "20"
      },
      "t_bool": {
        "encoding": "inplace",
        "label": "bool",
        "numberOfBytes": "1"
      },
      "t_uint256": {
        "encoding": "inplace",
        "label": "uint256",
        "numberOfBytes": "32"
      },
      "t_uint8": {
        "encoding": "inplace",
        "label": "uint8",
        "numberOfBytes": "1"
      }
    }
  }
}