{
  "address": "0x7C375121690Bd65295B33c526F39dA1BAEDcFC97",
  "abi": [
    {
      "inputs": [
        {
          "internalType": "address",
          "name": "_votingEscrow",
          "type": "address"
        },
        {
          "internalType": "address",
          "name": "_fSushi",
          "type": "address"
        }
      ],
      "stateMutability": "nonpayable",
      "type": "constructor"
    },
    {
      "inputs": [],
      "name": "Claimed",
      "type": "error"
    },
    {
      "inputs": [],
      "name": "Expired",
      "type": "error"
    },
    {
      "anonymous": false,
      "inputs": [
        {
          "indexed": true,
          "internalType": "address",
          "name": "account",
          "type": "address"
        },
        {
          "indexed": false,
          "internalType": "uint256",
          "name": "amount",
          "type": "uint256"
        },
        {
          "indexed": true,
          "internalType": "address",
          "name": "beneficiary",
          "type": "address"
        },
        {
          "indexed": false,
          "internalType": "uint256",
          "name": "fromWeek",
          "type": "uint256"
        },
        {
          "indexed": false,
          "internalType": "uint256",
          "name": "untilWeek",
          "type": "uint256"
        }
      ],
      "name": "Claim",
      "type": "event"
    },
    {
      "inputs": [
        {
          "internalType": "address",
          "name": "beneficiary",
          "type": "address"
        }
      ],
      "name": "claim",
      "outputs": [
        {
          "internalType": "uint256",
          "name": "amount",
          "type": "uint256"
        }
      ],
      "stateMutability": "nonpayable",
      "type": "function"
    },
    {
      "inputs": [],
      "name": "fSushi",
      "outputs": [
        {
          "internalType": "address",
          "name": "",
          "type": "address"
        }
      ],
      "stateMutability": "view",
      "type": "function"
    },
    {
      "inputs": [],
      "name": "lastCheckpoint",
      "outputs": [
        {
          "internalType": "uint256",
          "name": "",
          "type": "uint256"
        }
      ],
      "stateMutability": "view",
      "type": "function"
    },
    {
      "inputs": [
        {
          "internalType": "address",
          "name": "",
          "type": "address"
        }
      ],
      "name": "lastCheckpointOf",
      "outputs": [
        {
          "internalType": "uint256",
          "name": "",
          "type": "uint256"
        }
      ],
      "stateMutability": "view",
      "type": "function"
    },
    {
      "inputs": [],
      "name": "startWeek",
      "outputs": [
        {
          "internalType": "uint256",
          "name": "",
          "type": "uint256"
        }
      ],
      "stateMutability": "view",
      "type": "function"
    },
    {
      "inputs": [],
      "name": "votingEscrow",
      "outputs": [
        {
          "internalType": "address",
          "name": "",
          "type": "address"
        }
      ],
      "stateMutability": "view",
      "type": "function"
    },
    {
      "inputs": [],
      "name": "votingEscrowInterval",
      "outputs": [
        {
          "internalType": "uint256",
          "name": "",
          "type": "uint256"
        }
      ],
      "stateMutability": "view",
      "type": "function"
    },
    {
      "inputs": [
        {
          "internalType": "uint256",
          "name": "",
          "type": "uint256"
        }
      ],
      "name": "votingEscrowTotalSupply",
      "outputs": [
        {
          "internalType": "uint256",
          "name": "",
          "type": "uint256"
        }
      ],
      "stateMutability": "view",
      "type": "function"
    }
  ],
  "transactionHash": "0xc78186161907af5574cd669c4ffeb511afd9876cb31a09f560258ad16cb1d163",
  "args": [
    "0x77D3d884FeA1E389150a26D4569b20ebA284A86d",
    "0xA24390c62186A8D265344e914F0Fd962B81b5F13"
  ],
  "numDeployments": 1,
  "solcInputHash": "3d0b4627786121738df4fdd2f0dde9e7",
  "bytecode": "0x610100806040523461012757604081610b6d8038038091610020828561012c565b833981010312610127576020816100438261003c600495610165565b9201610165565b608082905260a05262093a80420460c05260405163947a36fb60e01b815292839182906001600160a01b03165afa90811561011b576000916100e7575b5060e0526040516109f3908161017a823960805181818161019701528181610230015281816105c30152610724015260a051818181609001526102ee015260c051818181610107015281816102a10152610474015260e05181818161014201526107990152f35b906020823d8211610113575b816101006020938361012c565b8101031261011057505138610080565b80fd5b3d91506100f3565b6040513d6000823e3d90fd5b600080fd5b601f909101601f19168101906001600160401b0382119082101761014f57604052565b634e487b7160e01b600052604160045260246000fd5b51906001600160a01b03821682036101275756fe608060408181526004918236101561001657600080fd5b600092833560e01c9182631e83409a14610200575081632e9cf8a0146101c65781634f2bfe5b14610182578163d32e81a514610165578163e703057b1461012a578163eddf2d21146100ef578163f4d4bae4146100c3575063ffe066a01461007d57600080fd5b346100bf57816003193601126100bf57517f00000000000000000000000000000000000000000000000000000000000000006001600160a01b03168152602090f35b5080fd5b9050346100eb5760203660031901126100eb5760209282913581526002845220549051908152f35b8280fd5b5050346100bf57816003193601126100bf57602090517f00000000000000000000000000000000000000000000000000000000000000008152f35b5050346100bf57816003193601126100bf57602090517f00000000000000000000000000000000000000000000000000000000000000008152f35b5050346100bf57816003193601126100bf57602091549051908152f35b5050346100bf57816003193601126100bf57517f00000000000000000000000000000000000000000000000000000000000000006001600160a01b03168152602090f35b9050346100eb5760203660031901126100eb57356001600160a01b038116908190036100eb57828291602094526001845220549051908152f35b929150346104bb5760203660031901126104bb576001600160a01b03813581811692908381036104b757869587847f000000000000000000000000000000000000000000000000000000000000000016803b156100bf57848383819363c2c4c5c160e01b83525af180156104ad5761049a575b503387526001918260205285882054938415610472575b62093a80938442049481860180961161045f578a907f00000000000000000000000000000000000000000000000000000000000000005b61020083106103b9575b505050338a5260205283878a2055876102e9575b6020888851908152f35b9088917f000000000000000000000000000000000000000000000000000000000000000016803b156100eb5787516340c10f1960e01b81526001600160a01b0390941691840191825260208201899052839182908490829060400103925af180156103af57610397575b506020955083519185835286830152838201527ff8058b3b391f4252dfeb3d89006cd2807a083271dc03cd5c709ecd3f8b6caa4160603392a33880808080806102df565b6103a187916104bf565b6103ab5785610353565b8580fd5b85513d89823e3d90fd5b90919a6103c68c8a61050b565b8881101561045857838102818104851482151715610443576103f16103eb82336105a4565b916106f1565b9184810390811161042f576104269261041b88959369010f0cf064dd59200000610420941c61052e565b610541565b9061050b565b9b0191906102c1565b50634e487b7160e01b8f526011885260248ffd5b601188634e487b7160e01b6000525260246000fd5b509a6102cb565b634e487b7160e01b8b526011845260248bfd5b7f0000000000000000000000000000000000000000000000000000000000000000945061028a565b6104a6909791976104bf565b9538610273565b86513d8a823e3d90fd5b8680fd5b8380fd5b67ffffffffffffffff81116104d357604052565b634e487b7160e01b600052604160045260246000fd5b90601f8019910116810190811067ffffffffffffffff8211176104d357604052565b9190820180921161051857565b634e487b7160e01b600052601160045260246000fd5b8181029291811591840414171561051857565b811561054b570490565b634e487b7160e01b600052601260045260246000fd5b519081600f0b820361056f57565b600080fd5b919082608091031261056f5761058982610561565b9161059660208201610561565b916060604083015192015190565b6040516381fc83bb60e01b81526001600160a01b0382811660048301527f0000000000000000000000000000000000000000000000000000000000000000169190602081602481865afa9081156106b1576000916106bd575b508061060c5750505050600090565b604051630d36406960e21b81526001600160a01b03929092166004830152602482015290608090829060449082905afa80156106b15760009283928492610679575b5003600f0b02600f0b9003600f0b60008112610671575b6001600160801b031690565b506000610665565b9150925061069e915060803d81116106aa575b61069681836104e9565b810190610574565b5091929091903861064e565b503d61068c565b6040513d6000823e3d90fd5b906020823d82116106e9575b816106d6602093836104e9565b810103126106e6575051386105fd565b80fd5b3d91506106c9565b62093a808104600091825482106109ad57600182018083116109995783556040805163900cf0cf60e01b815260209491927f00000000000000000000000000000000000000000000000000000000000000006001600160a01b0316600487848281855afa93841561098f57859461095c575b50855193638ad4c44760e01b8552818501526024916080858481845afa90811561095257869487958893610921575b96508a95927f000000000000000000000000000000000000000000000000000000000000000092906107cd846107c88184610541565b61052e565b948a955b60ff871061080d575b505050505050505050508181600f0b12610806575b6001600160801b0360029116948594835252205590565b50806107ef565b8561081b919b999a9b61050b565b808c9b8682116000146108aa5750505083975b600f928903830b8202830b9003820b998489146108a257820b910b0160016001607f1b0319811260016001607f1b0382131761089057928694600019811461087e576001019490938d98976107d1565b634e487b7160e01b8b5260118752888bfd5b634e487b7160e01b8a5260118652878afd5b8e99506107da565b9091999b508d519163f52a36f760e01b835289830152818b81875afa908115610917578f8d926108dd575b50509961082e565b90809250813d8311610910575b6108f481836104e9565b8101031261090c5761090590610561565b388f6108d5565b8b80fd5b503d6108ea565b8d513d8e823e3d90fd5b509150946107c89394506109429060803d81116106aa5761069681836104e9565b5096919290969287969550610792565b87513d88823e3d90fd5b9093508781813d8311610988575b61097481836104e9565b8101031261098457519238610763565b8480fd5b503d61096a565b86513d87823e3d90fd5b634e487b7160e01b84526011600452602484fd5b508152600260205260409020549056fea264697066735822122011e13862f22568b00c6beaae04fc1df546395f6b7095c46b68874d62397b68f564736f6c63430008110033",
  "devdoc": {
    "kind": "dev",
    "methods": {},
    "version": 1
  },
  "userdoc": {
    "kind": "user",
    "methods": {},
    "version": 1
  },
  "storageLayout": {
    "storage": [
      {
        "astId": 8972,
        "contract": "contracts/FSushiAirdropsVotingEscrow.sol:FSushiAirdropsVotingEscrow",
        "label": "lastCheckpoint",
        "offset": 0,
        "slot": "0",
        "type": "t_uint256"
      },
      {
        "astId": 8976,
        "contract": "contracts/FSushiAirdropsVotingEscrow.sol:FSushiAirdropsVotingEscrow",
        "label": "lastCheckpointOf",
        "offset": 0,
        "slot": "1",
        "type": "t_mapping(t_address,t_uint256)"
      },
      {
        "astId": 8980,
        "contract": "contracts/FSushiAirdropsVotingEscrow.sol:FSushiAirdropsVotingEscrow",
        "label": "votingEscrowTotalSupply",
        "offset": 0,
        "slot": "2",
        "type": "t_mapping(t_uint256,t_uint256)"
      }
    ],
    "types": {
      "t_address": {
        "encoding": "inplace",
        "label": "address",
        "numberOfBytes": "20"
      },
      "t_mapping(t_address,t_uint256)": {
        "encoding": "mapping",
        "key": "t_address",
        "label": "mapping(address => uint256)",
        "numberOfBytes": "32",
        "value": "t_uint256"
      },
      "t_mapping(t_uint256,t_uint256)": {
        "encoding": "mapping",
        "key": "t_uint256",
        "label": "mapping(uint256 => uint256)",
        "numberOfBytes": "32",
        "value": "t_uint256"
      },
      "t_uint256": {
        "encoding": "inplace",
        "label": "uint256",
        "numberOfBytes": "32"
      }
    }
  }
}