{
  "address": "0x8f77a1f6D36c6F3005B33E4071733C7057463Ca5",
  "abi": [
    {
      "inputs": [
        {
          "internalType": "address",
          "name": "fSushi",
          "type": "address"
        }
      ],
      "stateMutability": "nonpayable",
      "type": "constructor"
    },
    {
      "inputs": [],
      "name": "Bankrupt",
      "type": "error"
    },
    {
      "inputs": [],
      "name": "InvalidAccount",
      "type": "error"
    },
    {
      "inputs": [],
      "name": "InvalidDuration",
      "type": "error"
    },
    {
      "inputs": [],
      "name": "NotEnoughBalance",
      "type": "error"
    },
    {
      "inputs": [],
      "name": "QueueEmpty",
      "type": "error"
    },
    {
      "inputs": [],
      "name": "WithdrawalDenied",
      "type": "error"
    },
    {
      "anonymous": false,
      "inputs": [
        {
          "indexed": true,
          "internalType": "address",
          "name": "sender",
          "type": "address"
        },
        {
          "indexed": true,
          "internalType": "address",
          "name": "beneficiary",
          "type": "address"
        },
        {
          "indexed": false,
          "internalType": "uint256",
          "name": "shares",
          "type": "uint256"
        },
        {
          "indexed": false,
          "internalType": "uint256",
          "name": "assets",
          "type": "uint256"
        }
      ],
      "name": "Deposit",
      "type": "event"
    },
    {
      "anonymous": false,
      "inputs": [
        {
          "indexed": true,
          "internalType": "address",
          "name": "from",
          "type": "address"
        },
        {
          "indexed": true,
          "internalType": "address",
          "name": "to",
          "type": "address"
        },
        {
          "indexed": false,
          "internalType": "uint256",
          "name": "value",
          "type": "uint256"
        }
      ],
      "name": "Transfer",
      "type": "event"
    },
    {
      "anonymous": false,
      "inputs": [
        {
          "indexed": true,
          "internalType": "address",
          "name": "owner",
          "type": "address"
        },
        {
          "indexed": true,
          "internalType": "address",
          "name": "beneficiary",
          "type": "address"
        },
        {
          "indexed": false,
          "internalType": "uint256",
          "name": "shares",
          "type": "uint256"
        },
        {
          "indexed": false,
          "internalType": "uint256",
          "name": "assets",
          "type": "uint256"
        },
        {
          "indexed": false,
          "internalType": "uint256",
          "name": "yield",
          "type": "uint256"
        }
      ],
      "name": "Withdraw",
      "type": "event"
    },
    {
      "inputs": [],
      "name": "asset",
      "outputs": [
        {
          "internalType": "address",
          "name": "",
          "type": "address"
        }
      ],
      "stateMutability": "view",
      "type": "function"
    },
    {
      "inputs": [
        {
          "internalType": "address",
          "name": "",
          "type": "address"
        }
      ],
      "name": "balanceOf",
      "outputs": [
        {
          "internalType": "uint256",
          "name": "",
          "type": "uint256"
        }
      ],
      "stateMutability": "view",
      "type": "function"
    },
    {
      "inputs": [],
      "name": "checkpoint",
      "outputs": [],
      "stateMutability": "nonpayable",
      "type": "function"
    },
    {
      "inputs": [],
      "name": "checkpointedTotalAssets",
      "outputs": [
        {
          "internalType": "uint256",
          "name": "",
          "type": "uint256"
        }
      ],
      "stateMutability": "nonpayable",
      "type": "function"
    },
    {
      "inputs": [
        {
          "internalType": "uint256",
          "name": "week",
          "type": "uint256"
        }
      ],
      "name": "checkpointedTotalAssetsDuring",
      "outputs": [
        {
          "internalType": "uint256",
          "name": "",
          "type": "uint256"
        }
      ],
      "stateMutability": "nonpayable",
      "type": "function"
    },
    {
      "inputs": [],
      "name": "decimals",
      "outputs": [
        {
          "internalType": "uint8",
          "name": "",
          "type": "uint8"
        }
      ],
      "stateMutability": "view",
      "type": "function"
    },
    {
      "inputs": [
        {
          "internalType": "uint256",
          "name": "assets",
          "type": "uint256"
        },
        {
          "internalType": "uint256",
          "name": "_weeks",
          "type": "uint256"
        },
        {
          "internalType": "address",
          "name": "beneficiary",
          "type": "address"
        }
      ],
      "name": "deposit",
      "outputs": [
        {
          "internalType": "uint256",
          "name": "",
          "type": "uint256"
        }
      ],
      "stateMutability": "nonpayable",
      "type": "function"
    },
    {
      "inputs": [
        {
          "internalType": "uint256",
          "name": "assets",
          "type": "uint256"
        },
        {
          "internalType": "uint256",
          "name": "_weeks",
          "type": "uint256"
        },
        {
          "internalType": "address",
          "name": "beneficiary",
          "type": "address"
        },
        {
          "internalType": "uint256",
          "name": "deadline",
          "type": "uint256"
        },
        {
          "internalType": "uint8",
          "name": "v",
          "type": "uint8"
        },
        {
          "internalType": "bytes32",
          "name": "r",
          "type": "bytes32"
        },
        {
          "internalType": "bytes32",
          "name": "s",
          "type": "bytes32"
        }
      ],
      "name": "depositSigned",
      "outputs": [
        {
          "internalType": "uint256",
          "name": "",
          "type": "uint256"
        }
      ],
      "stateMutability": "nonpayable",
      "type": "function"
    },
    {
      "inputs": [],
      "name": "lastCheckpoint",
      "outputs": [
        {
          "internalType": "uint256",
          "name": "",
          "type": "uint256"
        }
      ],
      "stateMutability": "view",
      "type": "function"
    },
    {
      "inputs": [],
      "name": "name",
      "outputs": [
        {
          "internalType": "string",
          "name": "",
          "type": "string"
        }
      ],
      "stateMutability": "view",
      "type": "function"
    },
    {
      "inputs": [
        {
          "internalType": "uint256",
          "name": "assets",
          "type": "uint256"
        },
        {
          "internalType": "uint256",
          "name": "_weeks",
          "type": "uint256"
        }
      ],
      "name": "previewDeposit",
      "outputs": [
        {
          "internalType": "uint256",
          "name": "shares",
          "type": "uint256"
        }
      ],
      "stateMutability": "view",
      "type": "function"
    },
    {
      "inputs": [
        {
          "internalType": "address",
          "name": "owner",
          "type": "address"
        }
      ],
      "name": "previewWithdraw",
      "outputs": [
        {
          "internalType": "uint256",
          "name": "shares",
          "type": "uint256"
        },
        {
          "internalType": "uint256",
          "name": "assets",
          "type": "uint256"
        },
        {
          "internalType": "uint256",
          "name": "yield",
          "type": "uint256"
        }
      ],
      "stateMutability": "view",
      "type": "function"
    },
    {
      "inputs": [],
      "name": "startWeek",
      "outputs": [
        {
          "internalType": "uint256",
          "name": "",
          "type": "uint256"
        }
      ],
      "stateMutability": "view",
      "type": "function"
    },
    {
      "inputs": [],
      "name": "symbol",
      "outputs": [
        {
          "internalType": "string",
          "name": "",
          "type": "string"
        }
      ],
      "stateMutability": "view",
      "type": "function"
    },
    {
      "inputs": [],
      "name": "totalAssets",
      "outputs": [
        {
          "internalType": "uint256",
          "name": "",
          "type": "uint256"
        }
      ],
      "stateMutability": "view",
      "type": "function"
    },
    {
      "inputs": [
        {
          "internalType": "uint256",
          "name": "",
          "type": "uint256"
        }
      ],
      "name": "totalAssetsDuring",
      "outputs": [
        {
          "internalType": "uint256",
          "name": "",
          "type": "uint256"
        }
      ],
      "stateMutability": "view",
      "type": "function"
    },
    {
      "inputs": [],
      "name": "totalSupply",
      "outputs": [
        {
          "internalType": "uint256",
          "name": "",
          "type": "uint256"
        }
      ],
      "stateMutability": "view",
      "type": "function"
    },
    {
      "inputs": [
        {
          "internalType": "address",
          "name": "beneficiary",
          "type": "address"
        }
      ],
      "name": "withdraw",
      "outputs": [
        {
          "internalType": "uint256",
          "name": "shares",
          "type": "uint256"
        },
        {
          "internalType": "uint256",
          "name": "assets",
          "type": "uint256"
        },
        {
          "internalType": "uint256",
          "name": "yield",
          "type": "uint256"
        }
      ],
      "stateMutability": "nonpayable",
      "type": "function"
    }
  ],
  "transactionHash": "0x01e48f09342bfde5ca4da7536ee88dc67b5caa815e1031b63dc9b03648d256b3",
  "args": [
    "0xA24390c62186A8D265344e914F0Fd962B81b5F13"
  ],
  "numDeployments": 1,
  "solcInputHash": "8c17aa148ad85bf7109c5d60e7cb8c68",
  "bytecode": "0x60c03461009b57601f6115ca38819003918201601f19168301916001600160401b038311848410176100a05780849260209460405283398101031261009b57516001600160a01b038116810361009b5760805262093a8042048060a05260055560405161151390816100b78239608051818181610293015281816107dc0152818161091501528181610d33015261122f015260a0518160ff0152f35b600080fd5b634e487b7160e01b600052604160045260246000fdfe60808060405260048036101561001457600080fd5b60003560e01c91826301e1d114146109eb5750816306fdde03146109a457816318160ddd14610986578163313ce5671461096a57816336175f391461094457816338d52e0f146108ff5781633b35269c1461089957816351cff8d9146103bd5781635ee3d91e146103945781636037e003146103635781636f4049161461026657816370a082311461022c5781637a7af70d146101d65781638dbdbe6d146101a45750806395d89b4114610160578063c2c4c5c114610145578063d32e81a5146101275763eddf2d21146100e757600080fd5b346101225760003660031901126101225760206040517f00000000000000000000000000000000000000000000000000000000000000008152f35b600080fd5b34610122576000366003190112610122576020600554604051908152f35b346101225760003660031901126101225761015e611206565b005b34610122576000366003190112610122576101a060405161018081610a38565b60078152667866535553484960c81b602082015260405191829182610a76565b0390f35b34610122576060366003190112610122576101ce6020916101c3610ad5565b906024359035610c88565b604051908152f35b3461012257604036600319011261012257602435600181108015610222575b610212576102096101ce9160209335610b47565b60065490610aeb565b50604051637616640160e01b8152fd5b50606881116101f5565b34610122576020366003190112610122576001600160a01b0361024d610abf565b1660005260006020526020604060002054604051908152f35b346101225760e0366003190112610122578035610281610ad5565b916084359060ff8216809203610122577f00000000000000000000000000000000000000000000000000000000000000006001600160a01b031691823b156101225760009260e48492604051958693849263d505accf60e01b845233888501523060248501528960448501526064356064850152608484015260a43560a484015260c43560c48401525af1801561035757610326575b60206101ce8560243586610c88565b67ffffffffffffffff82116103425750604052816101ce610317565b604190634e487b7160e01b6000525260246000fd5b6040513d6000823e3d90fd5b346101225760203660031901126101225761037c611206565b80356000526020526020604060002054604051908152f35b346101225760203660031901126101225780356000526020526020604060002054604051908152f35b34610122576020366003190112610122576103d6610abf565b906103df611206565b33600052600260205260406000209060008060005b8454956001871180610888575b156106a9576001871461069857610417866114af565b90600019880197881161068357610433879861046097986113b3565b96905461043f8a611382565b90916003998a1b1c9082549060031b600019811b9283911b16911916179055565b8754801561066e5760001901610476818a6113b3565b815490600019908a1b1b19169055885560015b808060011b046002148115171561062f57885490818160011b101561065957600181811b92908301831161064457600182811b01106105e7575b6104cd818b6113b3565b905490891b1c6104dd838c6113b3565b9054908a1b1c116105615787828b61054261055c9461052761051f61050286866113b3565b905490881b1c9661051384876113b3565b9054911b1c92856113b3565b9590946113b3565b90919082549060031b600019811b9283911b16911916179055565b919082549060031b600019811b9283911b16911916179055565b610489565b505096959450916105dc6105e29294935b80600052600188016020526105d6604060002060405161059181610a06565b815481526002600183015492602083019384520154936040820194855260005260018b0160205260006002604082208281558260018201550155519051925194610b3a565b94610b3a565b93610b3a565b6103f4565b6105f48160011b8b6113b3565b905490891b1c610609600183811b018c6113b3565b9054908a1b1c10156104c35790506000198160011b1461062f57600181811b01906104c3565b601188634e487b7160e01b6000525260246000fd5b60118a634e487b7160e01b6000525260246000fd5b505096959450916105dc6105e2929493610572565b603188634e487b7160e01b6000525260246000fd5b601186634e487b7160e01b6000525260246000fd5b6040516375e52f4f60e01b81528590fd5b8390858315610879576107086106be85610c6c565b936106d46106cc8689610b3a565b6003546111f9565b6003556106e18588610b3a565b62093a804204600052836020526106fe60406000209182546111f9565b90556006546111f9565b600655610717836007546111f9565b600755331561086a5733600052600060205260406000205484811061085a57849033600052600060205203604060002055836001540360015560006040518581527fddf252ad1be2c89b69c2b068fc378daa952ba7f163c4a11628f55a4df523b3ef60203392a36107888386610b3a565b916040519163a9059cbb60e01b602084015260018060a01b0380921693846024850152604484015260448352608083019083821067ffffffffffffffff83111761034257506040526101a0939291610801917f000000000000000000000000000000000000000000000000000000000000000016611024565b604080518581526020810187905290810183905233907febff2602b3f468259e1e99f613fed6691f3a6526effe6ef3e768ba7ae7a36c4f90606090a3604051938493846040919493926060820195825260208201520152565b5060405163569d45cf60e11b8152fd5b604051630da30f6560e31b8152fd5b604051631ce9dcc360e01b8152fd5b5042610893876114af565b10610401565b34610122576020366003190112610122576001600160a01b036108ba610abf565b1660005260026020526108d46001604060002042906113cb565b90506101a06108e282610c6c565b604051938493846040919493926060820195825260208201520152565b34610122576000366003190112610122576040517f00000000000000000000000000000000000000000000000000000000000000006001600160a01b03168152602090f35b346101225760003660031901126101225761095d611206565b6020600354604051908152f35b3461012257600036600319011261012257602060405160128152f35b34610122576000366003190112610122576020600154604051908152f35b34610122576000366003190112610122576101a06040516109c481610a38565b600e81526d233630b9b41029bab9b434a130b960911b602082015260405191829182610a76565b34610122576000366003190112610122576020906003548152f35b6060810190811067ffffffffffffffff821117610a2257604052565b634e487b7160e01b600052604160045260246000fd5b6040810190811067ffffffffffffffff821117610a2257604052565b90601f8019910116810190811067ffffffffffffffff821117610a2257604052565b6020808252825181830181905290939260005b828110610aab57505060409293506000838284010152601f8019910116010190565b818101860151848201604001528501610a89565b600435906001600160a01b038216820361012257565b604435906001600160a01b038216820361012257565b9060015482158015610b0e575b15610b0257505090565b610b0b92610bd2565b90565b508015610af8565b9060018201809211610b2457565b634e487b7160e01b600052601160045260246000fd5b91908201809211610b2457565b90606890610b558184610b6c565b9209610b5e5790565b60018101809111610b245790565b60001982820982820291828083109203918083039214610bc8578160681115610122577f4ec4ec4ec4ec4ec4ec4ec4ec4ec4ec4ec4ec4ec4ec4ec4ec4ec4ec4ec4ec4ec5936068910990828211900360fd1b910360031c170290565b5050606891500490565b916000198284099282810292838086109503948086039514610c485784831115610122578291096001821901821680920460028082600302188083028203028083028203028083028203028083028203028083028203028092029003029360018380600003040190848311900302920304170290565b505080925015610c56570490565b634e487b7160e01b600052601260045260246000fd5b6001548015610c8157610b0b91600754610bd2565b5050600090565b9092916001938481108015611004575b610ff257610ca4611206565b600390815415801590610fe9575b60009015610fe457506000195b8411610fd25760065493610cd38282610b47565b610cdd8682610aeb565b956040938451956020966323b872dd60e01b88820152602498338a8301523060448301528660648301526064825260a0820182811067ffffffffffffffff821117610fbd5788526001600160a01b0391610d59907f00000000000000000000000000000000000000000000000000000000000000008416611024565b16978815610fac57610d6c8a8d54610b3a565b8c558860005260008852866000208a81540190558860007fddf252ad1be2c89b69c2b068fc378daa952ba7f163c4a11628f55a4df523b3ef8a8d8b51908152a33360005260028852866000209062093a809384810290808204861490151715610f9757610dd99042610b3a565b9082548015610f68575b508254600160401b811015610f5357828f8261052791610e0694018755866113b3565b8254600019810191908211610f3f57508d5b610ec4575b5060028b8e8b9c9d9e9f7fdcbc1c05240f31ff3ad067ef1ee35ce4997762752e3a095284754544f4c709d79c8c91610eb29b9a9998978d97845198610e618a610a06565b8952838901948d865289019687526000520190528b60002094518555519084015551910155610e91868254610b3a565b905542046000526004875284600020610eab858254610b3a565b9055610b3a565b6006558151938685528401523392a390565b8d8111818f82610f15575b505015610f105780610f0a8f926105278591851c93610542610ef1868a6113b3565b9054908b1b1c610f01878b6113b3565b9490938b6113b3565b90610e18565b610e1d565b610f2192501c846113b3565b905490851b1c610f3182856113b3565b905490861b1c10818f610ecf565b634e487b7160e01b60009081526011600452fd5b50634e487b7160e01b60009081526041600452fd5b600160401b811015610f5357808f610f8392018555846113b3565b81549060001990871b1b1916905538610de3565b50634e487b7160e01b60009081526011600452fd5b8651630da30f6560e31b8152600490fd5b8a634e487b7160e01b60005260416004526000fd5b6040516348fdd0cd60e01b8152600490fd5b610cbf565b50855415610cb2565b604051637616640160e01b8152600490fd5b5060688111610c98565b908160011b9180830460021490151715610b2457565b60018060a01b03169060405161103981610a38565b6020928382527f5361666545524332303a206c6f772d6c6576656c2063616c6c206661696c6564848301526000808486829651910182855af13d1561115a573d9167ffffffffffffffff831161114657906110b4939291604051926110a788601f19601f8401160185610a54565b83523d868885013e611164565b8051806110c2575b50505050565b81849181010312611142578201519081159182150361113f57506110e8578080806110bc565b6084906040519062461bcd60e51b82526004820152602a60248201527f5361666545524332303a204552433230206f7065726174696f6e20646964206e6044820152691bdd081cdd58d8d9595960b21b6064820152fd5b80fd5b5080fd5b634e487b7160e01b85526041600452602485fd5b906110b492916060915b919290156111c65750815115611178575090565b3b156111815790565b60405162461bcd60e51b815260206004820152601d60248201527f416464726573733a2063616c6c20746f206e6f6e2d636f6e74726163740000006044820152606490fd5b8251909150156111d95750805190602001fd5b60405162461bcd60e51b81529081906111f59060048301610a76565b0390fd5b91908203918211610b2457565b600354604080516370a0823160e01b8152306004808301919091526020936024939192858186817f00000000000000000000000000000000000000000000000000000000000000006001600160a01b03165afa9081156113775760009161134a575b508181116112fd575b50506005549162093a80420494838611156112f55760005b610200811061129e575b505050505050600555565b6112a88186610b3a565b90818811156112ef578160005283835284600020546001928381018091116112db57600052848452856000205501611289565b88601187634e487b7160e01b600052526000fd5b50611293565b505050505050565b61134091816113389260035562093a80420460005285885280856000205561133061132883836111f9565b600654610b3a565b6006556111f9565b600754610b3a565b6007553880611271565b908682813d8311611370575b6113608183610a54565b8101031261113f57505138611268565b503d611356565b83513d6000823e3d90fd5b80546001101561139d57600052600160206000200190600090565b634e487b7160e01b600052603260045260246000fd5b805482101561139d5760005260206000200190600090565b9192909282548110156114a357836113e382856113b3565b90549060031b1c116114a3576040936113fc82856113b3565b90549060031b1c60005260018401602052846000209385519061141e82610a06565b85549182815260026001880154978860208401520154978891015261144c6114458561100e565b84836113cb565b9461146f92611469949261146497959197909861100e565b610b16565b916113cb565b61149d96909561148c956114979487939261149192859190610b3a565b610b3a565b99610b3a565b96610b3a565b91929190565b50600092508291508190565b60018154146114cb576114c190611382565b90549060031b1c90565b6040516375e52f4f60e01b8152600490fdfea2646970667358221220d08c05cc5bba62049bc0373b874f992a96b49cc880349f7dcc326dee262c036364736f6c63430008110033",
  "devdoc": {
    "kind": "dev",
    "methods": {
      "checkpoint()": {
        "details": "if this function doesn't get called for 512 weeks (around 9.8 years) this contract breaks"
      }
    },
    "stateVariables": {
      "totalAssetsDuring": {
        "details": "this is guaranteed to be correct up until the last week",
        "return": "minimum number of staked total assets during the whole week",
        "returns": {
          "_0": "minimum number of staked total assets during the whole week"
        }
      }
    },
    "version": 1
  },
  "userdoc": {
    "kind": "user",
    "methods": {
      "lastCheckpoint()": {
        "notice": "totalAssetsDuring is guaranteed to be correct before this week"
      }
    },
    "notice": "FSushiBar is an extension of ERC4626 with the addition of vesting period for locks",
    "version": 1
  },
  "storageLayout": {
    "storage": [
      {
        "astId": 9425,
        "contract": "contracts/FSushiBar.sol:FSushiBar",
        "label": "balanceOf",
        "offset": 0,
        "slot": "0",
        "type": "t_mapping(t_address,t_uint256)"
      },
      {
        "astId": 9428,
        "contract": "contracts/FSushiBar.sol:FSushiBar",
        "label": "totalSupply",
        "offset": 0,
        "slot": "1",
        "type": "t_uint256"
      },
      {
        "astId": 9433,
        "contract": "contracts/FSushiBar.sol:FSushiBar",
        "label": "_locks",
        "offset": 0,
        "slot": "2",
        "type": "t_mapping(t_address,t_struct(Heap)16703_storage)"
      },
      {
        "astId": 9436,
        "contract": "contracts/FSushiBar.sol:FSushiBar",
        "label": "totalAssets",
        "offset": 0,
        "slot": "3",
        "type": "t_uint256"
      },
      {
        "astId": 9442,
        "contract": "contracts/FSushiBar.sol:FSushiBar",
        "label": "totalAssetsDuring",
        "offset": 0,
        "slot": "4",
        "type": "t_mapping(t_uint256,t_uint256)"
      },
      {
        "astId": 9446,
        "contract": "contracts/FSushiBar.sol:FSushiBar",
        "label": "lastCheckpoint",
        "offset": 0,
        "slot": "5",
        "type": "t_uint256"
      },
      {
        "astId": 9448,
        "contract": "contracts/FSushiBar.sol:FSushiBar",
        "label": "_totalPower",
        "offset": 0,
        "slot": "6",
        "type": "t_uint256"
      },
      {
        "astId": 9450,
        "contract": "contracts/FSushiBar.sol:FSushiBar",
        "label": "_totalYield",
        "offset": 0,
        "slot": "7",
        "type": "t_uint256"
      }
    ],
    "types": {
      "t_address": {
        "encoding": "inplace",
        "label": "address",
        "numberOfBytes": "20"
      },
      "t_array(t_uint256)dyn_storage": {
        "base": "t_uint256",
        "encoding": "dynamic_array",
        "label": "uint256[]",
        "numberOfBytes": "32"
      },
      "t_mapping(t_address,t_struct(Heap)16703_storage)": {
        "encoding": "mapping",
        "key": "t_address",
        "label": "mapping(address => struct FSushiBarPriorityQueue.Heap)",
        "numberOfBytes": "32",
        "value": "t_struct(Heap)16703_storage"
      },
      "t_mapping(t_address,t_uint256)": {
        "encoding": "mapping",
        "key": "t_address",
        "label": "mapping(address => uint256)",
        "numberOfBytes": "32",
        "value": "t_uint256"
      },
      "t_mapping(t_uint256,t_struct(Snapshot)16694_storage)": {
        "encoding": "mapping",
        "key": "t_uint256",
        "label": "mapping(uint256 => struct FSushiBarPriorityQueue.Snapshot)",
        "numberOfBytes": "32",
        "value": "t_struct(Snapshot)16694_storage"
      },
      "t_mapping(t_uint256,t_uint256)": {
        "encoding": "mapping",
        "key": "t_uint256",
        "label": "mapping(uint256 => uint256)",
        "numberOfBytes": "32",
        "value": "t_uint256"
      },
      "t_struct(Heap)16703_storage": {
        "encoding": "inplace",
        "label": "struct FSushiBarPriorityQueue.Heap",
        "members": [
          {
            "astId": 16697,
            "contract": "contracts/FSushiBar.sol:FSushiBar",
            "label": "timestamps",
            "offset": 0,
            "slot": "0",
            "type": "t_array(t_uint256)dyn_storage"
          },
          {
            "astId": 16702,
            "contract": "contracts/FSushiBar.sol:FSushiBar",
            "label": "snapshots",
            "offset": 0,
            "slot": "1",
            "type": "t_mapping(t_uint256,t_struct(Snapshot)16694_storage)"
          }
        ],
        "numberOfBytes": "64"
      },
      "t_struct(Snapshot)16694_storage": {
        "encoding": "inplace",
        "label": "struct FSushiBarPriorityQueue.Snapshot",
        "members": [
          {
            "astId": 16689,
            "contract": "contracts/FSushiBar.sol:FSushiBar",
            "label": "assets",
            "offset": 0,
            "slot": "0",
            "type": "t_uint256"
          },
          {
            "astId": 16691,
            "contract": "contracts/FSushiBar.sol:FSushiBar",
            "label": "power",
            "offset": 0,
            "slot": "1",
            "type": "t_uint256"
          },
          {
            "astId": 16693,
            "contract": "contracts/FSushiBar.sol:FSushiBar",
            "label": "shares",
            "offset": 0,
            "slot": "2",
            "type": "t_uint256"
          }
        ],
        "numberOfBytes": "96"
      },
      "t_uint256": {
        "encoding": "inplace",
        "label": "uint256",
        "numberOfBytes": "32"
      }
    }
  }
}