{
  "address": "0xDdb5A925EcD6A9e2DbAA2afE4AEA6e21dC8B4Cc7",
  "abi": [
    {
      "inputs": [
        {
          "internalType": "address",
          "name": "_flashStrategyFactory",
          "type": "address"
        },
        {
          "internalType": "address",
          "name": "_sousChef",
          "type": "address"
        }
      ],
      "stateMutability": "nonpayable",
      "type": "constructor"
    },
    {
      "inputs": [
        {
          "internalType": "uint256",
          "name": "pid",
          "type": "uint256"
        },
        {
          "internalType": "uint256",
          "name": "amountLP",
          "type": "uint256"
        },
        {
          "internalType": "address[]",
          "name": "path0",
          "type": "address[]"
        },
        {
          "internalType": "address[]",
          "name": "path1",
          "type": "address[]"
        },
        {
          "internalType": "uint256",
          "name": "amountMin",
          "type": "uint256"
        },
        {
          "internalType": "address",
          "name": "beneficiary",
          "type": "address"
        },
        {
          "internalType": "uint256",
          "name": "stakeDuration",
          "type": "uint256"
        },
        {
          "internalType": "uint256",
          "name": "deadline",
          "type": "uint256"
        },
        {
          "internalType": "uint8",
          "name": "v",
          "type": "uint8"
        },
        {
          "internalType": "bytes32",
          "name": "r",
          "type": "bytes32"
        },
        {
          "internalType": "bytes32",
          "name": "s",
          "type": "bytes32"
        }
      ],
      "name": "cook",
      "outputs": [],
      "stateMutability": "nonpayable",
      "type": "function"
    },
    {
      "inputs": [],
      "name": "flashStrategyFactory",
      "outputs": [
        {
          "internalType": "address",
          "name": "",
          "type": "address"
        }
      ],
      "stateMutability": "view",
      "type": "function"
    },
    {
      "inputs": [],
      "name": "flpTokenFactory",
      "outputs": [
        {
          "internalType": "address",
          "name": "",
          "type": "address"
        }
      ],
      "stateMutability": "view",
      "type": "function"
    },
    {
      "inputs": [],
      "name": "sousChef",
      "outputs": [
        {
          "internalType": "address",
          "name": "",
          "type": "address"
        }
      ],
      "stateMutability": "view",
      "type": "function"
    }
  ],
  "transactionHash": "0xbde0874b3e9098b1db29018f241704b1854454da017afb77b7c2b3b22d340a80",
  "args": [
    "0x77b8E6e577fd3e90553dbF205D3854a649414741",
    "0x991660133a987F21c6225027C33B9B5680272850"
  ],
  "numDeployments": 1,
  "solcInputHash": "5395ab54c5fbf29d1661c74f09b9674f",
  "bytecode": "0x60e08060405234610102576040816108b2803803809161001f8285610107565b83398101031261010257600460206100418161003a85610140565b9401610140565b6080849052604051633e1875ed60e01b815290939092839182906001600160a01b03165afa9081156100f6576000916100ba575b5060a05260c05260405161075d9081610155823960805181610591015260a05181818160de0152818161021501526105d6015260c0518181816102fb01526106190152f35b906020823d82116100ee575b816100d360209383610107565b810103126100eb57506100e590610140565b38610075565b80fd5b3d91506100c6565b6040513d6000823e3d90fd5b600080fd5b601f909101601f19168101906001600160401b0382119082101761012a57604052565b634e487b7160e01b600052604160045260246000fd5b51906001600160a01b03821682036101025756fe608080604052600436101561001357600080fd5b600090813560e01c908163233b256414610605575080633e1875ed146105c0578063654e6d771461057b5763db2441af1461004d57600080fd5b34610387576101603660031901126103875767ffffffffffffffff9060443582811161057757610081903690600401610648565b90926064359081116105735761009b903690600401610648565b909360a435926001600160a01b038416840361047a57610104359060ff8216820361056f57604051632ddefbf960e01b81526004803590820152966020886024817f00000000000000000000000000000000000000000000000000000000000000006001600160a01b03165afa978815610564578798610528575b506001600160a01b0388163b15610524579186939160ff610175610163956040519889978897631690af8760e11b895260243560048a015261012060248a015261012496878a01916106de565b878103600319016044890152916106de565b92608435606486015230608486015260e43560a48601521660c48401523560e48301526101443561010483015203818360018060a01b0389165af180156103d35761050d575b506040516370a0823160e01b81523060048201529192839290602090829060249082906001600160a01b03165afa9081156103d35783916104db575b50604051633750db2960e21b815260048035908201526020816024817f00000000000000000000000000000000000000000000000000000000000000006001600160a01b03165afa9081156104d0578491610491575b506040516395da4c3160e01b81526001600160a01b03919091169190602081600481865afa8015610486578591829161043d575b50604051634360451760e01b81526004810194909452602484019290925260c43560448401526001600160a01b03938416606484015260848301819052919261016092849260a492849291165af190811561038a5782916103de575b506040516358e6837360e11b815260048035908201526020816024817f00000000000000000000000000000000000000000000000000000000000000006001600160a01b03165afa9081156103d3578391610399575b506001600160a01b031690813b15610395578291604483926040519485938492636e553f6560e01b845260048401523360248401525af1801561038a576103775750f35b6103809061067e565b6103875780f35b80fd5b6040513d84823e3d90fd5b5050fd5b90506020813d6020116103cb575b816103b4602093836106a8565b81010312610395576103c5906106ca565b38610333565b3d91506103a7565b6040513d85823e3d90fd5b9050610160813d61016011610435575b816103fc61016093836106a8565b810103126104325761040d816106ca565b5061041a602082016106ca565b5060a0810151801515036104325760e00151386102dd565b50fd5b3d91506103ee565b9150506020813d60201161047e575b81610459602093836106a8565b8101031261047a57610160928561047160a4936106ca565b91945091610281565b8480fd5b3d915061044c565b6040513d87823e3d90fd5b90506020813d6020116104c8575b816104ac602093836106a8565b810103126104c3576104bd906106ca565b3861024d565b505050fd5b3d915061049f565b6040513d86823e3d90fd5b90506020813d602011610505575b816104f6602093836106a8565b810103126103955751386101f7565b3d91506104e9565b6020939261051c60249261067e565b9293506101bb565b8680fd5b9097506020813d60201161055c575b81610544602093836106a8565b8101031261052457610555906106ca565b9638610116565b3d9150610537565b6040513d89823e3d90fd5b8580fd5b8280fd5b5080fd5b50346103875780600319360112610387576040517f00000000000000000000000000000000000000000000000000000000000000006001600160a01b03168152602090f35b50346103875780600319360112610387576040517f00000000000000000000000000000000000000000000000000000000000000006001600160a01b03168152602090f35b9050346105775781600319360112610577577f00000000000000000000000000000000000000000000000000000000000000006001600160a01b03168152602090f35b9181601f840112156106795782359167ffffffffffffffff8311610679576020808501948460051b01011161067957565b600080fd5b67ffffffffffffffff811161069257604052565b634e487b7160e01b600052604160045260246000fd5b90601f8019910116810190811067ffffffffffffffff82111761069257604052565b51906001600160a01b038216820361067957565b9190808252602080920192916000805b8382106106fd57505050505090565b9091929394853560018060a01b0381168091036105735781528301948301939291600101906106ee56fea26469706673582212202486757f60b84e3ea8f0548af36b460a5a54c1699b0af629c8ebce93da23fcc364736f6c63430008110033",
  "devdoc": {
    "kind": "dev",
    "methods": {},
    "version": 1
  },
  "userdoc": {
    "kind": "user",
    "methods": {},
    "version": 1
  },
  "storageLayout": {
    "storage": [],
    "types": null
  }
}