{
  "address": "0x5Dad3a9329dcB0066aDE66A108271a5Fab0B0B09",
  "abi": [
    {
      "inputs": [
        {
          "internalType": "address",
          "name": "_flashStrategyFactory",
          "type": "address"
        },
        {
          "internalType": "address",
          "name": "_sousChef",
          "type": "address"
        }
      ],
      "stateMutability": "nonpayable",
      "type": "constructor"
    },
    {
      "inputs": [
        {
          "internalType": "uint256",
          "name": "pid",
          "type": "uint256"
        },
        {
          "internalType": "uint256",
          "name": "amountLP",
          "type": "uint256"
        },
        {
          "internalType": "address[]",
          "name": "path0",
          "type": "address[]"
        },
        {
          "internalType": "address[]",
          "name": "path1",
          "type": "address[]"
        },
        {
          "internalType": "uint256",
          "name": "amountMin",
          "type": "uint256"
        },
        {
          "internalType": "address",
          "name": "beneficiary",
          "type": "address"
        },
        {
          "internalType": "uint256",
          "name": "stakeDuration",
          "type": "uint256"
        },
        {
          "internalType": "uint256",
          "name": "deadline",
          "type": "uint256"
        },
        {
          "internalType": "uint8",
          "name": "v",
          "type": "uint8"
        },
        {
          "internalType": "bytes32",
          "name": "r",
          "type": "bytes32"
        },
        {
          "internalType": "bytes32",
          "name": "s",
          "type": "bytes32"
        }
      ],
      "name": "cook",
      "outputs": [],
      "stateMutability": "nonpayable",
      "type": "function"
    },
    {
      "inputs": [],
      "name": "flashStrategyFactory",
      "outputs": [
        {
          "internalType": "address",
          "name": "",
          "type": "address"
        }
      ],
      "stateMutability": "view",
      "type": "function"
    },
    {
      "inputs": [],
      "name": "flpTokenFactory",
      "outputs": [
        {
          "internalType": "address",
          "name": "",
          "type": "address"
        }
      ],
      "stateMutability": "view",
      "type": "function"
    },
    {
      "inputs": [],
      "name": "sousChef",
      "outputs": [
        {
          "internalType": "address",
          "name": "",
          "type": "address"
        }
      ],
      "stateMutability": "view",
      "type": "function"
    }
  ],
  "transactionHash": "0x5232c5e9272c0e98611f3d03b29ef4ca5fef01982344f50ce3f95720f3da7b89",
  "args": [
    "0x77b8E6e577fd3e90553dbF205D3854a649414741",
    "0x991660133a987F21c6225027C33B9B5680272850"
  ],
  "numDeployments": 3,
  "solcInputHash": "bfd273f3f6929dd49149f418a13ffc00",
  "bytecode": "0x60e08060405234620001165760408162000df580380380916200002382856200011b565b8339810103126200011657600460206200004a81620000428562000155565b940162000155565b6080849052604051633e1875ed60e01b815290939092839182906001600160a01b03165afa9081156200010a57600091620000c6575b5060a05260c052604051610c8a90816200016b82396080518181816103de01526109ef015260a05181818160e10152610a34015260c0518181816105230152610a770152f35b906020823d821162000101575b81620000e2602093836200011b565b81010312620000fe5750620000f79062000155565b3862000080565b80fd5b3d9150620000d3565b6040513d6000823e3d90fd5b600080fd5b601f909101601f19168101906001600160401b038211908210176200013f57604052565b634e487b7160e01b600052604160045260246000fd5b51906001600160a01b0382168203620001165756fe608080604052600436101561001357600080fd5b600090813560e01c908163233b256414610a63575080633e1875ed14610a1e578063654e6d77146109d95763db2441af1461004d57600080fd5b346105fc576101603660031901126105fc5760443567ffffffffffffffff81116109d55761007f903690600401610aa6565b60643567ffffffffffffffff81116109d15761009f903690600401610aa6565b60a43592916001600160a01b03841684036109cd57610104359460ff8616860361084057604051632ddefbf960e01b81526004803590820152936020856024817f00000000000000000000000000000000000000000000000000000000000000006001600160a01b03165afa948515610881578895610991575b50604051635fcbd28560e01b8152966020886004816001600160a01b038a165afa97881561094a578998610955575b506001600160a01b0388163b1561090e5760ff6040519163d505accf60e01b8352336004840152306024840152602435604484015260e43560648401521660848201526101243560a48201526101443560c4820152888160e4818360018060a01b038d165af1801561094a57610937575b50604051966323b872dd60e01b60208901523360248901523060448901526024356064890152606488528760a081011067ffffffffffffffff60a08a0111176109125760a0880160e089011067ffffffffffffffff60e08a0111176109125760e08801604052602060a08901527f5361666545524332303a206c6f772d6c6576656c2063616c6c206661696c656460c08901528880895160208b018260018060a01b0386165af197893d1561092857503d9867ffffffffffffffff8a11610912576040518b9a6102b59360a09161029a601f8201601f191660200185610af0565b83523d8d602085013e5b01916001600160a01b038516610b80565b80518061088c575b505060405163095ea7b360e01b81526001600160a01b03878116600483015260248035908301529091602091839160449183918d91165af1801561088157610844575b506001600160a01b0385163b156108405761035687936103449560405196879586956202e03560e31b8752602435600488015260c0602488015260c4870191610b33565b84810360031901604486015291610b33565b608480356064840152309083015260e43560a48301520381836001600160a01b0387165af19081156106cd578491610828575b50506040516370a0823160e01b8152306004820152906020826024816001600160a01b0385165afa9182156106cd5784926107f4575b50604051633750db2960e21b81526004803590820152906020826024817f00000000000000000000000000000000000000000000000000000000000000006001600160a01b03165afa91821561064c5785926107b8575b5060405163095ea7b360e01b81526001600160a01b038381166004830152602482018590529091602091839160449183918a91165af1801561064c5761077f575b506040516395da4c3160e01b8152916001600160a01b039190911690602083600481855afa90811561064c578593849261073b575b509060a4610160926040519586938492634360451760e01b8452876004850152602484015260c435604484015230606484015281608484015260018060a01b03165af19182156106cd5784926106d8575b5060206004916040519283809263a8694e5760e01b82525afa9081156106cd578491610693575b506040516358e6837360e11b81526004803590820152906020826024817f00000000000000000000000000000000000000000000000000000000000000006001600160a01b03165afa91821561064c578592610657575b5060405163095ea7b360e01b81526001600160a01b038381166004830152602482018590529091602091839160449183918a91165af1801561064c5761060f575b506001600160a01b031691823b1561060a57604051636e553f6560e01b815260048101929092526001600160a01b031660248201529082908290604490829084905af180156105ff576105ec5750f35b6105f590610adc565b6105fc5780f35b80fd5b6040513d84823e3d90fd5b505050fd5b6020813d602011610644575b8161062860209383610af0565b810103126106405761063990610b26565b503861059c565b8480fd5b3d915061061b565b6040513d87823e3d90fd5b9091506020813d60201161068b575b8161067360209383610af0565b810103126106405761068490610b12565b903861055b565b3d9150610666565b90506020813d6020116106c5575b816106ae60209383610af0565b8101031261060a576106bf90610b12565b38610504565b3d91506106a1565b6040513d86823e3d90fd5b909150610160813d61016011610733575b816106f76101609383610af0565b8101031261060a57602060e08261070f600494610b12565b5061071b838201610b12565b5061072860a08201610b26565b5001519291506104dd565b3d91506106e9565b915092506020813d602011610777575b8161075860209383610af0565b8101031261064057849260a461077061016093610b12565b925061048c565b3d915061074b565b6020813d6020116107b0575b8161079860209383610af0565b81010312610640576107a990610b26565b5038610457565b3d915061078b565b9091506020813d6020116107ec575b816107d460209383610af0565b81010312610640576107e590610b12565b9038610416565b3d91506107c7565b9091506020813d602011610820575b8161081060209383610af0565b8101031261060a575190386103bf565b3d9150610803565b61083190610adc565b61083c578238610389565b5050fd5b8680fd5b6020813d602011610879575b8161085d60209383610af0565b810103126108755761086e90610b26565b5038610300565b8780fd5b3d9150610850565b6040513d8a823e3d90fd5b81929950906020918101031261090e5760206108a89101610b26565b156108b657879638806102bd565b60405162461bcd60e51b815260206004820152602a60248201527f5361666545524332303a204552433230206f7065726174696f6e20646964206e6044820152691bdd081cdd58d8d9595960b21b6064820152608490fd5b8880fd5b634e487b7160e01b600052604160045260246000fd5b986102b59160a06060916102a4565b61094390989198610adc565b96386101b9565b6040513d8b823e3d90fd5b9097506020813d602011610989575b8161097160209383610af0565b8101031261090e5761098290610b12565b9638610148565b3d9150610964565b9094506020813d6020116109c5575b816109ad60209383610af0565b81010312610875576109be90610b12565b9338610119565b3d91506109a0565b8580fd5b8380fd5b5080fd5b50346105fc57806003193601126105fc576040517f00000000000000000000000000000000000000000000000000000000000000006001600160a01b03168152602090f35b50346105fc57806003193601126105fc576040517f00000000000000000000000000000000000000000000000000000000000000006001600160a01b03168152602090f35b9050346109d557816003193601126109d5577f00000000000000000000000000000000000000000000000000000000000000006001600160a01b03168152602090f35b9181601f84011215610ad75782359167ffffffffffffffff8311610ad7576020808501948460051b010111610ad757565b600080fd5b67ffffffffffffffff811161091257604052565b90601f8019910116810190811067ffffffffffffffff82111761091257604052565b51906001600160a01b0382168203610ad757565b51908115158203610ad757565b9190808252602080920192916000805b838210610b5257505050505090565b9091929394853560018060a01b038116809103610b7c578152830194830193929160010190610b43565b8280fd5b91929015610be25750815115610b94575090565b3b15610b9d5790565b60405162461bcd60e51b815260206004820152601d60248201527f416464726573733a2063616c6c20746f206e6f6e2d636f6e74726163740000006044820152606490fd5b825190915015610bf55750805190602001fd5b6040519062461bcd60e51b82528160208060048301528251908160248401526000935b828510610c3b575050604492506000838284010152601f80199101168101030190fd5b8481018201518686016044015293810193859350610c1856fea26469706673582212203dd76f5cfea0ddc5540e308bdb8471e311a3ee22a0e141f1f04cd857ea3a55bf64736f6c63430008110033",
  "devdoc": {
    "kind": "dev",
    "methods": {},
    "version": 1
  },
  "userdoc": {
    "kind": "user",
    "methods": {},
    "version": 1
  },
  "storageLayout": {
    "storage": [],
    "types": null
  }
}