{
  "address": "0x4909B5a6Fbd15884fed4F5D1Af829AF5e9bc8e28",
  "abi": [
    {
      "inputs": [
        {
          "internalType": "address",
          "name": "_fSushi",
          "type": "address"
        }
      ],
      "stateMutability": "nonpayable",
      "type": "constructor"
    },
    {
      "inputs": [],
      "name": "Claimed",
      "type": "error"
    },
    {
      "inputs": [],
      "name": "Expired",
      "type": "error"
    },
    {
      "inputs": [],
      "name": "InvalidId",
      "type": "error"
    },
    {
      "inputs": [],
      "name": "InvalidName",
      "type": "error"
    },
    {
      "inputs": [],
      "name": "InvalidSignature",
      "type": "error"
    },
    {
      "inputs": [],
      "name": "NotEOA",
      "type": "error"
    },
    {
      "anonymous": false,
      "inputs": [
        {
          "indexed": true,
          "internalType": "uint256",
          "name": "id",
          "type": "uint256"
        },
        {
          "indexed": false,
          "internalType": "string",
          "name": "name",
          "type": "string"
        }
      ],
      "name": "AddAirdrop",
      "type": "event"
    },
    {
      "anonymous": false,
      "inputs": [
        {
          "indexed": true,
          "internalType": "uint256",
          "name": "id",
          "type": "uint256"
        },
        {
          "indexed": false,
          "internalType": "string",
          "name": "name",
          "type": "string"
        },
        {
          "indexed": true,
          "internalType": "address",
          "name": "account",
          "type": "address"
        },
        {
          "indexed": false,
          "internalType": "uint256",
          "name": "amount",
          "type": "uint256"
        },
        {
          "indexed": true,
          "internalType": "address",
          "name": "beneficiary",
          "type": "address"
        }
      ],
      "name": "Claim",
      "type": "event"
    },
    {
      "anonymous": false,
      "inputs": [
        {
          "indexed": true,
          "internalType": "address",
          "name": "previousOwner",
          "type": "address"
        },
        {
          "indexed": true,
          "internalType": "address",
          "name": "newOwner",
          "type": "address"
        }
      ],
      "name": "OwnershipTransferred",
      "type": "event"
    },
    {
      "anonymous": false,
      "inputs": [
        {
          "indexed": true,
          "internalType": "address",
          "name": "signer",
          "type": "address"
        }
      ],
      "name": "UpdateSigner",
      "type": "event"
    },
    {
      "inputs": [
        {
          "internalType": "string",
          "name": "name",
          "type": "string"
        }
      ],
      "name": "addAirdrop",
      "outputs": [],
      "stateMutability": "nonpayable",
      "type": "function"
    },
    {
      "inputs": [
        {
          "internalType": "uint256",
          "name": "",
          "type": "uint256"
        }
      ],
      "name": "airdrops",
      "outputs": [
        {
          "internalType": "string",
          "name": "",
          "type": "string"
        }
      ],
      "stateMutability": "view",
      "type": "function"
    },
    {
      "inputs": [
        {
          "internalType": "uint256",
          "name": "id",
          "type": "uint256"
        },
        {
          "internalType": "uint256",
          "name": "amount",
          "type": "uint256"
        },
        {
          "internalType": "address",
          "name": "beneficiary",
          "type": "address"
        },
        {
          "internalType": "uint256",
          "name": "deadline",
          "type": "uint256"
        },
        {
          "internalType": "uint8",
          "name": "v",
          "type": "uint8"
        },
        {
          "internalType": "bytes32",
          "name": "r",
          "type": "bytes32"
        },
        {
          "internalType": "bytes32",
          "name": "s",
          "type": "bytes32"
        }
      ],
      "name": "claim",
      "outputs": [],
      "stateMutability": "nonpayable",
      "type": "function"
    },
    {
      "inputs": [],
      "name": "fSushi",
      "outputs": [
        {
          "internalType": "address",
          "name": "",
          "type": "address"
        }
      ],
      "stateMutability": "view",
      "type": "function"
    },
    {
      "inputs": [
        {
          "internalType": "uint256",
          "name": "",
          "type": "uint256"
        },
        {
          "internalType": "address",
          "name": "",
          "type": "address"
        }
      ],
      "name": "hasClaimed",
      "outputs": [
        {
          "internalType": "bool",
          "name": "",
          "type": "bool"
        }
      ],
      "stateMutability": "view",
      "type": "function"
    },
    {
      "inputs": [],
      "name": "owner",
      "outputs": [
        {
          "internalType": "address",
          "name": "",
          "type": "address"
        }
      ],
      "stateMutability": "view",
      "type": "function"
    },
    {
      "inputs": [],
      "name": "renounceOwnership",
      "outputs": [],
      "stateMutability": "nonpayable",
      "type": "function"
    },
    {
      "inputs": [],
      "name": "signer",
      "outputs": [
        {
          "internalType": "address",
          "name": "",
          "type": "address"
        }
      ],
      "stateMutability": "view",
      "type": "function"
    },
    {
      "inputs": [
        {
          "internalType": "address",
          "name": "newOwner",
          "type": "address"
        }
      ],
      "name": "transferOwnership",
      "outputs": [],
      "stateMutability": "nonpayable",
      "type": "function"
    },
    {
      "inputs": [
        {
          "internalType": "address",
          "name": "_signer",
          "type": "address"
        }
      ],
      "name": "updateSigner",
      "outputs": [],
      "stateMutability": "nonpayable",
      "type": "function"
    }
  ],
  "transactionHash": "0x8c21f604a6ad5f7cc2bd8485e4a170ef7171376feb441f29eb6ea66311a6c702",
  "args": [
    "0xA24390c62186A8D265344e914F0Fd962B81b5F13"
  ],
  "numDeployments": 1,
  "solcInputHash": "1301040b3e29a708d700fa7d6c60a4f3",
  "bytecode": "0x60a0346100ad57601f610d8338819003918201601f19168301916001600160401b038311848410176100b2578084926020946040528339810103126100ad57516001600160a01b039081811681036100ad576000543360018060a01b0319821617600055604051923391167f8be0079c531659141344cd1fd0a4f28419497f9722a3daafe3b4186f6b6457e0600080a3608052610cba90816100c9823960805181818160a601526103300152f35b600080fd5b634e487b7160e01b600052604160045260246000fdfe608060408181526004918236101561001657600080fd5b600092833560e01c918263238ac9331461089e5750816360db508214610837578163715018a6146107da578163873f6f9e1461078f5781638da5cb5b14610767578163964f169f146104fb578163a7ecd37e1461047c578163be6d456d146101aa578163f2fde38b146100d9575063ffe066a01461009357600080fd5b346100d557816003193601126100d557517f00000000000000000000000000000000000000000000000000000000000000006001600160a01b03168152602090f35b5080fd5b9050346101a65760203660031901126101a6576100f4610a68565b906100fd610a83565b6001600160a01b03918216928315610154575050600054826bffffffffffffffffffffffff60a01b821617600055167f8be0079c531659141344cd1fd0a4f28419497f9722a3daafe3b4186f6b6457e0600080a380f35b906020608492519162461bcd60e51b8352820152602660248201527f4f776e61626c653a206e6577206f776e657220697320746865207a65726f206160448201526564647265737360d01b6064820152fd5b8280fd5b919050346101a65760e03660031901126101a6576001600160a01b0360443581811693919282359290916024359186820361047857606435916084359660ff88168803610474578342116104645761020a610204886108c3565b50610982565b9384511561045457878b5260209860038a52878c20338d528a5260ff888d20541661044457888c5260038a52878c20338d528a52878c20600160ff198254161790558751918a8301944686523060601b8a8501528a60548501523360601b60748501528860888501526bffffffffffffffffffffffff199060601b1660a884015260bc83015260bc825260e082019067ffffffffffffffff94838310868411176104315761014090838b5284519020936101008101947f19457468657265756d205369676e6564204d6573736167653a0a333200000000865261011c820152603c84520182811086821117610431579161031d9391610315938b5260c4359260a43592519020610bf5565b919091610adb565b81806001541691160361042157908992917f000000000000000000000000000000000000000000000000000000000000000016803b1561041d57839060448b895196879384926340c10f1960e01b8452888401528a60248401525af18015610413576103c9575b505050906103bc83927fc2eac975c2f4047bfaa9dd76299eeb66f396b6319f42d23e8cab68da856d1606945193808552840190610a28565b948201528033940390a480f35b829993991161040057508352956103bc7fc2eac975c2f4047bfaa9dd76299eeb66f396b6319f42d23e8cab68da856d160638610384565b634e487b7160e01b835260419052602482fd5b86513d8c823e3d90fd5b8380fd5b8551638baa579f60e01b81528390fd5b634e487b7160e01b8e526041875260248efd5b87516317968e5360e31b81528590fd5b8651631bf4348160e31b81528490fd5b8551630407b05b60e31b81528390fd5b8980fd5b8780fd5b9050346101a65760203660031901126101a657610497610a68565b916104a0610a83565b823b6104ee575050600180546001600160a01b0319166001600160a01b039290921691821790557fc58fcf255cfb5f40bd578a618869378f650ef76609640fa0818a31e0c6e7102a8280a280f35b51635d04968b60e11b8152fd5b919050346101a65760208060031936011261041d5782359167ffffffffffffffff9384841161076357366023850112156107635783810135948086116107505786835195601f1997610554878a601f840116018961094a565b80885236602482840101116101a657806024889301838a013787010152610579610a83565b84511561074157600254956801000000000000000087101561072e576001908188016002556105a7886108c3565b94909461071c57875193841161070957506105c28454610910565b601f81116106c3575b508590601f841160011461063f575091808061062e95937fc12e4b6437c52da6c4e758009d138bb1dd2712192c9d439ef53a0ae64c15ba51999897958c93610634575b501b916000199060031b1c19161790555b51928284938452830190610a28565b0390a280f35b89015192503861060e565b8392931690848a52868a20918a5b8181106106ae575091839161062e96947fc12e4b6437c52da6c4e758009d138bb1dd2712192c9d439ef53a0ae64c15ba519a9998969410610695575b5050811b01905561061f565b88015160001960f88460031b161c191690553880610689565b8983015184559285019291880191880161064d565b848a52868a20601f850160051c8101918886106106ff575b601f0160051c019083905b8281106106f45750506105cb565b8b81550183906106e6565b90915081906106db565b634e487b7160e01b8a5260419052602489fd5b634e487b7160e01b8a52899052602489fd5b634e487b7160e01b885260418352602488fd5b50905163430f13b360e01b8152fd5b634e487b7160e01b875260418252602487fd5b8580fd5b5050346100d557816003193601126100d557905490516001600160a01b039091168152602090f35b9050346101a657816003193601126101a6576024356001600160a01b038116919082900361041d5760209360ff92849235825260038652828220908252855220541690519015158152f35b83346108345780600319360112610834576107f3610a83565b80546001600160a01b03198116825581906001600160a01b03167f8be0079c531659141344cd1fd0a4f28419497f9722a3daafe3b4186f6b6457e08280a380f35b80fd5b9050346101a65760203660031901126101a657356002548110156101a65761088790600261089a94527f405787fa12a823e0f2b7631cc41b3ba8828b3321ca811111fa75cd3aa3bb5ace01610982565b9051918291602083526020830190610a28565b0390f35b8490346100d557816003193601126100d5576001546001600160a01b03168152602090f35b6002548110156108fa5760026000527f405787fa12a823e0f2b7631cc41b3ba8828b3321ca811111fa75cd3aa3bb5ace0190600090565b634e487b7160e01b600052603260045260246000fd5b90600182811c92168015610940575b602083101461092a57565b634e487b7160e01b600052602260045260246000fd5b91607f169161091f565b90601f8019910116810190811067ffffffffffffffff82111761096c57604052565b634e487b7160e01b600052604160045260246000fd5b906040519182600082549261099684610910565b908184526001948581169081600014610a0557506001146109c2575b50506109c09250038361094a565b565b9093915060005260209081600020936000915b8183106109ed5750506109c0935082010138806109b2565b855488840185015294850194879450918301916109d5565b9150506109c094506020925060ff191682840152151560051b82010138806109b2565b919082519283825260005b848110610a54575050826000602080949584010152601f8019910116010190565b602081830181015184830182015201610a33565b600435906001600160a01b0382168203610a7e57565b600080fd5b6000546001600160a01b03163303610a9757565b606460405162461bcd60e51b815260206004820152602060248201527f4f776e61626c653a2063616c6c6572206973206e6f7420746865206f776e65726044820152fd5b6005811015610bdf5780610aec5750565b60018103610b395760405162461bcd60e51b815260206004820152601860248201527f45434453413a20696e76616c6964207369676e617475726500000000000000006044820152606490fd5b60028103610b865760405162461bcd60e51b815260206004820152601f60248201527f45434453413a20696e76616c6964207369676e6174757265206c656e677468006044820152606490fd5b600314610b8f57565b60405162461bcd60e51b815260206004820152602260248201527f45434453413a20696e76616c6964207369676e6174757265202773272076616c604482015261756560f01b6064820152608490fd5b634e487b7160e01b600052602160045260246000fd5b9291907f7fffffffffffffffffffffffffffffff5d576e7357a4501ddfe92f46681b20a08311610c785791608094939160ff602094604051948552168484015260408301526060820152600093849182805260015afa15610c6b5781516001600160a01b03811615610c65579190565b50600190565b50604051903d90823e3d90fd5b5050505060009060039056fea2646970667358221220ecf93f4153121f89f70313a33443e48a888edf5f2cc710152bd305adb181822264736f6c63430008110033",
  "devdoc": {
    "kind": "dev",
    "methods": {
      "owner()": {
        "details": "Returns the address of the current owner."
      },
      "renounceOwnership()": {
        "details": "Leaves the contract without owner. It will not be possible to call `onlyOwner` functions anymore. Can only be called by the current owner. NOTE: Renouncing ownership will leave the contract without an owner, thereby removing any functionality that is only available to the owner."
      },
      "transferOwnership(address)": {
        "details": "Transfers ownership of the contract to a new account (`newOwner`). Can only be called by the current owner."
      }
    },
    "version": 1
  },
  "userdoc": {
    "kind": "user",
    "methods": {},
    "version": 1
  },
  "storageLayout": {
    "storage": [
      {
        "astId": 7,
        "contract": "contracts/FSushiAirdrops.sol:FSushiAirdrops",
        "label": "_owner",
        "offset": 0,
        "slot": "0",
        "type": "t_address"
      },
      {
        "astId": 8718,
        "contract": "contracts/FSushiAirdrops.sol:FSushiAirdrops",
        "label": "signer",
        "offset": 0,
        "slot": "1",
        "type": "t_address"
      },
      {
        "astId": 8721,
        "contract": "contracts/FSushiAirdrops.sol:FSushiAirdrops",
        "label": "airdrops",
        "offset": 0,
        "slot": "2",
        "type": "t_array(t_string_storage)dyn_storage"
      },
      {
        "astId": 8727,
        "contract": "contracts/FSushiAirdrops.sol:FSushiAirdrops",
        "label": "hasClaimed",
        "offset": 0,
        "slot": "3",
        "type": "t_mapping(t_uint256,t_mapping(t_address,t_bool))"
      }
    ],
    "types": {
      "t_address": {
        "encoding": "inplace",
        "label": "address",
        "numberOfBytes": "20"
      },
      "t_array(t_string_storage)dyn_storage": {
        "base": "t_string_storage",
        "encoding": "dynamic_array",
        "label": "string[]",
        "numberOfBytes": "32"
      },
      "t_bool": {
        "encoding": "inplace",
        "label": "bool",
        "numberOfBytes": "1"
      },
      "t_mapping(t_address,t_bool)": {
        "encoding": "mapping",
        "key": "t_address",
        "label": "mapping(address => bool)",
        "numberOfBytes": "32",
        "value": "t_bool"
      },
      "t_mapping(t_uint256,t_mapping(t_address,t_bool))": {
        "encoding": "mapping",
        "key": "t_uint256",
        "label": "mapping(uint256 => mapping(address => bool))",
        "numberOfBytes": "32",
        "value": "t_mapping(t_address,t_bool)"
      },
      "t_string_storage": {
        "encoding": "bytes",
        "label": "string",
        "numberOfBytes": "32"
      },
      "t_uint256": {
        "encoding": "inplace",
        "label": "uint256",
        "numberOfBytes": "32"
      }
    }
  }
}