{
  "address": "0xe4CC24Fa7bbcCD83cF10a20760B1b842Cb750421",
  "abi": [
    {
      "inputs": [
        {
          "internalType": "address",
          "name": "_flashStrategyFactory",
          "type": "address"
        }
      ],
      "stateMutability": "nonpayable",
      "type": "constructor"
    },
    {
      "inputs": [],
      "name": "InvalidPid",
      "type": "error"
    },
    {
      "inputs": [],
      "name": "InvalidTimestamp",
      "type": "error"
    },
    {
      "anonymous": false,
      "inputs": [
        {
          "indexed": true,
          "internalType": "uint256",
          "name": "pid",
          "type": "uint256"
        }
      ],
      "name": "AddPool",
      "type": "event"
    },
    {
      "anonymous": false,
      "inputs": [
        {
          "indexed": true,
          "internalType": "address",
          "name": "previousOwner",
          "type": "address"
        },
        {
          "indexed": true,
          "internalType": "address",
          "name": "newOwner",
          "type": "address"
        }
      ],
      "name": "OwnershipTransferred",
      "type": "event"
    },
    {
      "anonymous": false,
      "inputs": [
        {
          "indexed": true,
          "internalType": "uint256",
          "name": "pid",
          "type": "uint256"
        },
        {
          "indexed": false,
          "internalType": "uint256",
          "name": "weightPoints",
          "type": "uint256"
        },
        {
          "indexed": false,
          "internalType": "uint256",
          "name": "totalWeightPoints",
          "type": "uint256"
        }
      ],
      "name": "UpdateWeight",
      "type": "event"
    },
    {
      "inputs": [
        {
          "internalType": "uint256",
          "name": "pid",
          "type": "uint256"
        },
        {
          "internalType": "uint256",
          "name": "points",
          "type": "uint256"
        }
      ],
      "name": "addPool",
      "outputs": [],
      "stateMutability": "nonpayable",
      "type": "function"
    },
    {
      "inputs": [
        {
          "internalType": "uint256",
          "name": "",
          "type": "uint256"
        }
      ],
      "name": "checkpoint",
      "outputs": [],
      "stateMutability": "nonpayable",
      "type": "function"
    },
    {
      "inputs": [],
      "name": "flashStrategyFactory",
      "outputs": [
        {
          "internalType": "address",
          "name": "",
          "type": "address"
        }
      ],
      "stateMutability": "view",
      "type": "function"
    },
    {
      "inputs": [],
      "name": "owner",
      "outputs": [
        {
          "internalType": "address",
          "name": "",
          "type": "address"
        }
      ],
      "stateMutability": "view",
      "type": "function"
    },
    {
      "inputs": [
        {
          "internalType": "uint256",
          "name": "pid",
          "type": "uint256"
        }
      ],
      "name": "relativeWeight",
      "outputs": [
        {
          "internalType": "uint256",
          "name": "",
          "type": "uint256"
        }
      ],
      "stateMutability": "view",
      "type": "function"
    },
    {
      "inputs": [
        {
          "internalType": "uint256",
          "name": "pid",
          "type": "uint256"
        },
        {
          "internalType": "uint256",
          "name": "timestamp",
          "type": "uint256"
        }
      ],
      "name": "relativeWeightAt",
      "outputs": [
        {
          "internalType": "uint256",
          "name": "",
          "type": "uint256"
        }
      ],
      "stateMutability": "view",
      "type": "function"
    },
    {
      "inputs": [],
      "name": "renounceOwnership",
      "outputs": [],
      "stateMutability": "nonpayable",
      "type": "function"
    },
    {
      "inputs": [],
      "name": "totalWeightPoints",
      "outputs": [
        {
          "internalType": "uint256",
          "name": "",
          "type": "uint256"
        }
      ],
      "stateMutability": "view",
      "type": "function"
    },
    {
      "inputs": [
        {
          "internalType": "uint256",
          "name": "timestamp",
          "type": "uint256"
        }
      ],
      "name": "totalWeightPointsAt",
      "outputs": [
        {
          "internalType": "uint256",
          "name": "",
          "type": "uint256"
        }
      ],
      "stateMutability": "view",
      "type": "function"
    },
    {
      "inputs": [],
      "name": "totalWeightPointsLength",
      "outputs": [
        {
          "internalType": "uint256",
          "name": "",
          "type": "uint256"
        }
      ],
      "stateMutability": "view",
      "type": "function"
    },
    {
      "inputs": [
        {
          "internalType": "address",
          "name": "newOwner",
          "type": "address"
        }
      ],
      "name": "transferOwnership",
      "outputs": [],
      "stateMutability": "nonpayable",
      "type": "function"
    },
    {
      "inputs": [
        {
          "internalType": "uint256",
          "name": "pid",
          "type": "uint256"
        },
        {
          "internalType": "uint256",
          "name": "points",
          "type": "uint256"
        }
      ],
      "name": "updateWeight",
      "outputs": [],
      "stateMutability": "nonpayable",
      "type": "function"
    },
    {
      "inputs": [
        {
          "internalType": "uint256",
          "name": "pid",
          "type": "uint256"
        }
      ],
      "name": "weightPoints",
      "outputs": [
        {
          "internalType": "uint256",
          "name": "",
          "type": "uint256"
        }
      ],
      "stateMutability": "view",
      "type": "function"
    },
    {
      "inputs": [
        {
          "internalType": "uint256",
          "name": "pid",
          "type": "uint256"
        },
        {
          "internalType": "uint256",
          "name": "timestamp",
          "type": "uint256"
        }
      ],
      "name": "weightPointsAt",
      "outputs": [
        {
          "internalType": "uint256",
          "name": "",
          "type": "uint256"
        }
      ],
      "stateMutability": "view",
      "type": "function"
    },
    {
      "inputs": [
        {
          "internalType": "uint256",
          "name": "pid",
          "type": "uint256"
        }
      ],
      "name": "weightPointsLength",
      "outputs": [
        {
          "internalType": "uint256",
          "name": "",
          "type": "uint256"
        }
      ],
      "stateMutability": "view",
      "type": "function"
    }
  ],
  "transactionHash": "0xf9cccae986964b7e75ad3ae6f2c7e48fa0b9033711b32197367766fd1b3f20cb",
  "args": [
    "0x77b8E6e577fd3e90553dbF205D3854a649414741"
  ],
  "numDeployments": 1,
  "solcInputHash": "8c17aa148ad85bf7109c5d60e7cb8c68",
  "bytecode": "0x60a0346100ae57601f610b9038819003918201601f19168301916001600160401b038311848410176100b3578084926020946040528339810103126100ae57516001600160a01b039081811681036100ae576000543360018060a01b0319821617600055604051923391167f8be0079c531659141344cd1fd0a4f28419497f9722a3daafe3b4186f6b6457e0600080a3608052610ac690816100ca823960805181818161035501526104420152f35b600080fd5b634e487b7160e01b600052604160045260246000fdfe60406080815260048036101561001457600080fd5b600091823560e01c80631067c670146104be5780631270091514610499578063332c145314610471578063654e6d771461042d5780636d89dbc51461031e578063715018a6146102c45780638da5cb5b1461029c578063af62147e14610254578063b90732261461022c578063c2972baf1461020c578063db528784146101f0578063e1573573146101cc578063e98e88e2146101a9578063ed64bab2146101915763f2fde38b146100c557600080fd5b3461018d57602036600319011261018d576001600160a01b03823581811693919290849003610189576100f66104f9565b831561013757505082546001600160a01b0319811683178455167f8be0079c531659141344cd1fd0a4f28419497f9722a3daafe3b4186f6b6457e08380a380f35b906020608492519162461bcd60e51b8352820152602660248201527f4f776e61626c653a206e6577206f776e657220697320746865207a65726f206160448201526564647265737360d01b6064820152fd5b8480fd5b8280fd5b83346101a65760203660031901126101a65780f35b80fd5b8382346101c857816003193601126101c8576020906001549051908152f35b5080fd5b8382346101c857816003193601126101c8576020906101e961085d565b9051908152f35b8382346101c8576020906101e9610206366104de565b906105d9565b5082346101a65760203660031901126101a657506101e960209235610571565b50903461018d57602036600319011261018d57816020936101e9923581526002855220610888565b508290346101c857610265366104de565b9161026e6104f9565b8184526002602052808420541561028d57509061028a91610639565b80f35b516387e8068360e01b81528490fd5b8382346101c857816003193601126101c857905490516001600160a01b039091168152602090f35b83346101a657806003193601126101a6576102dd6104f9565b80546001600160a01b03198116825581906001600160a01b03167f8be0079c531659141344cd1fd0a4f28419497f9722a3daafe3b4186f6b6457e08280a380f35b508290346101c85761032f366104de565b8251633750db2960e21b81528581018390529092906001600160a01b03906020816024817f000000000000000000000000000000000000000000000000000000000000000086165afa9081156104235786916103bd575b50161561028d5750908161028a927f6f92874181ba07c8e988c53b7d3c2fdcff7154a3500137bf6a350ebac65c08708580a2610639565b905060203d811161041c575b601f8101601f1916820167ffffffffffffffff811183821017610409576020918391865281010312610405575181811681036104055787610386565b8580fd5b634e487b7160e01b885260418952602488fd5b503d6103c9565b83513d88823e3d90fd5b8382346101c857816003193601126101c857517f00000000000000000000000000000000000000000000000000000000000000006001600160a01b03168152602090f35b50903461018d57602036600319011261018d5760209282913581526002845220549051908152f35b8382346101c8576101e9602092826104b0366104de565b9290815260028652206109a8565b5082346101a65760203660031901126101a657506101e9602092356108ae565b60409060031901126104f4576004359060243590565b600080fd5b6000546001600160a01b0316330361050d57565b606460405162461bcd60e51b815260206004820152602060248201527f4f776e61626c653a2063616c6c6572206973206e6f7420746865206f776e65726044820152fd5b811561055b570490565b634e487b7160e01b600052601260045260246000fd5b61057961085d565b9081156105d25760005260026020526105956040600020610888565b90670de0b6b3a7640000918281029281840414901517156105bc576105b991610551565b90565b634e487b7160e01b600052601160045260246000fd5b5050600090565b6105e2826108ae565b9182156105ff5761059591600052600260205260406000206109a8565b505050600090565b6040810190811067ffffffffffffffff82111761062357604052565b634e487b7160e01b600052604160045260246000fd5b9190916000928184526002602052604090610655828620610888565b838652600260205282862083519061066c82610607565b83825260208201914283528154926801000000000000000093848110156107dd5761069e906001948582018155610841565b9290926107c95751825551908201556106b561085d565b928484018094116107b55783039283116107a1578451916106d583610607565b838352602083019142835280549182101561078d578082018082558210156107795790817fb10e2d527612073b26eecdfd717e6a320cf44b4afac2b0732d9fcbe2b7fa0cf793927f513245e08b45fcbe5e7a55e76c2457005348de0847518a9b772e4a01dca11a3a999a9b521b9251837fb10e2d527612073b26eecdfd717e6a320cf44b4afac2b0732d9fcbe2b7fa0cf601555191015582519182526020820152a2565b634e487b7160e01b8a52603260045260248afd5b634e487b7160e01b8a52604160045260248afd5b634e487b7160e01b88526011600452602488fd5b634e487b7160e01b89526011600452602489fd5b634e487b7160e01b8b5260048b905260248bfd5b634e487b7160e01b8b52604160045260248bfd5b60015481101561082b57600160005260011b7fb10e2d527612073b26eecdfd717e6a320cf44b4afac2b0732d9fcbe2b7fa0cf60190600090565b634e487b7160e01b600052603260045260246000fd5b805482101561082b5760005260206000209060011b0190600090565b60015460008115610883575060001981019081116105bc5761087e906107f1565b505490565b905090565b8054600081156108a8575060001981019081116105bc5761087e91610841565b91505090565b8042106109965760019081549081156105ff57600019908183019283116105bc5780846108da856107f1565b500154111561098a57836000527fb10e2d527612073b26eecdfd717e6a320cf44b4afac2b0732d9fcbe2b7fa0cf754116105ff5760009291905b8382116109275750505061087e906107f1565b838203831c8203610937816107f1565b5094602060405161094781610607565b87548082529787015491018190524281036109655750505050505090565b9091929394955042116000146109815750915b90929192610914565b92508101610978565b505061087e91506107f1565b60405163b7d0949760e01b8152600490fd5b8142106109965780549081156105ff576000198281019283116105bc576109cf8383610841565b5093806001809601541115610a8457826000526020908582600020015411610a7a57906000949293915b858311610a0e57505050509061087e91610841565b858394959303851c8403610a228185610841565b509682604051610a3181610607565b8954808252998901549101819052428103610a5157505050505050505090565b9091929394959697504211600014610a715750935b9190949293946109f9565b94508201610a66565b5050505050600090565b505061087e925061084156fea2646970667358221220418a8360d5fc49b5729801628965f64c3f9da45cc6682bba666e3f923577f3f064736f6c63430008110033",
  "devdoc": {
    "kind": "dev",
    "methods": {
      "owner()": {
        "details": "Returns the address of the current owner."
      },
      "renounceOwnership()": {
        "details": "Leaves the contract without owner. It will not be possible to call `onlyOwner` functions anymore. Can only be called by the current owner. NOTE: Renouncing ownership will leave the contract without an owner, thereby removing any functionality that is only available to the owner."
      },
      "transferOwnership(address)": {
        "details": "Transfers ownership of the contract to a new account (`newOwner`). Can only be called by the current owner."
      }
    },
    "version": 1
  },
  "userdoc": {
    "kind": "user",
    "methods": {},
    "version": 1
  },
  "storageLayout": {
    "storage": [
      {
        "astId": 7,
        "contract": "contracts/FSushiKitchen.sol:FSushiKitchen",
        "label": "_owner",
        "offset": 0,
        "slot": "0",
        "type": "t_address"
      },
      {
        "astId": 10824,
        "contract": "contracts/FSushiKitchen.sol:FSushiKitchen",
        "label": "_totalWeightPoints",
        "offset": 0,
        "slot": "1",
        "type": "t_array(t_struct(Snapshot)17187_storage)dyn_storage"
      },
      {
        "astId": 10830,
        "contract": "contracts/FSushiKitchen.sol:FSushiKitchen",
        "label": "_weightPoints",
        "offset": 0,
        "slot": "2",
        "type": "t_mapping(t_uint256,t_array(t_struct(Snapshot)17187_storage)dyn_storage)"
      }
    ],
    "types": {
      "t_address": {
        "encoding": "inplace",
        "label": "address",
        "numberOfBytes": "20"
      },
      "t_array(t_struct(Snapshot)17187_storage)dyn_storage": {
        "base": "t_struct(Snapshot)17187_storage",
        "encoding": "dynamic_array",
        "label": "struct Snapshots.Snapshot[]",
        "numberOfBytes": "32"
      },
      "t_mapping(t_uint256,t_array(t_struct(Snapshot)17187_storage)dyn_storage)": {
        "encoding": "mapping",
        "key": "t_uint256",
        "label": "mapping(uint256 => struct Snapshots.Snapshot[])",
        "numberOfBytes": "32",
        "value": "t_array(t_struct(Snapshot)17187_storage)dyn_storage"
      },
      "t_struct(Snapshot)17187_storage": {
        "encoding": "inplace",
        "label": "struct Snapshots.Snapshot",
        "members": [
          {
            "astId": 17184,
            "contract": "contracts/FSushiKitchen.sol:FSushiKitchen",
            "label": "value",
            "offset": 0,
            "slot": "0",
            "type": "t_uint256"
          },
          {
            "astId": 17186,
            "contract": "contracts/FSushiKitchen.sol:FSushiKitchen",
            "label": "timestamp",
            "offset": 0,
            "slot": "1",
            "type": "t_uint256"
          }
        ],
        "numberOfBytes": "64"
      },
      "t_uint256": {
        "encoding": "inplace",
        "label": "uint256",
        "numberOfBytes": "32"
      }
    }
  }
}