{
  "address": "0x991660133a987F21c6225027C33B9B5680272850",
  "abi": [
    {
      "inputs": [
        {
          "internalType": "address",
          "name": "_fSushi",
          "type": "address"
        },
        {
          "internalType": "address",
          "name": "_restaurant",
          "type": "address"
        },
        {
          "internalType": "address",
          "name": "_kitchen",
          "type": "address"
        },
        {
          "internalType": "address",
          "name": "_flashStrategyFactory",
          "type": "address"
        }
      ],
      "stateMutability": "nonpayable",
      "type": "constructor"
    },
    {
      "inputs": [],
      "name": "BillCreated",
      "type": "error"
    },
    {
      "inputs": [],
      "name": "Forbidden",
      "type": "error"
    },
    {
      "inputs": [],
      "name": "InvalidKitchen",
      "type": "error"
    },
    {
      "inputs": [],
      "name": "InvalidRestaurant",
      "type": "error"
    },
    {
      "anonymous": false,
      "inputs": [],
      "name": "Checkpoint",
      "type": "event"
    },
    {
      "anonymous": false,
      "inputs": [
        {
          "indexed": true,
          "internalType": "uint256",
          "name": "pid",
          "type": "uint256"
        },
        {
          "indexed": true,
          "internalType": "address",
          "name": "bill",
          "type": "address"
        }
      ],
      "name": "CreateBill",
      "type": "event"
    },
    {
      "anonymous": false,
      "inputs": [
        {
          "indexed": true,
          "internalType": "address",
          "name": "previousOwner",
          "type": "address"
        },
        {
          "indexed": true,
          "internalType": "address",
          "name": "newOwner",
          "type": "address"
        }
      ],
      "name": "OwnershipTransferred",
      "type": "event"
    },
    {
      "anonymous": false,
      "inputs": [
        {
          "indexed": true,
          "internalType": "address",
          "name": "kitchen",
          "type": "address"
        }
      ],
      "name": "UpdateKitchen",
      "type": "event"
    },
    {
      "anonymous": false,
      "inputs": [
        {
          "indexed": true,
          "internalType": "address",
          "name": "restaurant",
          "type": "address"
        }
      ],
      "name": "UpdateRestaurant",
      "type": "event"
    },
    {
      "inputs": [],
      "name": "checkpoint",
      "outputs": [],
      "stateMutability": "nonpayable",
      "type": "function"
    },
    {
      "inputs": [
        {
          "internalType": "uint256",
          "name": "pid",
          "type": "uint256"
        }
      ],
      "name": "createBill",
      "outputs": [
        {
          "internalType": "address",
          "name": "bill",
          "type": "address"
        }
      ],
      "stateMutability": "nonpayable",
      "type": "function"
    },
    {
      "inputs": [],
      "name": "fSushi",
      "outputs": [
        {
          "internalType": "address",
          "name": "",
          "type": "address"
        }
      ],
      "stateMutability": "view",
      "type": "function"
    },
    {
      "inputs": [],
      "name": "flashStrategyFactory",
      "outputs": [
        {
          "internalType": "address",
          "name": "",
          "type": "address"
        }
      ],
      "stateMutability": "view",
      "type": "function"
    },
    {
      "inputs": [
        {
          "internalType": "uint256",
          "name": "",
          "type": "uint256"
        }
      ],
      "name": "getBill",
      "outputs": [
        {
          "internalType": "address",
          "name": "",
          "type": "address"
        }
      ],
      "stateMutability": "view",
      "type": "function"
    },
    {
      "inputs": [],
      "name": "kitchen",
      "outputs": [
        {
          "internalType": "address",
          "name": "",
          "type": "address"
        }
      ],
      "stateMutability": "view",
      "type": "function"
    },
    {
      "inputs": [],
      "name": "lastCheckpoint",
      "outputs": [
        {
          "internalType": "uint256",
          "name": "",
          "type": "uint256"
        }
      ],
      "stateMutability": "view",
      "type": "function"
    },
    {
      "inputs": [
        {
          "internalType": "uint256",
          "name": "pid",
          "type": "uint256"
        },
        {
          "internalType": "address",
          "name": "to",
          "type": "address"
        },
        {
          "internalType": "uint256",
          "name": "amount",
          "type": "uint256"
        }
      ],
      "name": "mintFSushi",
      "outputs": [],
      "stateMutability": "nonpayable",
      "type": "function"
    },
    {
      "inputs": [],
      "name": "owner",
      "outputs": [
        {
          "internalType": "address",
          "name": "",
          "type": "address"
        }
      ],
      "stateMutability": "view",
      "type": "function"
    },
    {
      "inputs": [
        {
          "internalType": "uint256",
          "name": "pid",
          "type": "uint256"
        }
      ],
      "name": "predictBillAddress",
      "outputs": [
        {
          "internalType": "address",
          "name": "bill",
          "type": "address"
        }
      ],
      "stateMutability": "view",
      "type": "function"
    },
    {
      "inputs": [],
      "name": "renounceOwnership",
      "outputs": [],
      "stateMutability": "nonpayable",
      "type": "function"
    },
    {
      "inputs": [],
      "name": "restaurant",
      "outputs": [
        {
          "internalType": "address",
          "name": "",
          "type": "address"
        }
      ],
      "stateMutability": "view",
      "type": "function"
    },
    {
      "inputs": [],
      "name": "startWeek",
      "outputs": [
        {
          "internalType": "uint256",
          "name": "",
          "type": "uint256"
        }
      ],
      "stateMutability": "view",
      "type": "function"
    },
    {
      "inputs": [
        {
          "internalType": "address",
          "name": "newOwner",
          "type": "address"
        }
      ],
      "name": "transferOwnership",
      "outputs": [],
      "stateMutability": "nonpayable",
      "type": "function"
    },
    {
      "inputs": [
        {
          "internalType": "address",
          "name": "_kitchen",
          "type": "address"
        }
      ],
      "name": "updateKitchen",
      "outputs": [],
      "stateMutability": "nonpayable",
      "type": "function"
    },
    {
      "inputs": [
        {
          "internalType": "address",
          "name": "_restaurant",
          "type": "address"
        }
      ],
      "name": "updateRestaurant",
      "outputs": [],
      "stateMutability": "nonpayable",
      "type": "function"
    },
    {
      "inputs": [
        {
          "internalType": "uint256",
          "name": "",
          "type": "uint256"
        }
      ],
      "name": "weeklyRewards",
      "outputs": [
        {
          "internalType": "uint256",
          "name": "",
          "type": "uint256"
        }
      ],
      "stateMutability": "view",
      "type": "function"
    }
  ],
  "transactionHash": "0xd568f91ce95df43f9f418ab36144dbec0628157fe39645f68b6276caaaaa5c2d",
  "args": [
    "0xA24390c62186A8D265344e914F0Fd962B81b5F13",
    "0x8f77a1f6D36c6F3005B33E4071733C7057463Ca5",
    "0xe4CC24Fa7bbcCD83cF10a20760B1b842Cb750421",
    "0x77b8E6e577fd3e90553dbF205D3854a649414741"
  ],
  "numDeployments": 3,
  "solcInputHash": "5fa9b4677f0dd6b8fed89c830d246fe8",
  "bytecode": "0x610100346200023357601f620030f938819003918201601f1916830192916001600160401b03918285118486101762000238578160809285926040978852833981010312620002335762000053826200024e565b62000061602084016200024e565b906200007d6060620000758787016200024e565b95016200024e565b60009485549260018060a01b0319913383861617885588519460018060a01b039687938492833391167f8be0079c531659141344cd1fd0a4f28419497f9722a3daafe3b4186f6b6457e08d80a3608052168360015416176001551690600254161760025560a05262093a8042048060c052600181018082116200021f576005558452600460205269065a4da25d3016c000008585205561219880820190828210858311176200020b5790829162000f618339039084f0801562000201571691823b15620001fe5783519163da35a26f60e01b8352816004840152816024840152818360448183885af18015620001f457620001cd575b50505060e05251610cfd908162000264823960805181818160f10152818161045b0152610b02015260a0518181816104fb015261060b015260c05181818161020d0152610a95015260e05181818161056601526106650152f35b8211620001e05750825238808062000173565b634e487b7160e01b81526041600452602490fd5b85513d84823e3d90fd5b80fd5b84513d85823e3d90fd5b634e487b7160e01b86526041600452602486fd5b634e487b7160e01b86526011600452602486fd5b600080fd5b634e487b7160e01b600052604160045260246000fd5b51906001600160a01b0382168203620002335756fe6040608081526004908136101561001557600080fd5b600091823560e01c9081630616752c146108aa5781631c8f0789146105c4578163376370ae1461052a578163654e6d77146104e65781636edb5aed14610417578163715018a6146103bd5781638da5cb5b14610395578163af364c051461036e578163b1cd06e61461033b578163ba0909dd14610312578163c2c4c5c1146102f3578163d32e81a5146102d4578163e87c6b0d14610259578163ed16805814610230578163eddf2d21146101f5578163f2fde38b14610124575063ffe066a0146100de57600080fd5b34610120578160031936011261012057517f00000000000000000000000000000000000000000000000000000000000000006001600160a01b03168152602090f35b5080fd5b9050346101f15760203660031901126101f15761013f610925565b9061014861093b565b6001600160a01b0391821692831561019f575050600054826bffffffffffffffffffffffff60a01b821617600055167f8be0079c531659141344cd1fd0a4f28419497f9722a3daafe3b4186f6b6457e0600080a380f35b906020608492519162461bcd60e51b8352820152602660248201527f4f776e61626c653a206e6577206f776e657220697320746865207a65726f206160448201526564647265737360d01b6064820152fd5b8280fd5b505034610120578160031936011261012057602090517f00000000000000000000000000000000000000000000000000000000000000008152f35b50503461012057816003193601126101205760015490516001600160a01b039091168152602090f35b9050346101f15760203660031901126101f157610274610925565b61027c61093b565b6001600160a01b03169182156102c7575050600180546001600160a01b031916821790557f9b116eaa3d43b05c40d187b925c7adf53e0f5445bb842937ecd2348adcce3a178280a280f35b51633f78b32f60e11b8152fd5b5050346101205781600319360112610120576020906005549051908152f35b833461030f578060031936011261030f5761030c6109fe565b80f35b80fd5b50503461012057816003193601126101205760025490516001600160a01b039091168152602090f35b9050346101f15760203660031901126101f15735825260036020908152918190205490516001600160a01b039091168152f35b9050346101f15760203660031901126101f157602092818392358252845220549051908152f35b505034610120578160031936011261012057905490516001600160a01b039091168152602090f35b833461030f578060031936011261030f576103d661093b565b600080546001600160a01b0319811682556001600160a01b03167f8be0079c531659141344cd1fd0a4f28419497f9722a3daafe3b4186f6b6457e08280a380f35b838334610120576060366003190112610120576024356001600160a01b0381811692918390036104e15784358452600360205280828520541633036104d1579383947f00000000000000000000000000000000000000000000000000000000000000001692833b156104cd576044859283855196879485936340c10f1960e01b8552840152833560248401525af19081156104c457506104b45750f35b6104bd90610993565b61030f5780f35b513d84823e3d90fd5b8480fd5b8151631dd2188d60e31b81528590fd5b600080fd5b505034610120578160031936011261012057517f00000000000000000000000000000000000000000000000000000000000000006001600160a01b03168152602090f35b82843461030f57602036600319011261030f5750605560436020938351903060388301526f5af43d82803e903d91602b57fd5bf3ff60248301527f00000000000000000000000000000000000000000000000000000000000000006014830152733d602d80600a3d3981f3363d3d373d3d3d363d7382523560588201526037600c8201206078820152012090519060018060a01b03168152f35b82843461030f576020928360031936011261012057803580835260038552838320546001600160a01b039290831661089c578451633750db2960e21b8152818101839052927f000000000000000000000000000000000000000000000000000000000000000081168785602481845afa9485156107d35786918991839761087d575b5083871615610820575b5050506e5af43d82803e903d91602b57fd5bf37f0000000000000000000000000000000000000000000000000000000000000000763d602d80600a3d3981f3363d3d373d3d3d363d7300000062ffffff8260881c1617875260781b17875280836037600988f5169384156107dd578782918489518094819363a8694e5760e01b8352165afa9081156107d35786916107a6575b50843b156107a257865163da35a26f60e01b8152928301849052166024820152838160448183875af1801561079857610765575b507ffe2bb598f3e02fe595703967f99b828e4ad5d5414e67c91f702e33bc4c5cae6d83948284955260038752808620846bffffffffffffffffffffffff60a01b825416179055519480a38152f35b82936107917ffe2bb598f3e02fe595703967f99b828e4ad5d5414e67c91f702e33bc4c5cae6d92610993565b9350610717565b85513d86823e3d90fd5b8580fd5b6107c69150883d8a116107cc575b6107be81836109bd565b8101906109df565b886106e3565b503d6107b4565b87513d88823e3d90fd5b865162461bcd60e51b8152808401899052601760248201527f455243313136373a2063726561746532206661696c65640000000000000000006044820152606490fd5b9091929550602488518094819363a9a00b8b60e01b835288888401525af1908115610873578591610856575b5092848789610650565b61086d9150873d89116107cc576107be81836109bd565b8761084c565b86513d87823e3d90fd5b610895919750823d84116107cc576107be81836109bd565b958a610646565b84516301e39a9760e61b8152fd5b9050346101f15760203660031901126101f1576108c5610925565b6108cd61093b565b6001600160a01b0316918215610918575050600280546001600160a01b031916821790557ff31c4869a9ef8dc42660d3730d22d14c8bb7cee703b1955ff59af6807051131a8280a280f35b5163613f10e760e01b8152fd5b600435906001600160a01b03821682036104e157565b6000546001600160a01b0316330361094f57565b606460405162461bcd60e51b815260206004820152602060248201527f4f776e61626c653a2063616c6c6572206973206e6f7420746865206f776e65726044820152fd5b67ffffffffffffffff81116109a757604052565b634e487b7160e01b600052604160045260246000fd5b90601f8019910116810190811067ffffffffffffffff8211176109a757604052565b908160209103126104e157516001600160a01b03811681036104e15790565b60055462093a80420490600190818301809311610a6b5780831115610a815760005b6102008110610a32575b505050600555565b80820190818311610a6b5781851115610a655781610a508593610a93565b90600052600460205260406000205501610a20565b50610a2a565b634e487b7160e01b600052601160045260246000fd5b505050565b91908203918211610a6b57565b7f000000000000000000000000000000000000000000000000000000000000000060028101808211610a6b57808310610cb6578214610ca7576000198201828111610a6b576040516327aecfff60e21b8152600481018290526000916020906001600160a01b038284602481887f000000000000000000000000000000000000000000000000000000000000000086165af1938415610c9c57908592918395610c66575b50906024849260015416916040519485938492636037e00360e01b845260048401525af1918215610c5b578492610c2d575b5050811590818015610c24575b15610bc9575050506002610b8d82935b8495610a86565b11610b9757505090565b909150606382029180830460631490151715610bb557506064900490565b634e487b7160e01b81526011600452602490fd5b610bd39083610a86565b9068a2a15d09519be000009180830292830403610c1057610bfc57600291610b8d910493610b86565b634e487b7160e01b83526012600452602483fd5b634e487b7160e01b84526011600452602484fd5b50808310610b76565b90809250813d8311610c54575b610c4481836109bd565b810103126101f157513880610b69565b503d610c3a565b6040513d86823e3d90fd5b8480929650819394503d8311610c95575b610c8181836109bd565b810103126104cd5751928491906024610b37565b503d610c77565b6040513d87823e3d90fd5b505068a2a15d09519be0000090565b50505069065a4da25d3016c000009056fea2646970667358221220280cef84225da674cf6dfa68abb0b6a37fba69093935e071e1845d0735ec434d64736f6c63430008110033608080604052346100165761217c908161001c8239f35b600080fdfe6040608081526004908136101561001557600080fd5b600091823560e01c908162f714ce14610ad057816306fdde0314610a38578163095ea7b314610a07578163103222a7146109cf57816318160ddd146109b0578163233b25641461098757816323b872dd14610907578163313ce567146108eb5781633644e515146108c75781635fab6541146108865781636e553f651461072257816370a08231146106ea5781637ecebe00146106b257816395d89b41146105d15781639799b4e7146105a95781639f3b598214610571578163a8694e5714610548578163a9059cbb14610515578163b07b709b146104f3578163bd834345146104bb578163c2c4c5c1146104a2578163d32e81a514610483578163d505accf14610304578163da35a26f146101dc57508063dd62ed3e14610194578063ef5cfb8c1461016c5763f10684541461014b57600080fd5b34610168578160031936011261016857602090600e549051908152f35b5080fd5b82346101915760203660031901126101915761018e610189610c41565b611976565b80f35b80fd5b5034610168578060031936011261016857806020926101b1610c41565b6101b9610c26565b6001600160a01b039182168352600b865283832091168252845220549051908152f35b9050346103005781600319360112610300576101f6610c26565b83549160ff8360081c1615928380946102f3575b80156102dc575b156102825760ff198116600117865561023392919084610271575b5035610dfe565b61023b575080f35b60207f7f26b83ff96e1f2b6a682f133852f6798a09c465da95921460cefb38474024989161ff001984541684555160018152a180f35b61ffff19166101011786553861022c565b845162461bcd60e51b8152602081840152602e60248201527f496e697469616c697a61626c653a20636f6e747261637420697320616c72656160448201526d191e481a5b9a5d1a585b1a5e995960921b6064820152608490fd5b50303b1580156102115750600160ff821614610211565b50600160ff82161061020a565b8280fd5b8383346101685760e03660031901126101685761031f610c41565b610327610c26565b906044359260643560843560ff8116810361047f5781421161046f576001600160a01b03848116808952600c6020528489208054919492939290600019831461045c5760018301905585519060208201927f6e71edae12b1b97f4d1f60370fef10105fa2faae0126114a169c64845d6126c984528688840152858a1660608401528a608084015260a083015260c082015260c0815260e0810181811067ffffffffffffffff82111761044957865251902061042891610420916103e8611dc6565b91875191602083019361190160f01b8552602284015260428301526042825261041082610cbb565b60c4359260a43592519020611f47565b919091611e2d565b160361043a575061018e9394506120a1565b51638baa579f60e01b81528590fd5b634e487b7160e01b8b5260418c5260248bfd5b634e487b7160e01b8b5260118c5260248bfd5b8251630407b05b60e31b81528890fd5b8680fd5b5050346101685781600319360112610168576020906011549051908152f35b833461019157806003193601126101915761018e6114bf565b5050346101685760203660031901126101685760209181906001600160a01b036104e3610c41565b1681526014845220549051908152f35b83346101915760203660031901126101915761018e610510610c41565b611595565b50503461016857806003193601126101685760209061053f610535610c41565b6024359033611fd6565b50505160018152f35b505034610168578160031936011261016857600f5490516001600160a01b039091168152602090f35b5050346101685760203660031901126101685760209181906001600160a01b03610599610c41565b1681526013845220549051908152f35b9050346103005760203660031901126103005760209282913581526010845220549051908152f35b505034610168578160031936011261016857805190826008546105f381610c57565b8085529160019180831690811561068a575060011461062d575b50505061061f82610629940383610d0f565b5191829182610d54565b0390f35b9450600885527ff3f7a9fe364faab93b216da50a3214154f22a0a2b415b23a84c8169e8b636ee35b8286106106725750505061061f826020610629958201019461060d565b80546020878701810191909152909501948101610655565b61062997508693506020925061061f94915060ff191682840152151560051b8201019461060d565b5050346101685760203660031901126101685760209181906001600160a01b036106da610c41565b168152600c845220549051908152f35b5050346101685760203660031901126101685760209181906001600160a01b03610712610c41565b168152600a845220549051908152f35b90503461030057816003193601126103005780359161073f610c26565b9161074933611595565b83610789575b50519182526001600160a01b03169033907fe31c7b8d08ee7db0afa68782e1028ef92305caeea8626633ad44d413e30f6b2f90602090a380f35b600f5482516323b872dd60e01b6020820152336024820152306044820152606480820187905281526001600160a01b0391821660a0820167ffffffffffffffff8111838210176108735785526107df9190611311565b338652600a6020526107f485848820546112ee565b338752600a6020528387205561080c856009546112ee565b908416918215610865575084610821916112ee565b600955808552600a602052818520848154019055847fddf252ad1be2c89b69c2b068fc378daa952ba7f163c4a11628f55a4df523b3ef60208451878152a33861074f565b8351630da30f6560e31b8152fd5b634e487b7160e01b895260418552602489fd5b50503461016857806003193601126101685760209181906001600160a01b036108ad610c41565b168152601284528181206024358252845220549051908152f35b5050346101685781600319360112610168576020906108e4611dc6565b9051908152f35b5050346101685781600319360112610168576020905160128152f35b5050346101685760603660031901126101685761053f602092610928610c41565b610930610c26565b90846044359360018060a01b038316808252600b895282822033835289526000198383205403610963575b505050611fd6565b8152600b885281812033825288522061097d8482546114b2565b905584388061095b565b505034610168578160031936011261016857600d5490516001600160a01b039091168152602090f35b5050346101685781600319360112610168576020906009549051908152f35b5050346101685760203660031901126101685760209181906001600160a01b036109f7610c41565b1681526015845220549051908152f35b505034610168578060031936011261016857602090610a31610a27610c41565b60243590336120a1565b5160018152f35b50503461016857816003193601126101685780519082600754610a5a81610c57565b8085529160019180831690811561068a5750600114610a855750505061061f82610629940383610d0f565b9450600785526000805160206121278339815191525b828610610ab85750505061061f826020610629958201019461060d565b80546020878701810191909152909501948101610a9b565b905034610300578160031936011261030057803591610aed610c26565b91610af733611595565b83610b37575b50519182526001600160a01b03169033907f56c54ba9bd38d8fd62012e42c7ee564519b09763c426d331b3661b537ead19b290602090a380f35b338552602090600a8252610b4e85848820546114b2565b338752600a835283872055610b65856009546114b2565b6009553315610c1857338652600a82528286205490858210610c0a57509084610c0492338852600a8352038387205584600954036009558583518681527fddf252ad1be2c89b69c2b068fc378daa952ba7f163c4a11628f55a4df523b3ef833392a3600f54835163a9059cbb60e01b928101929092526001600160a01b0385811660248401526044808401889052835216610bff82610cbb565b611311565b38610afd565b835163569d45cf60e11b8152fd5b8251630da30f6560e31b8152fd5b602435906001600160a01b0382168203610c3c57565b600080fd5b600435906001600160a01b0382168203610c3c57565b90600182811c92168015610c87575b6020831014610c7157565b634e487b7160e01b600052602260045260246000fd5b91607f1691610c66565b67ffffffffffffffff8111610ca557604052565b634e487b7160e01b600052604160045260246000fd5b6080810190811067ffffffffffffffff821117610ca557604052565b6040810190811067ffffffffffffffff821117610ca557604052565b60c0810190811067ffffffffffffffff821117610ca557604052565b90601f8019910116810190811067ffffffffffffffff821117610ca557604052565b60005b838110610d445750506000910152565b8181015183820152602001610d34565b60409160208252610d748151809281602086015260208686019101610d31565b601f01601f1916010190565b67ffffffffffffffff8111610ca557601f01601f191660200190565b602081830312610c3c5780519067ffffffffffffffff8211610c3c570181601f82011215610c3c578051610dcf81610d80565b92610ddd6040519485610d0f565b81845260208284010111610c3c57610dfb9160208085019101610d31565b90565b6001600160a01b039091169081156112ea5760409081516306fdde0360e01b8152600081600481875afa9081156112df576000916112c4575b50610e82603584518093740233630b9b41029bab9b434902134b636103337b91605d1b6020830152610e728151809260208686019101610d31565b8101036015810184520182610d0f565b82516395d89b4160e01b815290600082600481885afa9182156112b957600092611294575b50610ede602185518094600f60fb1b6020830152610ece8151809260208686019101610d31565b8101036001810185520183610d0f565b835191610eea83610cd7565b60018352603160f81b602084015260ff60005460081c161561123c57815167ffffffffffffffff8111610ca557610f22600754610c57565b601f81116111cf575b50806020601f821160011461115c57600091611151575b508160011b916000199060031b1c1916176007555b80519067ffffffffffffffff8211610ca5578190610f76600854610c57565b601f81116110e1575b50602090601f831160011461105b57600092611050575b50508160011b916000199060031b1c1916176008555b60208151910120906020815191012081600455806005554660025583519060208201927f8b73c3c69bb8fe3d512ecc4cf759cc79239f7b179b0ffacaa9a75d522b39400f9586855283015260608201524660808201523060a082015260a0815261101581610cf3565b5190206001556bffffffffffffffffffffffff60a01b91308360035416176003556006553382600d541617600d55600e55600f541617600f55565b015190503880610f96565b600860009081527ff3f7a9fe364faab93b216da50a3214154f22a0a2b415b23a84c8169e8b636ee39350601f198516905b8181106110c957509084600195949392106110b0575b505050811b01600855610fac565b015160001960f88460031b161c191690553880806110a2565b9293602060018192878601518155019501930161108c565b90915060086000527ff3f7a9fe364faab93b216da50a3214154f22a0a2b415b23a84c8169e8b636ee3601f840160051c81019160208510611147575b90601f859493920160051c01905b8181106111385750610f7f565b6000815584935060010161112b565b909150819061111d565b905083015138610f42565b915060076000526000805160206121278339815191526000925b601f19831684106111b7576001935082601f1981161061119e575b5050811b01600755610f57565b85015160001960f88460031b161c191690553880611191565b85810151825560209384019360019092019101611176565b6007600052601f820160051c600080516020612127833981519152019060208310611226575b601f0160051c60008051602061212783398151915201905b81811061121a5750610f2b565b6000815560010161120d565b60008051602061212783398151915291506111f5565b845162461bcd60e51b815260206004820152602b60248201527f496e697469616c697a61626c653a20636f6e7472616374206973206e6f74206960448201526a6e697469616c697a696e6760a81b6064820152608490fd5b6112b29192503d806000833e6112aa8183610d0f565b810190610d9c565b9038610ea7565b84513d6000823e3d90fd5b6112d991503d806000833e6112aa8183610d0f565b38610e37565b83513d6000823e3d90fd5b5050565b919082018092116112fb57565b634e487b7160e01b600052601160045260246000fd5b60018060a01b03169061138e60405161132981610cd7565b6020938482527f5361666545524332303a206c6f772d6c6576656c2063616c6c206661696c6564858301526000808587829751910182855af13d15611419573d9161137383610d80565b926113816040519485610d0f565b83523d868885013e61141d565b80518061139c575b50505050565b81849181010312610168578201519081159182150361019157506113c257808080611396565b6084906040519062461bcd60e51b82526004820152602a60248201527f5361666545524332303a204552433230206f7065726174696f6e20646964206e6044820152691bdd081cdd58d8d9595960b21b6064820152fd5b6060915b9192901561147f5750815115611431575090565b3b1561143a5790565b60405162461bcd60e51b815260206004820152601d60248201527f416464726573733a2063616c6c20746f206e6f6e2d636f6e74726163740000006044820152606490fd5b8251909150156114925750805190602001fd5b60405162461bcd60e51b81529081906114ae9060048301610d54565b0390fd5b919082039182116112fb57565b600d546000906001600160a01b0316803b156101685781809160046040518094819363c2c4c5c160e01b83525af1801561158a5761153e575b507f645b050443403fa34bc992a1617954b1b340b2fba133227ee552911014e7fbb39060115461152a8160095461163b565b4211611535575b80a1565b42601155611531565b67ffffffffffffffff8111611576576040527f645b050443403fa34bc992a1617954b1b340b2fba133227ee552911014e7fbb36114f8565b634e487b7160e01b82526041600452602482fd5b6040513d84823e3d90fd5b61159d6114bf565b60018060a01b03167f0103c5dd597c7d8e78094c4dc6d76c405761e7dcd771d4a4826d5e1c484d8c3f60008281526013602052604081205460126020526115f28160408420600a6020526040852054906117e2565b42116115fd575b80a2565b82815260136020524260408220556115f9565b9062093a80918281029281840414901517156112fb57565b818102929181159184041417156112fb57565b9081156112ea57801561175f575b62093a80918282049160005b6102008110611666575b5050505050565b61167081856112ee565b9061167a82611610565b868101908181116112fb57804211156117575781421061170457508390826116d4576116ac600194926116b2926114b2565b86611628565b9060005260106020526116cb60406000209182546112ee565b90555b01611655565b505085840284810487036112fb5760019260005260106020526116fd60406000209182546112ee565b90556116ce565b9150506117259291955061172b945080821160001461175057505b426114b2565b90611628565b90600052601060205261174460406000209182546112ee565b9055388080808061165f565b905061171f565b50505061165f565b50600d5460405163eddf2d2160e01b815290602090829060049082906001600160a01b03165afa80156117d6576000906117a3575b61179e9150611610565b611649565b6020823d82116117ce575b816117bb60209383610d0f565b81010312610191575061179e9051611794565b3d91506117ae565b6040513d6000823e3d90fd5b81156119715782156118f8575b62093a80908184049260005b610200811061180d575b505050505050565b61181781866112ee565b9061182182611610565b858101908181116112fb57804211156118f0578142106118a9575087908261187a5761185360019492611859926114b2565b85611628565b906000528460205261187160406000209182546112ee565b90555b016117fb565b505084830283810486036112fb57600192600052846020526118a260406000209182546112ee565b9055611874565b92979496506118cc955092936117259350919050808211156117505750426114b2565b916000526020526118e360406000209182546112ee565b9055388080808080611805565b505050611805565b600d5460405163eddf2d2160e01b8152919350602090829060049082906001600160a01b03165afa80156117d65760009061193e575b6119389150611610565b916117ef565b6020823d8211611969575b8161195660209383610d0f565b810103126101915750611938905161192e565b3d9150611949565b505050565b61197f33611595565b6000338152601560205260408120549062093a8042048214611971578115611d57575b600d54600e5460405163ba0909dd60e01b81529094909390916001600160a01b031690602085600481855afa948515611d4c578495611d08575b506001600160a01b0385163b15611d04576040516376b25d5960e11b8152600481018790528481602481836001600160a01b038b165af18015611cf957611ce6575b509390839484925b6102008410611b06575b50505050338252601560205262093a804204604083205582611a525750505050565b601460205260408220611a668482546112ee565b9055600d546001600160a01b031693843b15610300578291606483926040519485938492636edb5aed60e01b8452600484015260018060a01b0316988960248401528860448401525af1801561158a57611af2575b50506040519081527f9aa05b3d70a9e3e2f004f039648839560576334fb45c81f91b6db03ad9e2efc960203392a338808080611396565b611afc8291610c91565b6101915780611abb565b90919295611b1487846112ee565b8062093a8042041115611cdf5760405163af364c0560e01b81526004810182905290602082602481895afa918215611cd4578892611ca0575b5060018101808211611c8c578062093a8081020462093a801481151715611c8c576040516336d4a1e160e21b8152600481018c905262093a809190910260248201526020816044816001600160a01b0389165afa908115611c81578991611c4f575b508189526010928360205260408a205415600014611be25750505050611bd860019187906112ee565b9601929190611a26565b90611bec91611628565b91338952611c0f6012938460205260408b20848c5260205260408b205490611628565b9189526020526040882054918215611c3b575091670de0b6b3a7640000611bd8926001940404906112ee565b634e487b7160e01b60005260045260246000fd5b90506020813d602011611c79575b81611c6a60209383610d0f565b81010312610c3c575138611baf565b3d9150611c5d565b6040513d8b823e3d90fd5b634e487b7160e01b89526011600452602489fd5b9091506020813d602011611ccc575b81611cbc60209383610d0f565b81010312610c3c57519038611b4d565b3d9150611caf565b6040513d8a823e3d90fd5b5095611a30565b611cf290949194610c91565b9238611a1e565b6040513d87823e3d90fd5b8380fd5b9094506020813d602011611d44575b81611d2460209383610d0f565b81010312611d0457516001600160a01b0381168103611d045793386119dc565b3d9150611d17565b6040513d86823e3d90fd5b600d5460405163eddf2d2160e01b8152919250602090829060049082906001600160a01b03165afa90811561158a578291611d94575b50906119a2565b90506020813d602011611dbe575b81611daf60209383610d0f565b81010312610168575138611d8d565b3d9150611da2565b6003546001600160a01b0316301480611e22575b15611de55760015490565b6006546004546005546040519160208301938452604083015260608201524660808201523060a082015260a08152611e1c81610cf3565b51902090565b506002544614611dda565b6005811015611f315780611e3e5750565b60018103611e8b5760405162461bcd60e51b815260206004820152601860248201527f45434453413a20696e76616c6964207369676e617475726500000000000000006044820152606490fd5b60028103611ed85760405162461bcd60e51b815260206004820152601f60248201527f45434453413a20696e76616c6964207369676e6174757265206c656e677468006044820152606490fd5b600314611ee157565b60405162461bcd60e51b815260206004820152602260248201527f45434453413a20696e76616c6964207369676e6174757265202773272076616c604482015261756560f01b6064820152608490fd5b634e487b7160e01b600052602160045260246000fd5b9291907f7fffffffffffffffffffffffffffffff5d576e7357a4501ddfe92f46681b20a08311611fca5791608094939160ff602094604051948552168484015260408301526060820152600093849182805260015afa15611fbd5781516001600160a01b03811615611fb7579190565b50600190565b50604051903d90823e3d90fd5b50505050600090600390565b929192611fe281611595565b611feb82611595565b6001600160a01b0390811691821561208f5716801561207d57600091808352600a6020526040948584205481811061206c5781877fddf252ad1be2c89b69c2b068fc378daa952ba7f163c4a11628f55a4df523b3ef936020930396868152600a84528282822054019981878c93528982822055888152205551908152a39190565b865163569d45cf60e11b8152600490fd5b604051631e4ec46b60e01b8152600490fd5b604051636edaef2f60e11b8152600490fd5b6001600160a01b0390811691821561211457169182156121025760207f8c5be1e5ebec7d5bd14f71427d1e84f3dd0314c0f7b2291e5b200ac8c7c3b9259183600052600b8252604060002085600052825280604060002055604051908152a3565b604051635461585f60e01b8152600490fd5b6040516349e27cff60e01b8152600490fdfea66cc928b5edb82af9bd49922954155ab7b0942694bea4ce44661d9a8736c688a2646970667358221220fe7d6ce5186611d1e90b9dbcad6354eaf4b01cc2bc5f477bedd7d200375fdded64736f6c63430008110033",
  "devdoc": {
    "kind": "dev",
    "methods": {
      "checkpoint()": {
        "details": "if this function doesn't get called for 512 weeks (around 9.8 years) this contract breaks"
      },
      "owner()": {
        "details": "Returns the address of the current owner."
      },
      "renounceOwnership()": {
        "details": "Leaves the contract without owner. It will not be possible to call `onlyOwner` functions anymore. Can only be called by the current owner. NOTE: Renouncing ownership will leave the contract without an owner, thereby removing any functionality that is only available to the owner."
      },
      "transferOwnership(address)": {
        "details": "Transfers ownership of the contract to a new account (`newOwner`). Can only be called by the current owner."
      }
    },
    "version": 1
  },
  "userdoc": {
    "kind": "user",
    "methods": {
      "kitchen()": {
        "notice": "address of IFSushiKitchen"
      },
      "lastCheckpoint()": {
        "notice": "weeklyRewards is guaranteed to be correct before this week (exclusive)"
      },
      "restaurant()": {
        "notice": "address of IFSushiRestaurant"
      },
      "weeklyRewards(uint256)": {
        "notice": "how much rewards to be minted at the week"
      }
    },
    "version": 1
  },
  "storageLayout": {
    "storage": [
      {
        "astId": 7,
        "contract": "contracts/SousChef.sol:SousChef",
        "label": "_owner",
        "offset": 0,
        "slot": "0",
        "type": "t_address"
      },
      {
        "astId": 13710,
        "contract": "contracts/SousChef.sol:SousChef",
        "label": "restaurant",
        "offset": 0,
        "slot": "1",
        "type": "t_address"
      },
      {
        "astId": 13714,
        "contract": "contracts/SousChef.sol:SousChef",
        "label": "kitchen",
        "offset": 0,
        "slot": "2",
        "type": "t_address"
      },
      {
        "astId": 13719,
        "contract": "contracts/SousChef.sol:SousChef",
        "label": "getBill",
        "offset": 0,
        "slot": "3",
        "type": "t_mapping(t_uint256,t_address)"
      },
      {
        "astId": 13725,
        "contract": "contracts/SousChef.sol:SousChef",
        "label": "weeklyRewards",
        "offset": 0,
        "slot": "4",
        "type": "t_mapping(t_uint256,t_uint256)"
      },
      {
        "astId": 13729,
        "contract": "contracts/SousChef.sol:SousChef",
        "label": "lastCheckpoint",
        "offset": 0,
        "slot": "5",
        "type": "t_uint256"
      }
    ],
    "types": {
      "t_address": {
        "encoding": "inplace",
        "label": "address",
        "numberOfBytes": "20"
      },
      "t_mapping(t_uint256,t_address)": {
        "encoding": "mapping",
        "key": "t_uint256",
        "label": "mapping(uint256 => address)",
        "numberOfBytes": "32",
        "value": "t_address"
      },
      "t_mapping(t_uint256,t_uint256)": {
        "encoding": "mapping",
        "key": "t_uint256",
        "label": "mapping(uint256 => uint256)",
        "numberOfBytes": "32",
        "value": "t_uint256"
      },
      "t_uint256": {
        "encoding": "inplace",
        "label": "uint256",
        "numberOfBytes": "32"
      }
    }
  }
}