{
  "address": "0x3e55AC0E6724BBe8aB40a60771B5D60fC8e93404",
  "abi": [
    {
      "inputs": [
        {
          "internalType": "address",
          "name": "sushi",
          "type": "address"
        },
        {
          "internalType": "address",
          "name": "sushiBar",
          "type": "address"
        }
      ],
      "stateMutability": "nonpayable",
      "type": "constructor"
    },
    {
      "anonymous": false,
      "inputs": [
        {
          "indexed": true,
          "internalType": "address",
          "name": "owner",
          "type": "address"
        },
        {
          "indexed": true,
          "internalType": "address",
          "name": "spender",
          "type": "address"
        },
        {
          "indexed": false,
          "internalType": "uint256",
          "name": "value",
          "type": "uint256"
        }
      ],
      "name": "Approval",
      "type": "event"
    },
    {
      "anonymous": false,
      "inputs": [
        {
          "indexed": true,
          "internalType": "address",
          "name": "sender",
          "type": "address"
        },
        {
          "indexed": true,
          "internalType": "address",
          "name": "owner",
          "type": "address"
        },
        {
          "indexed": false,
          "internalType": "uint256",
          "name": "assets",
          "type": "uint256"
        },
        {
          "indexed": false,
          "internalType": "uint256",
          "name": "shares",
          "type": "uint256"
        }
      ],
      "name": "Deposit",
      "type": "event"
    },
    {
      "anonymous": false,
      "inputs": [
        {
          "indexed": true,
          "internalType": "address",
          "name": "from",
          "type": "address"
        },
        {
          "indexed": true,
          "internalType": "address",
          "name": "to",
          "type": "address"
        },
        {
          "indexed": false,
          "internalType": "uint256",
          "name": "value",
          "type": "uint256"
        }
      ],
      "name": "Transfer",
      "type": "event"
    },
    {
      "anonymous": false,
      "inputs": [
        {
          "indexed": true,
          "internalType": "address",
          "name": "sender",
          "type": "address"
        },
        {
          "indexed": true,
          "internalType": "address",
          "name": "receiver",
          "type": "address"
        },
        {
          "indexed": true,
          "internalType": "address",
          "name": "owner",
          "type": "address"
        },
        {
          "indexed": false,
          "internalType": "uint256",
          "name": "assets",
          "type": "uint256"
        },
        {
          "indexed": false,
          "internalType": "uint256",
          "name": "shares",
          "type": "uint256"
        }
      ],
      "name": "Withdraw",
      "type": "event"
    },
    {
      "inputs": [
        {
          "internalType": "address",
          "name": "owner",
          "type": "address"
        },
        {
          "internalType": "address",
          "name": "spender",
          "type": "address"
        }
      ],
      "name": "allowance",
      "outputs": [
        {
          "internalType": "uint256",
          "name": "",
          "type": "uint256"
        }
      ],
      "stateMutability": "view",
      "type": "function"
    },
    {
      "inputs": [
        {
          "internalType": "address",
          "name": "spender",
          "type": "address"
        },
        {
          "internalType": "uint256",
          "name": "amount",
          "type": "uint256"
        }
      ],
      "name": "approve",
      "outputs": [
        {
          "internalType": "bool",
          "name": "",
          "type": "bool"
        }
      ],
      "stateMutability": "nonpayable",
      "type": "function"
    },
    {
      "inputs": [],
      "name": "approveMax",
      "outputs": [],
      "stateMutability": "nonpayable",
      "type": "function"
    },
    {
      "inputs": [],
      "name": "asset",
      "outputs": [
        {
          "internalType": "address",
          "name": "",
          "type": "address"
        }
      ],
      "stateMutability": "view",
      "type": "function"
    },
    {
      "inputs": [
        {
          "internalType": "address",
          "name": "account",
          "type": "address"
        }
      ],
      "name": "balanceOf",
      "outputs": [
        {
          "internalType": "uint256",
          "name": "",
          "type": "uint256"
        }
      ],
      "stateMutability": "view",
      "type": "function"
    },
    {
      "inputs": [
        {
          "internalType": "uint256",
          "name": "shares",
          "type": "uint256"
        }
      ],
      "name": "convertToAssets",
      "outputs": [
        {
          "internalType": "uint256",
          "name": "assets",
          "type": "uint256"
        }
      ],
      "stateMutability": "view",
      "type": "function"
    },
    {
      "inputs": [
        {
          "internalType": "uint256",
          "name": "assets",
          "type": "uint256"
        }
      ],
      "name": "convertToShares",
      "outputs": [
        {
          "internalType": "uint256",
          "name": "shares",
          "type": "uint256"
        }
      ],
      "stateMutability": "view",
      "type": "function"
    },
    {
      "inputs": [],
      "name": "decimals",
      "outputs": [
        {
          "internalType": "uint8",
          "name": "",
          "type": "uint8"
        }
      ],
      "stateMutability": "view",
      "type": "function"
    },
    {
      "inputs": [
        {
          "internalType": "address",
          "name": "spender",
          "type": "address"
        },
        {
          "internalType": "uint256",
          "name": "subtractedValue",
          "type": "uint256"
        }
      ],
      "name": "decreaseAllowance",
      "outputs": [
        {
          "internalType": "bool",
          "name": "",
          "type": "bool"
        }
      ],
      "stateMutability": "nonpayable",
      "type": "function"
    },
    {
      "inputs": [
        {
          "internalType": "uint256",
          "name": "assets",
          "type": "uint256"
        },
        {
          "internalType": "address",
          "name": "receiver",
          "type": "address"
        }
      ],
      "name": "deposit",
      "outputs": [
        {
          "internalType": "uint256",
          "name": "",
          "type": "uint256"
        }
      ],
      "stateMutability": "nonpayable",
      "type": "function"
    },
    {
      "inputs": [
        {
          "internalType": "address",
          "name": "spender",
          "type": "address"
        },
        {
          "internalType": "uint256",
          "name": "addedValue",
          "type": "uint256"
        }
      ],
      "name": "increaseAllowance",
      "outputs": [
        {
          "internalType": "bool",
          "name": "",
          "type": "bool"
        }
      ],
      "stateMutability": "nonpayable",
      "type": "function"
    },
    {
      "inputs": [
        {
          "internalType": "address",
          "name": "",
          "type": "address"
        }
      ],
      "name": "maxDeposit",
      "outputs": [
        {
          "internalType": "uint256",
          "name": "",
          "type": "uint256"
        }
      ],
      "stateMutability": "view",
      "type": "function"
    },
    {
      "inputs": [
        {
          "internalType": "address",
          "name": "",
          "type": "address"
        }
      ],
      "name": "maxMint",
      "outputs": [
        {
          "internalType": "uint256",
          "name": "",
          "type": "uint256"
        }
      ],
      "stateMutability": "view",
      "type": "function"
    },
    {
      "inputs": [
        {
          "internalType": "address",
          "name": "owner",
          "type": "address"
        }
      ],
      "name": "maxRedeem",
      "outputs": [
        {
          "internalType": "uint256",
          "name": "",
          "type": "uint256"
        }
      ],
      "stateMutability": "view",
      "type": "function"
    },
    {
      "inputs": [
        {
          "internalType": "address",
          "name": "owner",
          "type": "address"
        }
      ],
      "name": "maxWithdraw",
      "outputs": [
        {
          "internalType": "uint256",
          "name": "",
          "type": "uint256"
        }
      ],
      "stateMutability": "view",
      "type": "function"
    },
    {
      "inputs": [
        {
          "internalType": "uint256",
          "name": "shares",
          "type": "uint256"
        },
        {
          "internalType": "address",
          "name": "receiver",
          "type": "address"
        }
      ],
      "name": "mint",
      "outputs": [
        {
          "internalType": "uint256",
          "name": "",
          "type": "uint256"
        }
      ],
      "stateMutability": "nonpayable",
      "type": "function"
    },
    {
      "inputs": [],
      "name": "name",
      "outputs": [
        {
          "internalType": "string",
          "name": "",
          "type": "string"
        }
      ],
      "stateMutability": "view",
      "type": "function"
    },
    {
      "inputs": [
        {
          "internalType": "uint256",
          "name": "assets",
          "type": "uint256"
        }
      ],
      "name": "previewDeposit",
      "outputs": [
        {
          "internalType": "uint256",
          "name": "",
          "type": "uint256"
        }
      ],
      "stateMutability": "view",
      "type": "function"
    },
    {
      "inputs": [
        {
          "internalType": "uint256",
          "name": "shares",
          "type": "uint256"
        }
      ],
      "name": "previewMint",
      "outputs": [
        {
          "internalType": "uint256",
          "name": "",
          "type": "uint256"
        }
      ],
      "stateMutability": "view",
      "type": "function"
    },
    {
      "inputs": [
        {
          "internalType": "uint256",
          "name": "shares",
          "type": "uint256"
        }
      ],
      "name": "previewRedeem",
      "outputs": [
        {
          "internalType": "uint256",
          "name": "",
          "type": "uint256"
        }
      ],
      "stateMutability": "view",
      "type": "function"
    },
    {
      "inputs": [
        {
          "internalType": "uint256",
          "name": "assets",
          "type": "uint256"
        }
      ],
      "name": "previewWithdraw",
      "outputs": [
        {
          "internalType": "uint256",
          "name": "",
          "type": "uint256"
        }
      ],
      "stateMutability": "view",
      "type": "function"
    },
    {
      "inputs": [
        {
          "internalType": "uint256",
          "name": "shares",
          "type": "uint256"
        },
        {
          "internalType": "address",
          "name": "receiver",
          "type": "address"
        },
        {
          "internalType": "address",
          "name": "owner",
          "type": "address"
        }
      ],
      "name": "redeem",
      "outputs": [
        {
          "internalType": "uint256",
          "name": "",
          "type": "uint256"
        }
      ],
      "stateMutability": "nonpayable",
      "type": "function"
    },
    {
      "inputs": [],
      "name": "symbol",
      "outputs": [
        {
          "internalType": "string",
          "name": "",
          "type": "string"
        }
      ],
      "stateMutability": "view",
      "type": "function"
    },
    {
      "inputs": [],
      "name": "totalAssets",
      "outputs": [
        {
          "internalType": "uint256",
          "name": "",
          "type": "uint256"
        }
      ],
      "stateMutability": "view",
      "type": "function"
    },
    {
      "inputs": [],
      "name": "totalSupply",
      "outputs": [
        {
          "internalType": "uint256",
          "name": "",
          "type": "uint256"
        }
      ],
      "stateMutability": "view",
      "type": "function"
    },
    {
      "inputs": [
        {
          "internalType": "address",
          "name": "to",
          "type": "address"
        },
        {
          "internalType": "uint256",
          "name": "amount",
          "type": "uint256"
        }
      ],
      "name": "transfer",
      "outputs": [
        {
          "internalType": "bool",
          "name": "",
          "type": "bool"
        }
      ],
      "stateMutability": "nonpayable",
      "type": "function"
    },
    {
      "inputs": [
        {
          "internalType": "address",
          "name": "from",
          "type": "address"
        },
        {
          "internalType": "address",
          "name": "to",
          "type": "address"
        },
        {
          "internalType": "uint256",
          "name": "amount",
          "type": "uint256"
        }
      ],
      "name": "transferFrom",
      "outputs": [
        {
          "internalType": "bool",
          "name": "",
          "type": "bool"
        }
      ],
      "stateMutability": "nonpayable",
      "type": "function"
    },
    {
      "inputs": [
        {
          "internalType": "uint256",
          "name": "assets",
          "type": "uint256"
        },
        {
          "internalType": "address",
          "name": "receiver",
          "type": "address"
        },
        {
          "internalType": "address",
          "name": "owner",
          "type": "address"
        }
      ],
      "name": "withdraw",
      "outputs": [
        {
          "internalType": "uint256",
          "name": "",
          "type": "uint256"
        }
      ],
      "stateMutability": "nonpayable",
      "type": "function"
    }
  ],
  "transactionHash": "0x1b216049ed2f114e6a77ba4dd86c2bd312041cd27ecf52cc8f4b48f4b2531388",
  "args": [
    "0x6B3595068778DD592e39A122f4f5a5cF09C90fE2",
    "0x8798249c2E607446EfB7Ad49eC89dD1865Ff4272"
  ],
  "numDeployments": 1,
  "solcInputHash": "8c17aa148ad85bf7109c5d60e7cb8c68",
  "bytecode": "0x6101006040818152346200028d578082620020a48038038091620000248285620004b2565b8339810103126200028d576200003a82620004d6565b916200004a6020809201620004d6565b825191906001600160a01b0390858216620000658562000496565b601485527f5375736869426172205969656c64205661756c74000000000000000000000000848601528551966200009c8862000496565b60078852667978535553484960c81b858901528551956001600160401b03908188116200039657600390815498600191828b811c9b1680156200048b575b8a8c101462000475578190601f9b8c81116200041f575b508a908c8311600114620003b857600092620003ac575b505060001982851b1c191690821b1782555b8a51928311620003965760049889548281811c911680156200038b575b8a82101462000376578181116200032f575b5088999a9b89918511600114620002ba5792848093604499989693600098968995620002ae575b50501b928619911b1c19161789555b6200018a82620004eb565b908414620002a5575b60a0528160805260c0528260e0528851978895869463095ea7b360e01b86521690840152811960248401525af180156200029a576200025b575b8251611ace9081620005d68239608051816107c1015260a05181610809015260c0518181816102bc01528181610ec00152818161103b0152818161112001528181611380015281816114d7015261196c015260e05181818161027e01528181610e8701528181611002015281816110b8015281816111c3015281816113160152818161150001526118b30152f35b81813d831162000292575b620002728183620004b2565b810103126200028d5751801515036200028d573880620001cd565b600080fd5b503d62000266565b83513d6000823e3d90fd5b50601262000193565b01519350388062000170565b91939290601f198416928c6000528a6000209360005b818110620003185750918593916000989660449b9a98969410620002fe575b50505050811b0189556200017f565b01519060f8848919921b161c1916905538808080620002ef565b8284015186558d9c958801959384019301620002d0565b8a600052896000208280870160051c8201928c88106200036c575b0160051c01905b81811062000360575062000149565b60008155830162000351565b925081926200034a565b60228b634e487b7160e01b6000525260246000fd5b90607f169062000137565b634e487b7160e01b600052604160045260246000fd5b01519050388062000108565b60008681528c8120869550929190601f198516908e5b828210620004075750508411620003ee575b505050811b0182556200011a565b015160001983871b60f8161c19169055388080620003e0565b83850151865588979095019493840193018e620003ce565b909150846000528a6000208c80850160051c8201928d86106200046b575b918691869594930160051c01915b8281106200045b575050620000f1565b600081558594508691016200044b565b925081926200043d565b634e487b7160e01b600052602260045260246000fd5b9a607f169a620000da565b604081019081106001600160401b038211176200039657604052565b601f909101601f19168101906001600160401b038211908210176200039657604052565b51906001600160a01b03821682036200028d57565b6040805163313ce56760e01b602080830191825260048352939493926001600160401b039290810183811182821017620003965760405251600095869283929183906001600160a01b03165af13d15620005cb573d918211620005b7576040519162000561601f8201601f1916850184620004b2565b82523d858484013e5b80620005ab575b6200057d575b50508190565b8181805181010312620005a757015160ff8111156200059d578062000577565b6001925060ff1690565b8380fd5b50818151101562000571565b634e487b7160e01b85526041600452602485fd5b606091506200056a56fe6040608081526004908136101561001557600080fd5b600090813560e01c92836301e1d114146109c257836306fdde03146108cf57836307a2d13a1461072c578363095ea7b3146108a65783630a28a4771461088757836318160ddd1461086957836323b872dd1461082d578363313ce567146107f057836338d52e0f146107ad578363395093511461075e578363402d267d146107385783634cdad5061461072c5783636e553f65146106a357836370a082311461068357836394bf804d1461064c57836395d89b4114610549578363a457c2d7146104a6578363a9059cbb14610476578363b3d7f6b914610457578363b460af94146103be578363ba08765214610326578363c2ac71261461025557508263c63d75b614610230578263c6e6f59214610225578263ce96cb77146101ee578263d905777e146101ad578263dd62ed3e1461016257505063ef8b30f71461015a575b600080fd5b610155610aaf565b346101a957806003193601126101a9578060209261017e610a4e565b610186610a64565b6001600160a01b0391821683526001865283832091168252845220549051908152f35b5080fd5b346101a95760203660031901126101a9576020906101e76101cc610a4e565b6001600160a01b031660009081526020819052604090205490565b9051908152f35b346101a95760203660031901126101a9576020916101e79082906001600160a01b03610218610a4e565b16815280855220546111a1565b505050610155610aaf565b346101a95760203660031901126101a95760209061024c610a4e565b50516000198152f35b82935034610322578260031936011261032257815163095ea7b360e01b81526001600160a01b037f000000000000000000000000000000000000000000000000000000000000000081169282019290925260001960248201529260209184916044918391907f0000000000000000000000000000000000000000000000000000000000000000165af190811561031957506102ee575080f35b61030e9060203d8111610312575b6103068183610ace565b810190611462565b5080f35b503d6102fc565b513d84823e3d90fd5b5050fd5b82346103bb57829061033736610a7a565b6001600160a01b03811684526020849052939092205492939092831161037857508161037291610369602096946111a1565b94859133611831565b51908152f35b606490602086519162461bcd60e51b8352820152601d60248201527f455243343632363a2072656465656d206d6f7265207468616e206d61780000006044820152fd5b80fd5b8290346101a95790826103f3926103d436610a7a565b6001600160a01b038116865260208690529390942054929490926111a1565b82116104145750602093918161040b61037293610e5e565b94859233611831565b606490602086519162461bcd60e51b8352820152601f60248201527f455243343632363a207769746864726177206d6f7265207468616e206d6178006044820152fd5b91346103bb5760203660031901126103bb57506101e760209235611096565b50346101a957806003193601126101a95760209061049f610495610a4e565b6024359033610b29565b5160018152f35b82346103bb57826003193601126103bb576104bf610a4e565b918360243592338152600160205281812060018060a01b03861682526020522054908282106104f85760208561049f8585038733610c97565b608490602086519162461bcd60e51b8352820152602560248201527f45524332303a2064656372656173656420616c6c6f77616e63652062656c6f77604482015264207a65726f60d81b6064820152fd5b9250346101a957816003193601126101a957805191809380549160019083821c92828516948515610642575b602095868610811461062f5785895290811561060b57506001146105b3575b6105af87876105a5828c0383610ace565b51918291826109de565b0390f35b81529295507f8a35acfbc15ff81a39ae7d344fd709f28e8600b4aa8c65c6b64bfe7fe36bd19b5b8284106105f857505050826105af946105a592820101943880610594565b80548685018801529286019281016105da565b60ff19168887015250505050151560051b83010192506105a5826105af3880610594565b634e487b7160e01b845260228352602484fd5b93607f1693610575565b3461067f578160031936011261067f5760209250359061037261066d610a64565b9261067781611096565b80943361147a565b8280fd5b50346101a95760203660031901126101a9576020906101e76101cc610a4e565b82346103bb57826003193601126103bb57508035906106c0610a64565b906106c9610e31565b83116106e95750916103726020936106e084610fd9565b9384913361147a565b606490602085519162461bcd60e51b8352820152601e60248201527f455243343632363a206465706f736974206d6f7265207468616e206d617800006044820152fd5b50505050610155610a27565b50346101a95760203660031901126101a957602090610755610a4e565b506101e7610e31565b50346101a957806003193601126101a95761049f6020926107a6610780610a4e565b338352600186528483206001600160a01b03821684528652918490205460243590610b06565b9033610c97565b50346101a957816003193601126101a957517f00000000000000000000000000000000000000000000000000000000000000006001600160a01b03168152602090f35b50346101a957816003193601126101a9576020905160ff7f0000000000000000000000000000000000000000000000000000000000000000168152f35b50346101a95760603660031901126101a95760209061049f61084d610a4e565b610855610a64565b60443591610864833383610d99565b610b29565b50346101a957816003193601126101a9576020906002549051908152f35b91346103bb5760203660031901126103bb57506101e760209235610e5e565b50346101a957806003193601126101a95760209061049f6108c5610a4e565b6024359033610c97565b903461067f578260031936011261067f57805191836003549060019082821c9282811680156109b8575b60209586861082146109a55750848852908115610983575060011461092a575b6105af86866105a5828b0383610ace565b929550600383527fc2575a0e9e593c00f959f8c92f12db2869c3395a3b0502d05e2516446f71f85b5b82841061097057505050826105af946105a5928201019486610919565b8054868501880152928601928101610953565b60ff191687860152505050151560051b83010192506105a5826105af86610919565b634e487b7160e01b845260229052602483fd5b93607f16936108f9565b50346101a957816003193601126101a9576020906101e76112fd565b6020808252825181830181905290939260005b828110610a1357505060409293506000838284010152601f8019910116010190565b8181018601518482016040015285016109f1565b5034610155576020366003190112610155576020610a466004356111a1565b604051908152f35b600435906001600160a01b038216820361015557565b602435906001600160a01b038216820361015557565b606090600319011261015557600435906001600160a01b03906024358281168103610155579160443590811681036101555790565b5034610155576020366003190112610155576020610a46600435610fd9565b90601f8019910116810190811067ffffffffffffffff821117610af057604052565b634e487b7160e01b600052604160045260246000fd5b91908201809211610b1357565b634e487b7160e01b600052601160045260246000fd5b6001600160a01b03908116918215610c445716918215610bf357600082815280602052604081205491808310610b9f57604082827fddf252ad1be2c89b69c2b068fc378daa952ba7f163c4a11628f55a4df523b3ef958760209652828652038282205586815220818154019055604051908152a3565b60405162461bcd60e51b815260206004820152602660248201527f45524332303a207472616e7366657220616d6f756e7420657863656564732062604482015265616c616e636560d01b6064820152608490fd5b60405162461bcd60e51b815260206004820152602360248201527f45524332303a207472616e7366657220746f20746865207a65726f206164647260448201526265737360e81b6064820152608490fd5b60405162461bcd60e51b815260206004820152602560248201527f45524332303a207472616e736665722066726f6d20746865207a65726f206164604482015264647265737360d81b6064820152608490fd5b6001600160a01b03908116918215610d485716918215610cf85760207f8c5be1e5ebec7d5bd14f71427d1e84f3dd0314c0f7b2291e5b200ac8c7c3b925918360005260018252604060002085600052825280604060002055604051908152a3565b60405162461bcd60e51b815260206004820152602260248201527f45524332303a20617070726f766520746f20746865207a65726f206164647265604482015261737360f01b6064820152608490fd5b60405162461bcd60e51b8152602060048201526024808201527f45524332303a20617070726f76652066726f6d20746865207a65726f206164646044820152637265737360e01b6064820152608490fd5b9060018060a01b0380831660005260016020526040600020908216600052602052604060002054926000198403610dd1575b50505050565b808410610dec57610de3930391610c97565b38808080610dcb565b60405162461bcd60e51b815260206004820152601d60248201527f45524332303a20696e73756666696369656e7420616c6c6f77616e63650000006044820152606490fd5b610e396112fd565b15801590610e54575b60009015610e51575060001990565b90565b5060025415610e42565b60025481158015610fd1575b15610fbe57506040516370a0823160e01b81526001600160a01b037f00000000000000000000000000000000000000000000000000000000000000008116600483018190529291906020908190839060249082907f0000000000000000000000000000000000000000000000000000000000000000165afa918215610fb257600092610f83575b50600082610f0157505050905090565b81600492949395604051938480926318160ddd60e01b82525afa938415610f76578194610f3f575b505050610e519291610f3a916112ea565b61125d565b909180939450813d8311610f6f575b610f588183610ace565b810103126103bb5750519080610e51610f3a610f29565b503d610f4e565b50604051903d90823e3d90fd5b90918282813d8311610fab575b610f9a8183610ace565b810103126103bb5750519038610ef1565b503d610f90565b6040513d6000823e3d90fd5b90610e5191610fcb6112fd565b9161121d565b508015610e6a565b6002548115801561108e575b1561107b57506040516370a0823160e01b81526001600160a01b037f00000000000000000000000000000000000000000000000000000000000000008116600483018190529291906020908190839060249082907f0000000000000000000000000000000000000000000000000000000000000000165afa918215610fb257600092610f835750600082610f0157505050905090565b90610e51916110886112fd565b91611267565b508015610fe5565b6002548061118f57506040516318160ddd60e01b815260206001600160a01b037f000000000000000000000000000000000000000000000000000000000000000081168284600481845afa938415610fb257600094611160575b506000908461110157505050505090565b92809495936024604051809581936370a0823160e01b835260048301527f0000000000000000000000000000000000000000000000000000000000000000165afa938415610f76578194610f3f57505050610e519291610f3a916112ea565b90938382813d8311611188575b6111778183610ace565b810103126103bb57505192386110f0565b503d61116d565b610e519161119b6112fd565b9061121d565b6002548061120b57506040516318160ddd60e01b815260206001600160a01b037f000000000000000000000000000000000000000000000000000000000000000081168284600481845afa938415610fb25760009461116057506000908461110157505050505090565b610e51916112176112fd565b90611267565b919061122a828285611267565b92821561124757096112395790565b60018101809111610b135790565b634e487b7160e01b600052601260045260246000fd5b8115611247570490565b9160001982840992828102928380861095039480860395146112dd5784831115610155578291096001821901821680920460028082600302188083028203028083028203028083028203028083028203028083028203028092029003029360018380600003040190848311900302920304170290565b505090610e51925061125d565b81810292918115918404141715610b1357565b604080516318160ddd60e01b8152906001600160a01b037f0000000000000000000000000000000000000000000000000000000000000000811660208085600481855afa94851561145757600095611428575b506000908561136457505050505050600090565b84519381856024816370a0823160e01b948582528860048301527f0000000000000000000000000000000000000000000000000000000000000000165afa94851561141e5783956113ef575b508190602487518096819382523060048301525afa9485156113e457508194610f3f57505050610e519291610f3a916112ea565b51913d9150823e3d90fd5b9094508181813d8311611417575b6114078183610ace565b8101031261067f575193816113b0565b503d6113fd565b86513d85823e3d90fd5b90948582813d8311611450575b61143f8183610ace565b810103126103bb5750519338611350565b503d611435565b84513d6000823e3d90fd5b90816020910312610155575180151581036101555790565b604080516323b872dd60e01b6020820152336024820152306044820152606480820186905281526000969594939192909167ffffffffffffffff60a084018181118582101761164b5785526001600160a01b03938991906114fd907f0000000000000000000000000000000000000000000000000000000000000000871661165f565b847f000000000000000000000000000000000000000000000000000000000000000016803b1561067f5782906024885180958193632967cf8360e21b83528c60048401525af180156116415761161a575b505082169485156115d657857fdcbc1c05240f31ff3ad067ef1ee35ce4997762752e3a095284754544f4c709d79596979861158b83600254610b06565b600255818152806020528581208381540190557fddf252ad1be2c89b69c2b068fc378daa952ba7f163c4a11628f55a4df523b3ef60208751858152a3835195865260208601521692a3565b835162461bcd60e51b815260206004820152601f60248201527f45524332303a206d696e7420746f20746865207a65726f2061646472657373006044820152606490fd5b819992991161162d57845296823861154e565b634e487b7160e01b82526041600452602482fd5b86513d8c823e3d90fd5b634e487b7160e01b8a52604160045260248afd5b6040805167ffffffffffffffff94936001600160a01b03909316929091820185811183821017610af0576040526020928383527f5361666545524332303a206c6f772d6c6576656c2063616c6c206661696c6564848401526000808386829551910182855af1903d1561178f573d96871161177b576116ff949596604051906116f188601f19601f8401160183610ace565b81528093873d92013e61179c565b8051908161170c57505050565b828061171c938301019101611462565b156117245750565b6084906040519062461bcd60e51b82526004820152602a60248201527f5361666545524332303a204552433230206f7065726174696f6e20646964206e6044820152691bdd081cdd58d8d9595960b21b6064820152fd5b634e487b7160e01b83526041600452602483fd5b91506116ff939495506060915b919290156117fe57508151156117b0575090565b3b156117b95790565b60405162461bcd60e51b815260206004820152601d60248201527f416464726573733a2063616c6c20746f206e6f6e2d636f6e74726163740000006044820152606490fd5b8251909150156118115750805190602001fd5b60405162461bcd60e51b815290819061182d90600483016109de565b0390fd5b9193909260018060a01b0391828616958184861695888703611a87575b5050508515611a3857600094868652602090868252604094858820548481106119e95784908a8a528985520386892055836002540360025587897fddf252ad1be2c89b69c2b068fc378daa952ba7f163c4a11628f55a4df523b3ef858951888152a3807f000000000000000000000000000000000000000000000000000000000000000016803b156119e55788809160248951809481936367dfd4c960e01b83528a60048401525af180156119db576119b0575b508086519263a9059cbb60e01b85850152169788602484015285604484015260448352608083019083821067ffffffffffffffff83111761199c575086527ffbde797d201c681b91056529119e0b02407c7bb96a4a2c75c01fc9667232c8db9594939291611991917f00000000000000000000000000000000000000000000000000000000000000001661165f565b8351928352820152a4565b634e487b7160e01b81526041600452602490fd5b67ffffffffffffffff81116119c757865238611902565b634e487b7160e01b89526041600452602489fd5b87513d8b823e3d90fd5b8880fd5b865162461bcd60e51b815260048101859052602260248201527f45524332303a206275726e20616d6f756e7420657863656564732062616c616e604482015261636560f01b6064820152608490fd5b60405162461bcd60e51b815260206004820152602160248201527f45524332303a206275726e2066726f6d20746865207a65726f206164647265736044820152607360f81b6064820152608490fd5b611a9092610d99565b38818161184e56fea264697066735822122004c89bbbd9d0157ed37740c54f8de42fcd92207ef4f1bbdde9923b2a8f26923864736f6c63430008110033",
  "devdoc": {
    "kind": "dev",
    "methods": {
      "allowance(address,address)": {
        "details": "See {IERC20-allowance}."
      },
      "approve(address,uint256)": {
        "details": "See {IERC20-approve}. NOTE: If `amount` is the maximum `uint256`, the allowance is not updated on `transferFrom`. This is semantically equivalent to an infinite approval. Requirements: - `spender` cannot be the zero address."
      },
      "asset()": {
        "details": "See {IERC4626-asset}. "
      },
      "balanceOf(address)": {
        "details": "See {IERC20-balanceOf}."
      },
      "convertToAssets(uint256)": {
        "details": "See {IERC4626-convertToAssets}. "
      },
      "convertToShares(uint256)": {
        "details": "See {IERC4626-convertToShares}. "
      },
      "decimals()": {
        "details": "Decimals are read from the underlying asset in the constructor and cached. If this fails (e.g., the asset has not been created yet), the cached value is set to a default obtained by `super.decimals()` (which depends on inheritance but is most likely 18). Override this function in order to set a guaranteed hardcoded value. See {IERC20Metadata-decimals}."
      },
      "decreaseAllowance(address,uint256)": {
        "details": "Atomically decreases the allowance granted to `spender` by the caller. This is an alternative to {approve} that can be used as a mitigation for problems described in {IERC20-approve}. Emits an {Approval} event indicating the updated allowance. Requirements: - `spender` cannot be the zero address. - `spender` must have allowance for the caller of at least `subtractedValue`."
      },
      "deposit(uint256,address)": {
        "details": "See {IERC4626-deposit}. "
      },
      "increaseAllowance(address,uint256)": {
        "details": "Atomically increases the allowance granted to `spender` by the caller. This is an alternative to {approve} that can be used as a mitigation for problems described in {IERC20-approve}. Emits an {Approval} event indicating the updated allowance. Requirements: - `spender` cannot be the zero address."
      },
      "maxDeposit(address)": {
        "details": "See {IERC4626-maxDeposit}. "
      },
      "maxMint(address)": {
        "details": "See {IERC4626-maxMint}. "
      },
      "maxRedeem(address)": {
        "details": "See {IERC4626-maxRedeem}. "
      },
      "maxWithdraw(address)": {
        "details": "See {IERC4626-maxWithdraw}. "
      },
      "mint(uint256,address)": {
        "details": "See {IERC4626-mint}. "
      },
      "name()": {
        "details": "Returns the name of the token."
      },
      "previewDeposit(uint256)": {
        "details": "See {IERC4626-previewDeposit}. "
      },
      "previewMint(uint256)": {
        "details": "See {IERC4626-previewMint}. "
      },
      "previewRedeem(uint256)": {
        "details": "See {IERC4626-previewRedeem}. "
      },
      "previewWithdraw(uint256)": {
        "details": "See {IERC4626-previewWithdraw}. "
      },
      "redeem(uint256,address,address)": {
        "details": "See {IERC4626-redeem}. "
      },
      "symbol()": {
        "details": "Returns the symbol of the token, usually a shorter version of the name."
      },
      "totalAssets()": {
        "details": "See {IERC4626-totalAssets}. "
      },
      "totalSupply()": {
        "details": "See {IERC20-totalSupply}."
      },
      "transfer(address,uint256)": {
        "details": "See {IERC20-transfer}. Requirements: - `to` cannot be the zero address. - the caller must have a balance of at least `amount`."
      },
      "transferFrom(address,address,uint256)": {
        "details": "See {IERC20-transferFrom}. Emits an {Approval} event indicating the updated allowance. This is not required by the EIP. See the note at the beginning of {ERC20}. NOTE: Does not update the allowance if the current allowance is the maximum `uint256`. Requirements: - `from` and `to` cannot be the zero address. - `from` must have a balance of at least `amount`. - the caller must have allowance for ``from``'s tokens of at least `amount`."
      },
      "withdraw(uint256,address,address)": {
        "details": "See {IERC4626-withdraw}. "
      }
    },
    "version": 1
  },
  "userdoc": {
    "kind": "user",
    "methods": {},
    "version": 1
  },
  "storageLayout": {
    "storage": [
      {
        "astId": 599,
        "contract": "contracts/SushiBarVault.sol:SushiBarVault",
        "label": "_balances",
        "offset": 0,
        "slot": "0",
        "type": "t_mapping(t_address,t_uint256)"
      },
      {
        "astId": 605,
        "contract": "contracts/SushiBarVault.sol:SushiBarVault",
        "label": "_allowances",
        "offset": 0,
        "slot": "1",
        "type": "t_mapping(t_address,t_mapping(t_address,t_uint256))"
      },
      {
        "astId": 607,
        "contract": "contracts/SushiBarVault.sol:SushiBarVault",
        "label": "_totalSupply",
        "offset": 0,
        "slot": "2",
        "type": "t_uint256"
      },
      {
        "astId": 609,
        "contract": "contracts/SushiBarVault.sol:SushiBarVault",
        "label": "_name",
        "offset": 0,
        "slot": "3",
        "type": "t_string_storage"
      },
      {
        "astId": 611,
        "contract": "contracts/SushiBarVault.sol:SushiBarVault",
        "label": "_symbol",
        "offset": 0,
        "slot": "4",
        "type": "t_string_storage"
      }
    ],
    "types": {
      "t_address": {
        "encoding": "inplace",
        "label": "address",
        "numberOfBytes": "20"
      },
      "t_mapping(t_address,t_mapping(t_address,t_uint256))": {
        "encoding": "mapping",
        "key": "t_address",
        "label": "mapping(address => mapping(address => uint256))",
        "numberOfBytes": "32",
        "value": "t_mapping(t_address,t_uint256)"
      },
      "t_mapping(t_address,t_uint256)": {
        "encoding": "mapping",
        "key": "t_address",
        "label": "mapping(address => uint256)",
        "numberOfBytes": "32",
        "value": "t_uint256"
      },
      "t_string_storage": {
        "encoding": "bytes",
        "label": "string",
        "numberOfBytes": "32"
      },
      "t_uint256": {
        "encoding": "inplace",
        "label": "uint256",
        "numberOfBytes": "32"
      }
    }
  }
}