{
  "address": "0x03052A77aa8Ed62d7522154B31B2A3ebeCf5685e",
  "abi": [
    {
      "inputs": [],
      "stateMutability": "nonpayable",
      "type": "constructor"
    },
    {
      "inputs": [],
      "name": "Expired",
      "type": "error"
    },
    {
      "inputs": [],
      "name": "Forbidden",
      "type": "error"
    },
    {
      "inputs": [],
      "name": "InvalidSignature",
      "type": "error"
    },
    {
      "inputs": [],
      "name": "MintersLocked",
      "type": "error"
    },
    {
      "anonymous": false,
      "inputs": [
        {
          "indexed": true,
          "internalType": "address",
          "name": "owner",
          "type": "address"
        },
        {
          "indexed": true,
          "internalType": "address",
          "name": "spender",
          "type": "address"
        },
        {
          "indexed": false,
          "internalType": "uint256",
          "name": "value",
          "type": "uint256"
        }
      ],
      "name": "Approval",
      "type": "event"
    },
    {
      "anonymous": false,
      "inputs": [
        {
          "indexed": false,
          "internalType": "uint256",
          "name": "lastCheckpoint",
          "type": "uint256"
        }
      ],
      "name": "Checkpoint",
      "type": "event"
    },
    {
      "anonymous": false,
      "inputs": [],
      "name": "LockMinters",
      "type": "event"
    },
    {
      "anonymous": false,
      "inputs": [
        {
          "indexed": true,
          "internalType": "address",
          "name": "previousOwner",
          "type": "address"
        },
        {
          "indexed": true,
          "internalType": "address",
          "name": "newOwner",
          "type": "address"
        }
      ],
      "name": "OwnershipTransferred",
      "type": "event"
    },
    {
      "anonymous": false,
      "inputs": [
        {
          "indexed": true,
          "internalType": "address",
          "name": "account",
          "type": "address"
        },
        {
          "indexed": true,
          "internalType": "bool",
          "name": "isMinter",
          "type": "bool"
        }
      ],
      "name": "SetMinter",
      "type": "event"
    },
    {
      "anonymous": false,
      "inputs": [
        {
          "indexed": true,
          "internalType": "address",
          "name": "from",
          "type": "address"
        },
        {
          "indexed": true,
          "internalType": "address",
          "name": "to",
          "type": "address"
        },
        {
          "indexed": false,
          "internalType": "uint256",
          "name": "value",
          "type": "uint256"
        }
      ],
      "name": "Transfer",
      "type": "event"
    },
    {
      "inputs": [],
      "name": "DOMAIN_SEPARATOR",
      "outputs": [
        {
          "internalType": "bytes32",
          "name": "",
          "type": "bytes32"
        }
      ],
      "stateMutability": "view",
      "type": "function"
    },
    {
      "inputs": [
        {
          "internalType": "address",
          "name": "owner",
          "type": "address"
        },
        {
          "internalType": "address",
          "name": "spender",
          "type": "address"
        }
      ],
      "name": "allowance",
      "outputs": [
        {
          "internalType": "uint256",
          "name": "",
          "type": "uint256"
        }
      ],
      "stateMutability": "view",
      "type": "function"
    },
    {
      "inputs": [
        {
          "internalType": "address",
          "name": "spender",
          "type": "address"
        },
        {
          "internalType": "uint256",
          "name": "amount",
          "type": "uint256"
        }
      ],
      "name": "approve",
      "outputs": [
        {
          "internalType": "bool",
          "name": "",
          "type": "bool"
        }
      ],
      "stateMutability": "nonpayable",
      "type": "function"
    },
    {
      "inputs": [
        {
          "internalType": "address",
          "name": "account",
          "type": "address"
        }
      ],
      "name": "balanceOf",
      "outputs": [
        {
          "internalType": "uint256",
          "name": "",
          "type": "uint256"
        }
      ],
      "stateMutability": "view",
      "type": "function"
    },
    {
      "inputs": [],
      "name": "checkpoint",
      "outputs": [],
      "stateMutability": "nonpayable",
      "type": "function"
    },
    {
      "inputs": [
        {
          "internalType": "uint256",
          "name": "week",
          "type": "uint256"
        }
      ],
      "name": "checkpointedTotalSupplyDuring",
      "outputs": [
        {
          "internalType": "uint256",
          "name": "",
          "type": "uint256"
        }
      ],
      "stateMutability": "nonpayable",
      "type": "function"
    },
    {
      "inputs": [],
      "name": "decimals",
      "outputs": [
        {
          "internalType": "uint8",
          "name": "",
          "type": "uint8"
        }
      ],
      "stateMutability": "view",
      "type": "function"
    },
    {
      "inputs": [
        {
          "internalType": "address",
          "name": "spender",
          "type": "address"
        },
        {
          "internalType": "uint256",
          "name": "subtractedValue",
          "type": "uint256"
        }
      ],
      "name": "decreaseAllowance",
      "outputs": [
        {
          "internalType": "bool",
          "name": "",
          "type": "bool"
        }
      ],
      "stateMutability": "nonpayable",
      "type": "function"
    },
    {
      "inputs": [
        {
          "internalType": "address",
          "name": "spender",
          "type": "address"
        },
        {
          "internalType": "uint256",
          "name": "addedValue",
          "type": "uint256"
        }
      ],
      "name": "increaseAllowance",
      "outputs": [
        {
          "internalType": "bool",
          "name": "",
          "type": "bool"
        }
      ],
      "stateMutability": "nonpayable",
      "type": "function"
    },
    {
      "inputs": [
        {
          "internalType": "address",
          "name": "",
          "type": "address"
        }
      ],
      "name": "isMinter",
      "outputs": [
        {
          "internalType": "bool",
          "name": "",
          "type": "bool"
        }
      ],
      "stateMutability": "view",
      "type": "function"
    },
    {
      "inputs": [],
      "name": "lastCheckpoint",
      "outputs": [
        {
          "internalType": "uint256",
          "name": "",
          "type": "uint256"
        }
      ],
      "stateMutability": "view",
      "type": "function"
    },
    {
      "inputs": [],
      "name": "lockMinters",
      "outputs": [],
      "stateMutability": "nonpayable",
      "type": "function"
    },
    {
      "inputs": [
        {
          "internalType": "address",
          "name": "to",
          "type": "address"
        },
        {
          "internalType": "uint256",
          "name": "amount",
          "type": "uint256"
        }
      ],
      "name": "mint",
      "outputs": [],
      "stateMutability": "nonpayable",
      "type": "function"
    },
    {
      "inputs": [],
      "name": "mintersLocked",
      "outputs": [
        {
          "internalType": "bool",
          "name": "",
          "type": "bool"
        }
      ],
      "stateMutability": "view",
      "type": "function"
    },
    {
      "inputs": [],
      "name": "name",
      "outputs": [
        {
          "internalType": "string",
          "name": "",
          "type": "string"
        }
      ],
      "stateMutability": "view",
      "type": "function"
    },
    {
      "inputs": [
        {
          "internalType": "address",
          "name": "",
          "type": "address"
        }
      ],
      "name": "nonces",
      "outputs": [
        {
          "internalType": "uint256",
          "name": "",
          "type": "uint256"
        }
      ],
      "stateMutability": "view",
      "type": "function"
    },
    {
      "inputs": [],
      "name": "owner",
      "outputs": [
        {
          "internalType": "address",
          "name": "",
          "type": "address"
        }
      ],
      "stateMutability": "view",
      "type": "function"
    },
    {
      "inputs": [
        {
          "internalType": "address",
          "name": "owner",
          "type": "address"
        },
        {
          "internalType": "address",
          "name": "spender",
          "type": "address"
        },
        {
          "internalType": "uint256",
          "name": "value",
          "type": "uint256"
        },
        {
          "internalType": "uint256",
          "name": "deadline",
          "type": "uint256"
        },
        {
          "internalType": "uint8",
          "name": "v",
          "type": "uint8"
        },
        {
          "internalType": "bytes32",
          "name": "r",
          "type": "bytes32"
        },
        {
          "internalType": "bytes32",
          "name": "s",
          "type": "bytes32"
        }
      ],
      "name": "permit",
      "outputs": [],
      "stateMutability": "nonpayable",
      "type": "function"
    },
    {
      "inputs": [],
      "name": "renounceOwnership",
      "outputs": [],
      "stateMutability": "nonpayable",
      "type": "function"
    },
    {
      "inputs": [
        {
          "internalType": "address",
          "name": "account",
          "type": "address"
        },
        {
          "internalType": "bool",
          "name": "_isMinter",
          "type": "bool"
        }
      ],
      "name": "setMinter",
      "outputs": [],
      "stateMutability": "nonpayable",
      "type": "function"
    },
    {
      "inputs": [],
      "name": "startWeek",
      "outputs": [
        {
          "internalType": "uint256",
          "name": "",
          "type": "uint256"
        }
      ],
      "stateMutability": "view",
      "type": "function"
    },
    {
      "inputs": [],
      "name": "symbol",
      "outputs": [
        {
          "internalType": "string",
          "name": "",
          "type": "string"
        }
      ],
      "stateMutability": "view",
      "type": "function"
    },
    {
      "inputs": [],
      "name": "totalSupply",
      "outputs": [
        {
          "internalType": "uint256",
          "name": "",
          "type": "uint256"
        }
      ],
      "stateMutability": "view",
      "type": "function"
    },
    {
      "inputs": [
        {
          "internalType": "uint256",
          "name": "",
          "type": "uint256"
        }
      ],
      "name": "totalSupplyDuring",
      "outputs": [
        {
          "internalType": "uint256",
          "name": "",
          "type": "uint256"
        }
      ],
      "stateMutability": "view",
      "type": "function"
    },
    {
      "inputs": [
        {
          "internalType": "address",
          "name": "to",
          "type": "address"
        },
        {
          "internalType": "uint256",
          "name": "amount",
          "type": "uint256"
        }
      ],
      "name": "transfer",
      "outputs": [
        {
          "internalType": "bool",
          "name": "",
          "type": "bool"
        }
      ],
      "stateMutability": "nonpayable",
      "type": "function"
    },
    {
      "inputs": [
        {
          "internalType": "address",
          "name": "from",
          "type": "address"
        },
        {
          "internalType": "address",
          "name": "to",
          "type": "address"
        },
        {
          "internalType": "uint256",
          "name": "amount",
          "type": "uint256"
        }
      ],
      "name": "transferFrom",
      "outputs": [
        {
          "internalType": "bool",
          "name": "",
          "type": "bool"
        }
      ],
      "stateMutability": "nonpayable",
      "type": "function"
    },
    {
      "inputs": [
        {
          "internalType": "address",
          "name": "newOwner",
          "type": "address"
        }
      ],
      "name": "transferOwnership",
      "outputs": [],
      "stateMutability": "nonpayable",
      "type": "function"
    }
  ],
  "transactionHash": "0x54072a5c80c4419b55ca3e621304f37c5200e039bdb3795d9931be54cae3c1c0",
  "args": [],
  "numDeployments": 1,
  "solcInputHash": "cd56555d56dcf248dac5c40fe84eabf3",
  "bytecode": "0x610160604090808252346200048e57620000198162000493565b6011815270233630b9b41029bab9b434902a37b5b2b760791b6020918183820152835192620000488462000493565b600684526566535553484960d01b8185015260008054336001600160a01b0319821681178355919291906001600160a01b03167f8be0079c531659141344cd1fd0a4f28419497f9722a3daafe3b4186f6b6457e08480a38251956001600160401b03958688116200047a576004978854906001968783811c931680156200046f575b868410146200045c578190601f9384811162000409575b508690848311600114620003a557889262000399575b5050600019600383901b1c191690871b1789555b815190888211620003865760059283548881811c911680156200037b575b8782101462000368579081838594931162000315575b5086918311600114620002b1578792620002a5575b5050600019600383901b1c191690861b1790555b62093a80420494848601809611620002925760119061014096808852600a55838351620001958162000493565b838152019081522093828251620001ac8162000493565b82815201603160f81b815220928460e052610100978489524660a0528251938401947f8b73c3c69bb8fe3d512ecc4cf759cc79239f7b179b0ffacaa9a75d522b39400f968787528486015260608501524660808501523060a085015260a0845260c0840197848910908911176200027f5750508590525190206080523060c0526101209081526114519384620004c6853960805184611037015260a05184611103015260c05184611001015260e05184611086015251836110ac0152518261106301525181818161022901526113aa0152f35b634e487b7160e01b825260419052602490fd5b634e487b7160e01b845260118852602484fd5b01519050388062000154565b8488528688208994509190601f198416895b89828210620002fe5750508411620002e4575b505050811b01905562000168565b015160001960f88460031b161c19169055388080620002d6565b8385015186558c97909501949384019301620002c3565b9091925084885286882083808601871c8201928987106200035e575b9186958c9295949301881c01915b8281106200034f5750506200013f565b8a81558695508b91016200033f565b9250819262000331565b634e487b7160e01b885260228c52602488fd5b90607f169062000129565b634e487b7160e01b865260418a52602486fd5b015190503880620000f7565b8c89528789208a94509190601f1984168a5b8a828210620003f25750508411620003d8575b505050811b0189556200010b565b015160001960f88460031b161c19169055388080620003ca565b8385015186558d97909501949384019301620003b7565b9091508b88528688208480850160051c82019289861062000452575b918b91869594930160051c01915b82811062000443575050620000e1565b8a81558594508b910162000433565b9250819262000425565b634e487b7160e01b875260228b52602487fd5b92607f1692620000ca565b634e487b7160e01b84526041600452602484fd5b600080fd5b604081019081106001600160401b03821117620004af57604052565b634e487b7160e01b600052604160045260246000fdfe6080604081815260048036101561001557600080fd5b600092833560e01c90816306fdde0314610b6b57508063095ea7b314610b415780630fd3da3814610af457806318160ddd14610ad55780632381cc6414610aae57806323b872dd146109e2578063313ce567146109c65780633644e515146109a2578063395093511461095257806340c10f191461086a57806370a0823114610832578063715018a6146107d85780637ecebe00146107a05780637fe290f71461077c5780638da5cb5b1461075457806395d89b41146106525780639ebb3ffc14610623578063a457c2d71461057f578063a9059cbb1461054e578063aa271e1a14610510578063c2c4c5c1146104f4578063cf456ae71461045f578063d32e81a514610440578063d505accf14610299578063dd62ed3e14610250578063eddf2d21146102115763f2fde38b1461014c57600080fd5b3461020d57602036600319011261020d57610165610ca8565b9061016e610cd9565b6001600160a01b039182169283156101bb57505082546001600160a01b0319811683178455167f8be0079c531659141344cd1fd0a4f28419497f9722a3daafe3b4186f6b6457e08380a380f35b906020608492519162461bcd60e51b8352820152602660248201527f4f776e61626c653a206e6577206f776e657220697320746865207a65726f206160448201526564647265737360d01b6064820152fd5b8280fd5b50503461024c578160031936011261024c57602090517f00000000000000000000000000000000000000000000000000000000000000008152f35b5080fd5b50503461024c578060031936011261024c578060209261026e610ca8565b610276610cc3565b6001600160a01b0391821683526002865283832091168252845220549051908152f35b5091903461024c5760e036600319011261024c576102b5610ca8565b6102bd610cc3565b90604435926064356084359060ff8216820361043c5780421161042c576001600160a01b03848116808952600860205284892080549194929392919060001982146104195760018201905585519260208401917f6e71edae12b1b97f4d1f60370fef10105fa2faae0126114a169c64845d6126c983528688860152858a1660608601528a608086015260a085015260c084015260c0835260e083019267ffffffffffffffff93818110858211176104065787525190209061037c610ffe565b92865192602084019461190160f01b865260228501526042840152604283526080830190838210908211176103f357916103cf93916103c793885260c4359260a43592519020611243565b919091611129565b16036103e457506103e1939450610efc565b80f35b51638baa579f60e01b81528590fd5b634e487b7160e01b8b5260418c5260248bfd5b634e487b7160e01b8c5260418d5260248cfd5b634e487b7160e01b8b5260118c5260248bfd5b8251630407b05b60e31b81528890fd5b8680fd5b50503461024c578160031936011261024c57602090600a549051908152f35b50903461020d578060031936011261020d57610479610ca8565b602435928315158094036104f05761048f610cd9565b60ff600754166104e257506001600160a01b03168084526006602052908320805460ff191660ff84161790557f1f96bc657d385fd83da973a43f2ad969e6d96b6779b779571a7306db7ca1cd008380a380f35b825163815eb75760e01b8152fd5b8480fd5b833461050d578060031936011261050d576103e16112d2565b80fd5b50503461024c57602036600319011261024c5760209160ff9082906001600160a01b0361053b610ca8565b1681526006855220541690519015158152f35b50503461024c578060031936011261024c5760209061057861056e610ca8565b6024359033610d8c565b5160018152f35b50823461050d578260031936011261050d57610599610ca8565b918360243592338152600260205281812060018060a01b03861682526020522054908282106105d2576020856105788585038733610efc565b608490602086519162461bcd60e51b8352820152602560248201527f45524332303a2064656372656173656420616c6c6f77616e63652062656c6f77604482015264207a65726f60d81b6064820152fd5b503461020d57602036600319011261020d5760209282916106426112d2565b3581526009845220549051908152f35b50903461020d578260031936011261020d57805191836005549060019082821c92828116801561074a575b6020958686108214610737575084885290811561071557506001146106bc575b6106b886866106ae828b0383610d31565b5191829182610c5f565b0390f35b929550600583527f036b6384b5eca791c62761152d0c79bb0604c104a5fb6f4eb0703f3154bb3db05b82841061070257505050826106b8946106ae92820101943861069d565b80548685018801529286019281016106e5565b60ff191687860152505050151560051b83010192506106ae826106b83861069d565b634e487b7160e01b845260229052602483fd5b93607f169361067d565b50503461024c578160031936011261024c57905490516001600160a01b039091168152602090f35b50503461024c578160031936011261024c5760209060ff6007541690519015158152f35b50503461024c57602036600319011261024c5760209181906001600160a01b036107c8610ca8565b1681526008845220549051908152f35b833461050d578060031936011261050d576107f1610cd9565b80546001600160a01b03198116825581906001600160a01b03167f8be0079c531659141344cd1fd0a4f28419497f9722a3daafe3b4186f6b6457e08280a380f35b50503461024c57602036600319011261024c5760209181906001600160a01b0361085a610ca8565b1681526001845220549051908152f35b50903461020d578060031936011261020d57610884610ca8565b9060243591338552600660205260ff828620541615610942576001600160a01b031692831561090057506020827fddf252ad1be2c89b69c2b068fc378daa952ba7f163c4a11628f55a4df523b3ef926108e08795600354610d69565b6003558585526001835280852082815401905551908152a36103e16112d2565b6020606492519162461bcd60e51b8352820152601f60248201527f45524332303a206d696e7420746f20746865207a65726f2061646472657373006044820152fd5b8151631dd2188d60e31b81528490fd5b50503461024c578060031936011261024c5761057860209261099b610975610ca8565b338352600286528483206001600160a01b03821684528652918490205460243590610d69565b9033610efc565b50503461024c578160031936011261024c576020906109bf610ffe565b9051908152f35b50503461024c578160031936011261024c576020905160128152f35b5082903461024c57606036600319011261024c576109fe610ca8565b610a06610cc3565b6001600160a01b03821684526002602090815285852033865290529284902054604435939260018201610a42575b602086610578878787610d8c565b848210610a6b5750918391610a606020969561057895033383610efc565b919394819350610a34565b606490602087519162461bcd60e51b8352820152601d60248201527f45524332303a20696e73756666696369656e7420616c6c6f77616e63650000006044820152fd5b503461020d57602036600319011261020d5760209282913581526009845220549051908152f35b50503461024c578160031936011261024c576020906003549051908152f35b833461050d578060031936011261050d57610b0d610cd9565b600160ff1960075416176007557f83b471c54c2c3e053b0eaff5194120062ed80b9c544a643eed228777fccde9a38180a180f35b50503461024c578060031936011261024c57602090610578610b61610ca8565b6024359033610efc565b905082843461050d578060031936011261050d57809380549160019083821c92828516948515610c55575b6020958686108114610c4257858952908115610c1e5750600114610bc6575b6106b887876106ae828c0383610d31565b81529295507f8a35acfbc15ff81a39ae7d344fd709f28e8600b4aa8c65c6b64bfe7fe36bd19b5b828410610c0b57505050826106b8946106ae92820101948680610bb5565b8054868501880152928601928101610bed565b60ff19168887015250505050151560051b83010192506106ae826106b88680610bb5565b634e487b7160e01b845260228352602484fd5b93607f1693610b96565b6020808252825181830181905290939260005b828110610c9457505060409293506000838284010152601f8019910116010190565b818101860151848201604001528501610c72565b600435906001600160a01b0382168203610cbe57565b600080fd5b602435906001600160a01b0382168203610cbe57565b6000546001600160a01b03163303610ced57565b606460405162461bcd60e51b815260206004820152602060248201527f4f776e61626c653a2063616c6c6572206973206e6f7420746865206f776e65726044820152fd5b90601f8019910116810190811067ffffffffffffffff821117610d5357604052565b634e487b7160e01b600052604160045260246000fd5b91908201809211610d7657565b634e487b7160e01b600052601160045260246000fd5b6001600160a01b03908116918215610ea95716918215610e585760008281526001602052604081205491808310610e0457604082827fddf252ad1be2c89b69c2b068fc378daa952ba7f163c4a11628f55a4df523b3ef95876020965260018652038282205586815220818154019055604051908152a3565b60405162461bcd60e51b815260206004820152602660248201527f45524332303a207472616e7366657220616d6f756e7420657863656564732062604482015265616c616e636560d01b6064820152608490fd5b60405162461bcd60e51b815260206004820152602360248201527f45524332303a207472616e7366657220746f20746865207a65726f206164647260448201526265737360e81b6064820152608490fd5b60405162461bcd60e51b815260206004820152602560248201527f45524332303a207472616e736665722066726f6d20746865207a65726f206164604482015264647265737360d81b6064820152608490fd5b6001600160a01b03908116918215610fad5716918215610f5d5760207f8c5be1e5ebec7d5bd14f71427d1e84f3dd0314c0f7b2291e5b200ac8c7c3b925918360005260028252604060002085600052825280604060002055604051908152a3565b60405162461bcd60e51b815260206004820152602260248201527f45524332303a20617070726f766520746f20746865207a65726f206164647265604482015261737360f01b6064820152608490fd5b60405162461bcd60e51b8152602060048201526024808201527f45524332303a20617070726f76652066726f6d20746865207a65726f206164646044820152637265737360e01b6064820152608490fd5b307f00000000000000000000000000000000000000000000000000000000000000006001600160a01b03161480611100575b15611059577f000000000000000000000000000000000000000000000000000000000000000090565b60405160208101907f000000000000000000000000000000000000000000000000000000000000000082527f000000000000000000000000000000000000000000000000000000000000000060408201527f000000000000000000000000000000000000000000000000000000000000000060608201524660808201523060a082015260a0815260c0810181811067ffffffffffffffff821117610d535760405251902090565b507f00000000000000000000000000000000000000000000000000000000000000004614611030565b600581101561122d578061113a5750565b600181036111875760405162461bcd60e51b815260206004820152601860248201527f45434453413a20696e76616c6964207369676e617475726500000000000000006044820152606490fd5b600281036111d45760405162461bcd60e51b815260206004820152601f60248201527f45434453413a20696e76616c6964207369676e6174757265206c656e677468006044820152606490fd5b6003146111dd57565b60405162461bcd60e51b815260206004820152602260248201527f45434453413a20696e76616c6964207369676e6174757265202773272076616c604482015261756560f01b6064820152608490fd5b634e487b7160e01b600052602160045260246000fd5b9291907f7fffffffffffffffffffffffffffffff5d576e7357a4501ddfe92f46681b20a083116112c65791608094939160ff602094604051948552168484015260408301526060820152600093849182805260015afa156112b95781516001600160a01b038116156112b3579190565b50600190565b50604051903d90823e3d90fd5b50505050600090600390565b600a5462093a80420490808210611417576000905b6102008210611324575b50506020817fde5ae8a37da230f7df39b8ea385fa1ab48e7caa55f1c25eaaef1ed8690f3699892600a55604051908152a1565b61132e8282610d69565b806000526009906020908282526040938460002054958783146000146113a1575050917fde5ae8a37da230f7df39b8ea385fa1ab48e7caa55f1c25eaaef1ed8690f369989593916020959360035494851161138f575b5050505050916112f1565b60005252600020553880808080611384565b939095829395927f000000000000000000000000000000000000000000000000000000000000000010908161140e575b506113e5575b5050506001915001906112e7565b600019830194838611610d765760019560005252806000205491600052600020553880806113d7565b905015386113d1565b505056fea264697066735822122085dafce05f79bc15599ab574e95727745a072d439dd4bd15c87eaabdefd3c8e164736f6c63430008110033",
  "devdoc": {
    "kind": "dev",
    "methods": {
      "allowance(address,address)": {
        "details": "See {IERC20-allowance}."
      },
      "approve(address,uint256)": {
        "details": "See {IERC20-approve}. NOTE: If `amount` is the maximum `uint256`, the allowance is not updated on `transferFrom`. This is semantically equivalent to an infinite approval. Requirements: - `spender` cannot be the zero address."
      },
      "balanceOf(address)": {
        "details": "See {IERC20-balanceOf}."
      },
      "checkpoint()": {
        "details": "if this function doesn't get called for 512 weeks (around 9.8 years) this contract breaks"
      },
      "decimals()": {
        "details": "Returns the number of decimals used to get its user representation. For example, if `decimals` equals `2`, a balance of `505` tokens should be displayed to a user as `5.05` (`505 / 10 ** 2`). Tokens usually opt for a value of 18, imitating the relationship between Ether and Wei. This is the value {ERC20} uses, unless this function is overridden; NOTE: This information is only used for _display_ purposes: it in no way affects any of the arithmetic of the contract, including {IERC20-balanceOf} and {IERC20-transfer}."
      },
      "decreaseAllowance(address,uint256)": {
        "details": "Atomically decreases the allowance granted to `spender` by the caller. This is an alternative to {approve} that can be used as a mitigation for problems described in {IERC20-approve}. Emits an {Approval} event indicating the updated allowance. Requirements: - `spender` cannot be the zero address. - `spender` must have allowance for the caller of at least `subtractedValue`."
      },
      "increaseAllowance(address,uint256)": {
        "details": "Atomically increases the allowance granted to `spender` by the caller. This is an alternative to {approve} that can be used as a mitigation for problems described in {IERC20-approve}. Emits an {Approval} event indicating the updated allowance. Requirements: - `spender` cannot be the zero address."
      },
      "name()": {
        "details": "Returns the name of the token."
      },
      "owner()": {
        "details": "Returns the address of the current owner."
      },
      "renounceOwnership()": {
        "details": "Leaves the contract without owner. It will not be possible to call `onlyOwner` functions anymore. Can only be called by the current owner. NOTE: Renouncing ownership will leave the contract without an owner, thereby removing any functionality that is only available to the owner."
      },
      "symbol()": {
        "details": "Returns the symbol of the token, usually a shorter version of the name."
      },
      "totalSupply()": {
        "details": "See {IERC20-totalSupply}."
      },
      "transfer(address,uint256)": {
        "details": "See {IERC20-transfer}. Requirements: - `to` cannot be the zero address. - the caller must have a balance of at least `amount`."
      },
      "transferFrom(address,address,uint256)": {
        "details": "See {IERC20-transferFrom}. Emits an {Approval} event indicating the updated allowance. This is not required by the EIP. See the note at the beginning of {ERC20}. NOTE: Does not update the allowance if the current allowance is the maximum `uint256`. Requirements: - `from` and `to` cannot be the zero address. - `from` must have a balance of at least `amount`. - the caller must have allowance for ``from``'s tokens of at least `amount`."
      },
      "transferOwnership(address)": {
        "details": "Transfers ownership of the contract to a new account (`newOwner`). Can only be called by the current owner."
      }
    },
    "stateVariables": {
      "totalSupplyDuring": {
        "return": "minimum number of minted total supply during the whole week (only available >= startWeek)",
        "returns": {
          "_0": "minimum number of minted total supply during the whole week (only available >= startWeek)"
        }
      }
    },
    "version": 1
  },
  "userdoc": {
    "kind": "user",
    "methods": {
      "lastCheckpoint()": {
        "notice": "totalSupplyDuring is guaranteed to be correct before this week (exclusive)"
      }
    },
    "version": 1
  },
  "storageLayout": {
    "storage": [
      {
        "astId": 7,
        "contract": "contracts/FSushi.sol:FSushi",
        "label": "_owner",
        "offset": 0,
        "slot": "0",
        "type": "t_address"
      },
      {
        "astId": 599,
        "contract": "contracts/FSushi.sol:FSushi",
        "label": "_balances",
        "offset": 0,
        "slot": "1",
        "type": "t_mapping(t_address,t_uint256)"
      },
      {
        "astId": 605,
        "contract": "contracts/FSushi.sol:FSushi",
        "label": "_allowances",
        "offset": 0,
        "slot": "2",
        "type": "t_mapping(t_address,t_mapping(t_address,t_uint256))"
      },
      {
        "astId": 607,
        "contract": "contracts/FSushi.sol:FSushi",
        "label": "_totalSupply",
        "offset": 0,
        "slot": "3",
        "type": "t_uint256"
      },
      {
        "astId": 609,
        "contract": "contracts/FSushi.sol:FSushi",
        "label": "_name",
        "offset": 0,
        "slot": "4",
        "type": "t_string_storage"
      },
      {
        "astId": 611,
        "contract": "contracts/FSushi.sol:FSushi",
        "label": "_symbol",
        "offset": 0,
        "slot": "5",
        "type": "t_string_storage"
      },
      {
        "astId": 8268,
        "contract": "contracts/FSushi.sol:FSushi",
        "label": "isMinter",
        "offset": 0,
        "slot": "6",
        "type": "t_mapping(t_address,t_bool)"
      },
      {
        "astId": 8271,
        "contract": "contracts/FSushi.sol:FSushi",
        "label": "mintersLocked",
        "offset": 0,
        "slot": "7",
        "type": "t_bool"
      },
      {
        "astId": 8276,
        "contract": "contracts/FSushi.sol:FSushi",
        "label": "nonces",
        "offset": 0,
        "slot": "8",
        "type": "t_mapping(t_address,t_uint256)"
      },
      {
        "astId": 8282,
        "contract": "contracts/FSushi.sol:FSushi",
        "label": "totalSupplyDuring",
        "offset": 0,
        "slot": "9",
        "type": "t_mapping(t_uint256,t_uint256)"
      },
      {
        "astId": 8286,
        "contract": "contracts/FSushi.sol:FSushi",
        "label": "lastCheckpoint",
        "offset": 0,
        "slot": "10",
        "type": "t_uint256"
      }
    ],
    "types": {
      "t_address": {
        "encoding": "inplace",
        "label": "address",
        "numberOfBytes": "20"
      },
      "t_bool": {
        "encoding": "inplace",
        "label": "bool",
        "numberOfBytes": "1"
      },
      "t_mapping(t_address,t_bool)": {
        "encoding": "mapping",
        "key": "t_address",
        "label": "mapping(address => bool)",
        "numberOfBytes": "32",
        "value": "t_bool"
      },
      "t_mapping(t_address,t_mapping(t_address,t_uint256))": {
        "encoding": "mapping",
        "key": "t_address",
        "label": "mapping(address => mapping(address => uint256))",
        "numberOfBytes": "32",
        "value": "t_mapping(t_address,t_uint256)"
      },
      "t_mapping(t_address,t_uint256)": {
        "encoding": "mapping",
        "key": "t_address",
        "label": "mapping(address => uint256)",
        "numberOfBytes": "32",
        "value": "t_uint256"
      },
      "t_mapping(t_uint256,t_uint256)": {
        "encoding": "mapping",
        "key": "t_uint256",
        "label": "mapping(uint256 => uint256)",
        "numberOfBytes": "32",
        "value": "t_uint256"
      },
      "t_string_storage": {
        "encoding": "bytes",
        "label": "string",
        "numberOfBytes": "32"
      },
      "t_uint256": {
        "encoding": "inplace",
        "label": "uint256",
        "numberOfBytes": "32"
      }
    }
  }
}